{
	"contracts/CrowdFund.sol": {
		"CrowdFund": {
			"abi": [
				{
					"inputs": [
						{
							"internalType": "uint256",
							"name": "_goalInEther",
							"type": "uint256"
						},
						{
							"internalType": "uint256",
							"name": "_durationInMinutes",
							"type": "uint256"
						}
					],
					"stateMutability": "nonpayable",
					"type": "constructor"
				},
				{
					"anonymous": false,
					"inputs": [
						{
							"indexed": false,
							"internalType": "address",
							"name": "contributor",
							"type": "address"
						},
						{
							"indexed": false,
							"internalType": "uint256",
							"name": "amount",
							"type": "uint256"
						}
					],
					"name": "FundReceived",
					"type": "event"
				},
				{
					"anonymous": false,
					"inputs": [
						{
							"indexed": false,
							"internalType": "uint256",
							"name": "totalRaised",
							"type": "uint256"
						}
					],
					"name": "GoalReached",
					"type": "event"
				},
				{
					"anonymous": false,
					"inputs": [
						{
							"indexed": false,
							"internalType": "address",
							"name": "contributor",
							"type": "address"
						},
						{
							"indexed": false,
							"internalType": "uint256",
							"name": "amount",
							"type": "uint256"
						}
					],
					"name": "Refunded",
					"type": "event"
				},
				{
					"inputs": [],
					"name": "checkBalance",
					"outputs": [
						{
							"internalType": "uint256",
							"name": "",
							"type": "uint256"
						}
					],
					"stateMutability": "view",
					"type": "function"
				},
				{
					"inputs": [],
					"name": "contribute",
					"outputs": [],
					"stateMutability": "payable",
					"type": "function"
				},
				{
					"inputs": [
						{
							"internalType": "address",
							"name": "",
							"type": "address"
						}
					],
					"name": "contributions",
					"outputs": [
						{
							"internalType": "uint256",
							"name": "",
							"type": "uint256"
						}
					],
					"stateMutability": "view",
					"type": "function"
				},
				{
					"inputs": [],
					"name": "contributorCount",
					"outputs": [
						{
							"internalType": "uint256",
							"name": "",
							"type": "uint256"
						}
					],
					"stateMutability": "view",
					"type": "function"
				},
				{
					"inputs": [],
					"name": "deadline",
					"outputs": [
						{
							"internalType": "uint256",
							"name": "",
							"type": "uint256"
						}
					],
					"stateMutability": "view",
					"type": "function"
				},
				{
					"inputs": [],
					"name": "getDetails",
					"outputs": [
						{
							"internalType": "uint256",
							"name": "_goal",
							"type": "uint256"
						},
						{
							"internalType": "uint256",
							"name": "_deadline",
							"type": "uint256"
						},
						{
							"internalType": "uint256",
							"name": "_raisedAmount",
							"type": "uint256"
						},
						{
							"internalType": "uint256",
							"name": "_contributorCount",
							"type": "uint256"
						}
					],
					"stateMutability": "view",
					"type": "function"
				},
				{
					"inputs": [],
					"name": "goal",
					"outputs": [
						{
							"internalType": "uint256",
							"name": "",
							"type": "uint256"
						}
					],
					"stateMutability": "view",
					"type": "function"
				},
				{
					"inputs": [],
					"name": "owner",
					"outputs": [
						{
							"internalType": "address",
							"name": "",
							"type": "address"
						}
					],
					"stateMutability": "view",
					"type": "function"
				},
				{
					"inputs": [],
					"name": "raisedAmount",
					"outputs": [
						{
							"internalType": "uint256",
							"name": "",
							"type": "uint256"
						}
					],
					"stateMutability": "view",
					"type": "function"
				},
				{
					"inputs": [],
					"name": "refund",
					"outputs": [],
					"stateMutability": "nonpayable",
					"type": "function"
				},
				{
					"inputs": [],
					"name": "withdraw",
					"outputs": [],
					"stateMutability": "nonpayable",
					"type": "function"
				}
			],
			"devdoc": {
				"kind": "dev",
				"methods": {},
				"version": 1
			},
			"evm": {
				"assembly": "    /* \"contracts/CrowdFund.sol\":63:2463  contract CrowdFund { ... */\n  mstore(0x40, 0x80)\n    /* \"contracts/CrowdFund.sol\":876:1081  constructor(uint _goalInEther, uint _durationInMinutes) {... */\n  callvalue\n  dup1\n  iszero\n  tag_1\n  jumpi\n  0x00\n  dup1\n  revert\ntag_1:\n  pop\n  mload(0x40)\n  sub(codesize, bytecodeSize)\n  dup1\n  bytecodeSize\n  dup4\n  codecopy\n  dup2\n  dup2\n  add\n  0x40\n  mstore\n  dup2\n  add\n  swap1\n  tag_2\n  swap2\n  swap1\n  tag_3\n  jump\t// in\ntag_2:\n    /* \"contracts/CrowdFund.sol\":951:961  msg.sender */\n  caller\n    /* \"contracts/CrowdFund.sol\":943:948  owner */\n  0x00\n  dup1\n    /* \"contracts/CrowdFund.sol\":943:961  owner = msg.sender */\n  0x0100\n  exp\n  dup2\n  sload\n  dup2\n  0xffffffffffffffffffffffffffffffffffffffff\n  mul\n  not\n  and\n  swap1\n  dup4\n  0xffffffffffffffffffffffffffffffffffffffff\n  and\n  mul\n  or\n  swap1\n  sstore\n  pop\n    /* \"contracts/CrowdFund.sol\":994:1001  1 ether */\n  0x0de0b6b3a7640000\n    /* \"contracts/CrowdFund.sol\":979:991  _goalInEther */\n  dup3\n    /* \"contracts/CrowdFund.sol\":979:1001  _goalInEther * 1 ether */\n  tag_6\n  swap2\n  swap1\n  tag_7\n  jump\t// in\ntag_6:\n    /* \"contracts/CrowdFund.sol\":972:976  goal */\n  0x01\n    /* \"contracts/CrowdFund.sol\":972:1001  goal = _goalInEther * 1 ether */\n  dup2\n  swap1\n  sstore\n  pop\n    /* \"contracts/CrowdFund.sol\":1063:1072  1 minutes */\n  0x3c\n    /* \"contracts/CrowdFund.sol\":1042:1060  _durationInMinutes */\n  dup2\n    /* \"contracts/CrowdFund.sol\":1042:1072  _durationInMinutes * 1 minutes */\n  tag_8\n  swap2\n  swap1\n  tag_7\n  jump\t// in\ntag_8:\n    /* \"contracts/CrowdFund.sol\":1023:1038  block.timestamp */\n  timestamp\n    /* \"contracts/CrowdFund.sol\":1023:1073  block.timestamp + (_durationInMinutes * 1 minutes) */\n  tag_9\n  swap2\n  swap1\n  tag_10\n  jump\t// in\ntag_9:\n    /* \"contracts/CrowdFund.sol\":1012:1020  deadline */\n  0x02\n    /* \"contracts/CrowdFund.sol\":1012:1073  deadline = block.timestamp + (_durationInMinutes * 1 minutes) */\n  dup2\n  swap1\n  sstore\n  pop\n    /* \"contracts/CrowdFund.sol\":876:1081  constructor(uint _goalInEther, uint _durationInMinutes) {... */\n  pop\n  pop\n    /* \"contracts/CrowdFund.sol\":63:2463  contract CrowdFund { ... */\n  jump(tag_11)\n    /* \"#utility.yul\":88:205   */\ntag_13:\n    /* \"#utility.yul\":197:198   */\n  0x00\n    /* \"#utility.yul\":194:195   */\n  dup1\n    /* \"#utility.yul\":187:199   */\n  revert\n    /* \"#utility.yul\":334:411   */\ntag_15:\n    /* \"#utility.yul\":371:378   */\n  0x00\n    /* \"#utility.yul\":400:405   */\n  dup2\n    /* \"#utility.yul\":389:405   */\n  swap1\n  pop\n    /* \"#utility.yul\":334:411   */\n  swap2\n  swap1\n  pop\n  jump\t// out\n    /* \"#utility.yul\":417:539   */\ntag_16:\n    /* \"#utility.yul\":490:514   */\n  tag_25\n    /* \"#utility.yul\":508:513   */\n  dup2\n    /* \"#utility.yul\":490:514   */\n  tag_15\n  jump\t// in\ntag_25:\n    /* \"#utility.yul\":483:488   */\n  dup2\n    /* \"#utility.yul\":480:515   */\n  eq\n    /* \"#utility.yul\":470:533   */\n  tag_26\n  jumpi\n    /* \"#utility.yul\":529:530   */\n  0x00\n    /* \"#utility.yul\":526:527   */\n  dup1\n    /* \"#utility.yul\":519:531   */\n  revert\n    /* \"#utility.yul\":470:533   */\ntag_26:\n    /* \"#utility.yul\":417:539   */\n  pop\n  jump\t// out\n    /* \"#utility.yul\":545:688   */\ntag_17:\n    /* \"#utility.yul\":602:607   */\n  0x00\n    /* \"#utility.yul\":633:639   */\n  dup2\n    /* \"#utility.yul\":627:640   */\n  mload\n    /* \"#utility.yul\":618:640   */\n  swap1\n  pop\n    /* \"#utility.yul\":649:682   */\n  tag_28\n    /* \"#utility.yul\":676:681   */\n  dup2\n    /* \"#utility.yul\":649:682   */\n  tag_16\n  jump\t// in\ntag_28:\n    /* \"#utility.yul\":545:688   */\n  swap3\n  swap2\n  pop\n  pop\n  jump\t// out\n    /* \"#utility.yul\":694:1201   */\ntag_3:\n    /* \"#utility.yul\":773:779   */\n  0x00\n    /* \"#utility.yul\":781:787   */\n  dup1\n    /* \"#utility.yul\":830:832   */\n  0x40\n    /* \"#utility.yul\":818:827   */\n  dup4\n    /* \"#utility.yul\":809:816   */\n  dup6\n    /* \"#utility.yul\":805:828   */\n  sub\n    /* \"#utility.yul\":801:833   */\n  slt\n    /* \"#utility.yul\":798:917   */\n  iszero\n  tag_30\n  jumpi\n    /* \"#utility.yul\":836:915   */\n  tag_31\n  tag_13\n  jump\t// in\ntag_31:\n    /* \"#utility.yul\":798:917   */\ntag_30:\n    /* \"#utility.yul\":956:957   */\n  0x00\n    /* \"#utility.yul\":981:1045   */\n  tag_32\n    /* \"#utility.yul\":1037:1044   */\n  dup6\n    /* \"#utility.yul\":1028:1034   */\n  dup3\n    /* \"#utility.yul\":1017:1026   */\n  dup7\n    /* \"#utility.yul\":1013:1035   */\n  add\n    /* \"#utility.yul\":981:1045   */\n  tag_17\n  jump\t// in\ntag_32:\n    /* \"#utility.yul\":971:1045   */\n  swap3\n  pop\n    /* \"#utility.yul\":927:1055   */\n  pop\n    /* \"#utility.yul\":1094:1096   */\n  0x20\n    /* \"#utility.yul\":1120:1184   */\n  tag_33\n    /* \"#utility.yul\":1176:1183   */\n  dup6\n    /* \"#utility.yul\":1167:1173   */\n  dup3\n    /* \"#utility.yul\":1156:1165   */\n  dup7\n    /* \"#utility.yul\":1152:1174   */\n  add\n    /* \"#utility.yul\":1120:1184   */\n  tag_17\n  jump\t// in\ntag_33:\n    /* \"#utility.yul\":1110:1184   */\n  swap2\n  pop\n    /* \"#utility.yul\":1065:1194   */\n  pop\n    /* \"#utility.yul\":694:1201   */\n  swap3\n  pop\n  swap3\n  swap1\n  pop\n  jump\t// out\n    /* \"#utility.yul\":1207:1387   */\ntag_18:\n    /* \"#utility.yul\":1255:1332   */\n  0x4e487b7100000000000000000000000000000000000000000000000000000000\n    /* \"#utility.yul\":1252:1253   */\n  0x00\n    /* \"#utility.yul\":1245:1333   */\n  mstore\n    /* \"#utility.yul\":1352:1356   */\n  0x11\n    /* \"#utility.yul\":1349:1350   */\n  0x04\n    /* \"#utility.yul\":1342:1357   */\n  mstore\n    /* \"#utility.yul\":1376:1380   */\n  0x24\n    /* \"#utility.yul\":1373:1374   */\n  0x00\n    /* \"#utility.yul\":1366:1381   */\n  revert\n    /* \"#utility.yul\":1393:1803   */\ntag_7:\n    /* \"#utility.yul\":1433:1440   */\n  0x00\n    /* \"#utility.yul\":1456:1476   */\n  tag_36\n    /* \"#utility.yul\":1474:1475   */\n  dup3\n    /* \"#utility.yul\":1456:1476   */\n  tag_15\n  jump\t// in\ntag_36:\n    /* \"#utility.yul\":1451:1476   */\n  swap2\n  pop\n    /* \"#utility.yul\":1490:1510   */\n  tag_37\n    /* \"#utility.yul\":1508:1509   */\n  dup4\n    /* \"#utility.yul\":1490:1510   */\n  tag_15\n  jump\t// in\ntag_37:\n    /* \"#utility.yul\":1485:1510   */\n  swap3\n  pop\n    /* \"#utility.yul\":1545:1546   */\n  dup3\n    /* \"#utility.yul\":1542:1543   */\n  dup3\n    /* \"#utility.yul\":1538:1547   */\n  mul\n    /* \"#utility.yul\":1567:1597   */\n  tag_38\n    /* \"#utility.yul\":1585:1596   */\n  dup2\n    /* \"#utility.yul\":1567:1597   */\n  tag_15\n  jump\t// in\ntag_38:\n    /* \"#utility.yul\":1556:1597   */\n  swap2\n  pop\n    /* \"#utility.yul\":1746:1747   */\n  dup3\n    /* \"#utility.yul\":1737:1744   */\n  dup3\n    /* \"#utility.yul\":1733:1748   */\n  div\n    /* \"#utility.yul\":1730:1731   */\n  dup5\n    /* \"#utility.yul\":1727:1749   */\n  eq\n    /* \"#utility.yul\":1707:1708   */\n  dup4\n    /* \"#utility.yul\":1700:1709   */\n  iszero\n    /* \"#utility.yul\":1680:1763   */\n  or\n    /* \"#utility.yul\":1657:1796   */\n  tag_39\n  jumpi\n    /* \"#utility.yul\":1776:1794   */\n  tag_40\n  tag_18\n  jump\t// in\ntag_40:\n    /* \"#utility.yul\":1657:1796   */\ntag_39:\n    /* \"#utility.yul\":1441:1803   */\n  pop\n    /* \"#utility.yul\":1393:1803   */\n  swap3\n  swap2\n  pop\n  pop\n  jump\t// out\n    /* \"#utility.yul\":1809:2000   */\ntag_10:\n    /* \"#utility.yul\":1849:1852   */\n  0x00\n    /* \"#utility.yul\":1868:1888   */\n  tag_42\n    /* \"#utility.yul\":1886:1887   */\n  dup3\n    /* \"#utility.yul\":1868:1888   */\n  tag_15\n  jump\t// in\ntag_42:\n    /* \"#utility.yul\":1863:1888   */\n  swap2\n  pop\n    /* \"#utility.yul\":1902:1922   */\n  tag_43\n    /* \"#utility.yul\":1920:1921   */\n  dup4\n    /* \"#utility.yul\":1902:1922   */\n  tag_15\n  jump\t// in\ntag_43:\n    /* \"#utility.yul\":1897:1922   */\n  swap3\n  pop\n    /* \"#utility.yul\":1945:1946   */\n  dup3\n    /* \"#utility.yul\":1942:1943   */\n  dup3\n    /* \"#utility.yul\":1938:1947   */\n  add\n    /* \"#utility.yul\":1931:1947   */\n  swap1\n  pop\n    /* \"#utility.yul\":1966:1969   */\n  dup1\n    /* \"#utility.yul\":1963:1964   */\n  dup3\n    /* \"#utility.yul\":1960:1970   */\n  gt\n    /* \"#utility.yul\":1957:1993   */\n  iszero\n  tag_44\n  jumpi\n    /* \"#utility.yul\":1973:1991   */\n  tag_45\n  tag_18\n  jump\t// in\ntag_45:\n    /* \"#utility.yul\":1957:1993   */\ntag_44:\n    /* \"#utility.yul\":1809:2000   */\n  swap3\n  swap2\n  pop\n  pop\n  jump\t// out\n    /* \"contracts/CrowdFund.sol\":63:2463  contract CrowdFund { ... */\ntag_11:\n  dataSize(sub_0)\n  dup1\n  dataOffset(sub_0)\n  0x00\n  codecopy\n  0x00\n  return\nstop\n\nsub_0: assembly {\n        /* \"contracts/CrowdFund.sol\":63:2463  contract CrowdFund { ... */\n      mstore(0x40, 0x80)\n      jumpi(tag_1, lt(calldatasize, 0x04))\n      shr(0xe0, calldataload(0x00))\n      dup1\n      0x8da5cb5b\n      gt\n      tag_13\n      jumpi\n      dup1\n      0x8da5cb5b\n      eq\n      tag_7\n      jumpi\n      dup1\n      0xc59ee1dc\n      eq\n      tag_8\n      jumpi\n      dup1\n      0xc71daccb\n      eq\n      tag_9\n      jumpi\n      dup1\n      0xd7bb99ba\n      eq\n      tag_10\n      jumpi\n      dup1\n      0xecfd8928\n      eq\n      tag_11\n      jumpi\n      dup1\n      0xfbbf93a0\n      eq\n      tag_12\n      jumpi\n      jump(tag_1)\n    tag_13:\n      dup1\n      0x29dcb0cf\n      eq\n      tag_2\n      jumpi\n      dup1\n      0x3ccfd60b\n      eq\n      tag_3\n      jumpi\n      dup1\n      0x40193883\n      eq\n      tag_4\n      jumpi\n      dup1\n      0x42e94c90\n      eq\n      tag_5\n      jumpi\n      dup1\n      0x590e1ae3\n      eq\n      tag_6\n      jumpi\n    tag_1:\n      0x00\n      dup1\n      revert\n        /* \"contracts/CrowdFund.sol\":170:190  uint public deadline */\n    tag_2:\n      callvalue\n      dup1\n      iszero\n      tag_14\n      jumpi\n      0x00\n      dup1\n      revert\n    tag_14:\n      pop\n      tag_15\n      tag_16\n      jump\t// in\n    tag_15:\n      mload(0x40)\n      tag_17\n      swap2\n      swap1\n      tag_18\n      jump\t// in\n    tag_17:\n      mload(0x40)\n      dup1\n      swap2\n      sub\n      swap1\n      return\n        /* \"contracts/CrowdFund.sol\":1687:1849  function withdraw() public onlyOwner {... */\n    tag_3:\n      callvalue\n      dup1\n      iszero\n      tag_19\n      jumpi\n      0x00\n      dup1\n      revert\n    tag_19:\n      pop\n      tag_20\n      tag_21\n      jump\t// in\n    tag_20:\n      stop\n        /* \"contracts/CrowdFund.sol\":147:163  uint public goal */\n    tag_4:\n      callvalue\n      dup1\n      iszero\n      tag_22\n      jumpi\n      0x00\n      dup1\n      revert\n    tag_22:\n      pop\n      tag_23\n      tag_24\n      jump\t// in\n    tag_23:\n      mload(0x40)\n      tag_25\n      swap2\n      swap1\n      tag_18\n      jump\t// in\n    tag_25:\n      mload(0x40)\n      dup1\n      swap2\n      sub\n      swap1\n      return\n        /* \"contracts/CrowdFund.sol\":264:309  mapping(address => uint) public contributions */\n    tag_5:\n      callvalue\n      dup1\n      iszero\n      tag_26\n      jumpi\n      0x00\n      dup1\n      revert\n    tag_26:\n      pop\n      tag_27\n      0x04\n      dup1\n      calldatasize\n      sub\n      dup2\n      add\n      swap1\n      tag_28\n      swap2\n      swap1\n      tag_29\n      jump\t// in\n    tag_28:\n      tag_30\n      jump\t// in\n    tag_27:\n      mload(0x40)\n      tag_31\n      swap2\n      swap1\n      tag_18\n      jump\t// in\n    tag_31:\n      mload(0x40)\n      dup1\n      swap2\n      sub\n      swap1\n      return\n        /* \"contracts/CrowdFund.sol\":1857:2220  function refund() public afterDeadline {... */\n    tag_6:\n      callvalue\n      dup1\n      iszero\n      tag_32\n      jumpi\n      0x00\n      dup1\n      revert\n    tag_32:\n      pop\n      tag_33\n      tag_34\n      jump\t// in\n    tag_33:\n      stop\n        /* \"contracts/CrowdFund.sol\":90:110  address public owner */\n    tag_7:\n      callvalue\n      dup1\n      iszero\n      tag_35\n      jumpi\n      0x00\n      dup1\n      revert\n    tag_35:\n      pop\n      tag_36\n      tag_37\n      jump\t// in\n    tag_36:\n      mload(0x40)\n      tag_38\n      swap2\n      swap1\n      tag_39\n      jump\t// in\n    tag_38:\n      mload(0x40)\n      dup1\n      swap2\n      sub\n      swap1\n      return\n        /* \"contracts/CrowdFund.sol\":197:221  uint public raisedAmount */\n    tag_8:\n      callvalue\n      dup1\n      iszero\n      tag_40\n      jumpi\n      0x00\n      dup1\n      revert\n    tag_40:\n      pop\n      tag_41\n      tag_42\n      jump\t// in\n    tag_41:\n      mload(0x40)\n      tag_43\n      swap2\n      swap1\n      tag_18\n      jump\t// in\n    tag_43:\n      mload(0x40)\n      dup1\n      swap2\n      sub\n      swap1\n      return\n        /* \"contracts/CrowdFund.sol\":1581:1679  function checkBalance() public view returns (uint) {... */\n    tag_9:\n      callvalue\n      dup1\n      iszero\n      tag_44\n      jumpi\n      0x00\n      dup1\n      revert\n    tag_44:\n      pop\n      tag_45\n      tag_46\n      jump\t// in\n    tag_45:\n      mload(0x40)\n      tag_47\n      swap2\n      swap1\n      tag_18\n      jump\t// in\n    tag_47:\n      mload(0x40)\n      dup1\n      swap2\n      sub\n      swap1\n      return\n        /* \"contracts/CrowdFund.sol\":1107:1573  function contribute() public payable beforeDeadline {... */\n    tag_10:\n      tag_48\n      tag_49\n      jump\t// in\n    tag_48:\n      stop\n        /* \"contracts/CrowdFund.sol\":228:256  uint public contributorCount */\n    tag_11:\n      callvalue\n      dup1\n      iszero\n      tag_50\n      jumpi\n      0x00\n      dup1\n      revert\n    tag_50:\n      pop\n      tag_51\n      tag_52\n      jump\t// in\n    tag_51:\n      mload(0x40)\n      tag_53\n      swap2\n      swap1\n      tag_18\n      jump\t// in\n    tag_53:\n      mload(0x40)\n      dup1\n      swap2\n      sub\n      swap1\n      return\n        /* \"contracts/CrowdFund.sol\":2228:2460  function getDetails() public view returns (... */\n    tag_12:\n      callvalue\n      dup1\n      iszero\n      tag_54\n      jumpi\n      0x00\n      dup1\n      revert\n    tag_54:\n      pop\n      tag_55\n      tag_56\n      jump\t// in\n    tag_55:\n      mload(0x40)\n      tag_57\n      swap5\n      swap4\n      swap3\n      swap2\n      swap1\n      tag_58\n      jump\t// in\n    tag_57:\n      mload(0x40)\n      dup1\n      swap2\n      sub\n      swap1\n      return\n        /* \"contracts/CrowdFund.sol\":170:190  uint public deadline */\n    tag_16:\n      sload(0x02)\n      dup2\n      jump\t// out\n        /* \"contracts/CrowdFund.sol\":1687:1849  function withdraw() public onlyOwner {... */\n    tag_21:\n        /* \"contracts/CrowdFund.sol\":552:557  owner */\n      0x00\n      dup1\n      sload\n      swap1\n      0x0100\n      exp\n      swap1\n      div\n      0xffffffffffffffffffffffffffffffffffffffff\n      and\n        /* \"contracts/CrowdFund.sol\":538:557  msg.sender == owner */\n      0xffffffffffffffffffffffffffffffffffffffff\n      and\n        /* \"contracts/CrowdFund.sol\":538:548  msg.sender */\n      caller\n        /* \"contracts/CrowdFund.sol\":538:557  msg.sender == owner */\n      0xffffffffffffffffffffffffffffffffffffffff\n      and\n      eq\n        /* \"contracts/CrowdFund.sol\":530:576  require(msg.sender == owner, \"Not authorized\") */\n      tag_60\n      jumpi\n      mload(0x40)\n      0x08c379a000000000000000000000000000000000000000000000000000000000\n      dup2\n      mstore\n      0x04\n      add\n      tag_61\n      swap1\n      tag_62\n      jump\t// in\n    tag_61:\n      mload(0x40)\n      dup1\n      swap2\n      sub\n      swap1\n      revert\n    tag_60:\n        /* \"contracts/CrowdFund.sol\":1759:1763  goal */\n      sload(0x01)\n        /* \"contracts/CrowdFund.sol\":1743:1755  raisedAmount */\n      sload(0x03)\n        /* \"contracts/CrowdFund.sol\":1743:1763  raisedAmount >= goal */\n      lt\n      iszero\n        /* \"contracts/CrowdFund.sol\":1735:1784  require(raisedAmount >= goal, \"Goal not reached\") */\n      tag_64\n      jumpi\n      mload(0x40)\n      0x08c379a000000000000000000000000000000000000000000000000000000000\n      dup2\n      mstore\n      0x04\n      add\n      tag_65\n      swap1\n      tag_66\n      jump\t// in\n    tag_65:\n      mload(0x40)\n      dup1\n      swap2\n      sub\n      swap1\n      revert\n    tag_64:\n        /* \"contracts/CrowdFund.sol\":1803:1808  owner */\n      0x00\n      dup1\n      sload\n      swap1\n      0x0100\n      exp\n      swap1\n      div\n      0xffffffffffffffffffffffffffffffffffffffff\n      and\n        /* \"contracts/CrowdFund.sol\":1795:1818  payable(owner).transfer */\n      0xffffffffffffffffffffffffffffffffffffffff\n      and\n        /* \"contracts/CrowdFund.sol\":1795:1841  payable(owner).transfer(address(this).balance) */\n      0x08fc\n        /* \"contracts/CrowdFund.sol\":1819:1840  address(this).balance */\n      selfbalance\n        /* \"contracts/CrowdFund.sol\":1795:1841  payable(owner).transfer(address(this).balance) */\n      swap1\n      dup2\n      iszero\n      mul\n      swap1\n      mload(0x40)\n      0x00\n      mload(0x40)\n      dup1\n      dup4\n      sub\n      dup2\n      dup6\n      dup9\n      dup9\n      call\n      swap4\n      pop\n      pop\n      pop\n      pop\n      iszero\n      dup1\n      iszero\n      tag_68\n      jumpi\n      returndatasize\n      0x00\n      dup1\n      returndatacopy\n      revert(0x00, returndatasize)\n    tag_68:\n      pop\n        /* \"contracts/CrowdFund.sol\":1687:1849  function withdraw() public onlyOwner {... */\n      jump\t// out\n        /* \"contracts/CrowdFund.sol\":147:163  uint public goal */\n    tag_24:\n      sload(0x01)\n      dup2\n      jump\t// out\n        /* \"contracts/CrowdFund.sol\":264:309  mapping(address => uint) public contributions */\n    tag_30:\n      mstore(0x20, 0x05)\n      dup1\n      0x00\n      mstore\n      keccak256(0x00, 0x40)\n      0x00\n      swap2\n      pop\n      swap1\n      pop\n      sload\n      dup2\n      jump\t// out\n        /* \"contracts/CrowdFund.sol\":1857:2220  function refund() public afterDeadline {... */\n    tag_34:\n        /* \"contracts/CrowdFund.sol\":788:796  deadline */\n      sload(0x02)\n        /* \"contracts/CrowdFund.sol\":769:784  block.timestamp */\n      timestamp\n        /* \"contracts/CrowdFund.sol\":769:796  block.timestamp >= deadline */\n      lt\n      iszero\n        /* \"contracts/CrowdFund.sol\":761:825  require(block.timestamp >= deadline, \"Deadline not yet reached\") */\n      tag_70\n      jumpi\n      mload(0x40)\n      0x08c379a000000000000000000000000000000000000000000000000000000000\n      dup2\n      mstore\n      0x04\n      add\n      tag_71\n      swap1\n      tag_72\n      jump\t// in\n    tag_71:\n      mload(0x40)\n      dup1\n      swap2\n      sub\n      swap1\n      revert\n    tag_70:\n        /* \"contracts/CrowdFund.sol\":1930:1934  goal */\n      sload(0x01)\n        /* \"contracts/CrowdFund.sol\":1915:1927  raisedAmount */\n      sload(0x03)\n        /* \"contracts/CrowdFund.sol\":1915:1934  raisedAmount < goal */\n      lt\n        /* \"contracts/CrowdFund.sol\":1907:1951  require(raisedAmount < goal, \"Goal was met\") */\n      tag_74\n      jumpi\n      mload(0x40)\n      0x08c379a000000000000000000000000000000000000000000000000000000000\n      dup2\n      mstore\n      0x04\n      add\n      tag_75\n      swap1\n      tag_76\n      jump\t// in\n    tag_75:\n      mload(0x40)\n      dup1\n      swap2\n      sub\n      swap1\n      revert\n    tag_74:\n        /* \"contracts/CrowdFund.sol\":1962:1978  uint contributed */\n      0x00\n        /* \"contracts/CrowdFund.sol\":1981:1994  contributions */\n      0x05\n        /* \"contracts/CrowdFund.sol\":1981:2006  contributions[msg.sender] */\n      0x00\n        /* \"contracts/CrowdFund.sol\":1995:2005  msg.sender */\n      caller\n        /* \"contracts/CrowdFund.sol\":1981:2006  contributions[msg.sender] */\n      0xffffffffffffffffffffffffffffffffffffffff\n      and\n      0xffffffffffffffffffffffffffffffffffffffff\n      and\n      dup2\n      mstore\n      0x20\n      add\n      swap1\n      dup2\n      mstore\n      0x20\n      add\n      0x00\n      keccak256\n      sload\n        /* \"contracts/CrowdFund.sol\":1962:2006  uint contributed = contributions[msg.sender] */\n      swap1\n      pop\n        /* \"contracts/CrowdFund.sol\":2039:2040  0 */\n      0x00\n        /* \"contracts/CrowdFund.sol\":2025:2036  contributed */\n      dup2\n        /* \"contracts/CrowdFund.sol\":2025:2040  contributed > 0 */\n      gt\n        /* \"contracts/CrowdFund.sol\":2017:2067  require(contributed > 0, \"No contributions found\") */\n      tag_77\n      jumpi\n      mload(0x40)\n      0x08c379a000000000000000000000000000000000000000000000000000000000\n      dup2\n      mstore\n      0x04\n      add\n      tag_78\n      swap1\n      tag_79\n      jump\t// in\n    tag_78:\n      mload(0x40)\n      dup1\n      swap2\n      sub\n      swap1\n      revert\n    tag_77:\n        /* \"contracts/CrowdFund.sol\":2108:2109  0 */\n      0x00\n        /* \"contracts/CrowdFund.sol\":2080:2093  contributions */\n      0x05\n        /* \"contracts/CrowdFund.sol\":2080:2105  contributions[msg.sender] */\n      0x00\n        /* \"contracts/CrowdFund.sol\":2094:2104  msg.sender */\n      caller\n        /* \"contracts/CrowdFund.sol\":2080:2105  contributions[msg.sender] */\n      0xffffffffffffffffffffffffffffffffffffffff\n      and\n      0xffffffffffffffffffffffffffffffffffffffff\n      and\n      dup2\n      mstore\n      0x20\n      add\n      swap1\n      dup2\n      mstore\n      0x20\n      add\n      0x00\n      keccak256\n        /* \"contracts/CrowdFund.sol\":2080:2109  contributions[msg.sender] = 0 */\n      dup2\n      swap1\n      sstore\n      pop\n        /* \"contracts/CrowdFund.sol\":2128:2138  msg.sender */\n      caller\n        /* \"contracts/CrowdFund.sol\":2120:2148  payable(msg.sender).transfer */\n      0xffffffffffffffffffffffffffffffffffffffff\n      and\n        /* \"contracts/CrowdFund.sol\":2120:2161  payable(msg.sender).transfer(contributed) */\n      0x08fc\n        /* \"contracts/CrowdFund.sol\":2149:2160  contributed */\n      dup3\n        /* \"contracts/CrowdFund.sol\":2120:2161  payable(msg.sender).transfer(contributed) */\n      swap1\n      dup2\n      iszero\n      mul\n      swap1\n      mload(0x40)\n      0x00\n      mload(0x40)\n      dup1\n      dup4\n      sub\n      dup2\n      dup6\n      dup9\n      dup9\n      call\n      swap4\n      pop\n      pop\n      pop\n      pop\n      iszero\n      dup1\n      iszero\n      tag_81\n      jumpi\n      returndatasize\n      0x00\n      dup1\n      returndatacopy\n      revert(0x00, returndatasize)\n    tag_81:\n      pop\n        /* \"contracts/CrowdFund.sol\":2179:2212  Refunded(msg.sender, contributed) */\n      0xd7dee2702d63ad89917b6a4da9981c90c4d24f8c2bdfd64c604ecae57d8d0651\n        /* \"contracts/CrowdFund.sol\":2188:2198  msg.sender */\n      caller\n        /* \"contracts/CrowdFund.sol\":2200:2211  contributed */\n      dup3\n        /* \"contracts/CrowdFund.sol\":2179:2212  Refunded(msg.sender, contributed) */\n      mload(0x40)\n      tag_82\n      swap3\n      swap2\n      swap1\n      tag_83\n      jump\t// in\n    tag_82:\n      mload(0x40)\n      dup1\n      swap2\n      sub\n      swap1\n      log1\n        /* \"contracts/CrowdFund.sol\":1896:2220  {... */\n      pop\n        /* \"contracts/CrowdFund.sol\":1857:2220  function refund() public afterDeadline {... */\n      jump\t// out\n        /* \"contracts/CrowdFund.sol\":90:110  address public owner */\n    tag_37:\n      0x00\n      dup1\n      sload\n      swap1\n      0x0100\n      exp\n      swap1\n      div\n      0xffffffffffffffffffffffffffffffffffffffff\n      and\n      dup2\n      jump\t// out\n        /* \"contracts/CrowdFund.sol\":197:221  uint public raisedAmount */\n    tag_42:\n      sload(0x03)\n      dup2\n      jump\t// out\n        /* \"contracts/CrowdFund.sol\":1581:1679  function checkBalance() public view returns (uint) {... */\n    tag_46:\n        /* \"contracts/CrowdFund.sol\":1626:1630  uint */\n      0x00\n        /* \"contracts/CrowdFund.sol\":1650:1671  address(this).balance */\n      selfbalance\n        /* \"contracts/CrowdFund.sol\":1643:1671  return address(this).balance */\n      swap1\n      pop\n        /* \"contracts/CrowdFund.sol\":1581:1679  function checkBalance() public view returns (uint) {... */\n      swap1\n      jump\t// out\n        /* \"contracts/CrowdFund.sol\":1107:1573  function contribute() public payable beforeDeadline {... */\n    tag_49:\n        /* \"contracts/CrowdFund.sol\":669:677  deadline */\n      sload(0x02)\n        /* \"contracts/CrowdFund.sol\":651:666  block.timestamp */\n      timestamp\n        /* \"contracts/CrowdFund.sol\":651:677  block.timestamp < deadline */\n      lt\n        /* \"contracts/CrowdFund.sol\":643:697  require(block.timestamp < deadline, \"Deadline passed\") */\n      tag_86\n      jumpi\n      mload(0x40)\n      0x08c379a000000000000000000000000000000000000000000000000000000000\n      dup2\n      mstore\n      0x04\n      add\n      tag_87\n      swap1\n      tag_88\n      jump\t// in\n    tag_87:\n      mload(0x40)\n      dup1\n      swap2\n      sub\n      swap1\n      revert\n    tag_86:\n        /* \"contracts/CrowdFund.sol\":1190:1200  0.01 ether */\n      0x2386f26fc10000\n        /* \"contracts/CrowdFund.sol\":1178:1187  msg.value */\n      callvalue\n        /* \"contracts/CrowdFund.sol\":1178:1200  msg.value > 0.01 ether */\n      gt\n        /* \"contracts/CrowdFund.sol\":1170:1237  require(msg.value > 0.01 ether, \"Minimum contribution is 0.01 ETH\") */\n      tag_90\n      jumpi\n      mload(0x40)\n      0x08c379a000000000000000000000000000000000000000000000000000000000\n      dup2\n      mstore\n      0x04\n      add\n      tag_91\n      swap1\n      tag_92\n      jump\t// in\n    tag_91:\n      mload(0x40)\n      dup1\n      swap2\n      sub\n      swap1\n      revert\n    tag_90:\n        /* \"contracts/CrowdFund.sol\":1283:1284  0 */\n      0x00\n        /* \"contracts/CrowdFund.sol\":1254:1267  contributions */\n      0x05\n        /* \"contracts/CrowdFund.sol\":1254:1279  contributions[msg.sender] */\n      0x00\n        /* \"contracts/CrowdFund.sol\":1268:1278  msg.sender */\n      caller\n        /* \"contracts/CrowdFund.sol\":1254:1279  contributions[msg.sender] */\n      0xffffffffffffffffffffffffffffffffffffffff\n      and\n      0xffffffffffffffffffffffffffffffffffffffff\n      and\n      dup2\n      mstore\n      0x20\n      add\n      swap1\n      dup2\n      mstore\n      0x20\n      add\n      0x00\n      keccak256\n      sload\n        /* \"contracts/CrowdFund.sol\":1254:1284  contributions[msg.sender] == 0 */\n      sub\n        /* \"contracts/CrowdFund.sol\":1250:1331  if (contributions[msg.sender] == 0) {... */\n      tag_93\n      jumpi\n        /* \"contracts/CrowdFund.sol\":1301:1317  contributorCount */\n      0x04\n      0x00\n        /* \"contracts/CrowdFund.sol\":1301:1319  contributorCount++ */\n      dup2\n      sload\n      dup1\n      swap3\n      swap2\n      swap1\n      tag_94\n      swap1\n      tag_95\n      jump\t// in\n    tag_94:\n      swap2\n      swap1\n      pop\n      sstore\n      pop\n        /* \"contracts/CrowdFund.sol\":1250:1331  if (contributions[msg.sender] == 0) {... */\n    tag_93:\n        /* \"contracts/CrowdFund.sol\":1372:1381  msg.value */\n      callvalue\n        /* \"contracts/CrowdFund.sol\":1343:1356  contributions */\n      0x05\n        /* \"contracts/CrowdFund.sol\":1343:1368  contributions[msg.sender] */\n      0x00\n        /* \"contracts/CrowdFund.sol\":1357:1367  msg.sender */\n      caller\n        /* \"contracts/CrowdFund.sol\":1343:1368  contributions[msg.sender] */\n      0xffffffffffffffffffffffffffffffffffffffff\n      and\n      0xffffffffffffffffffffffffffffffffffffffff\n      and\n      dup2\n      mstore\n      0x20\n      add\n      swap1\n      dup2\n      mstore\n      0x20\n      add\n      0x00\n      keccak256\n      0x00\n        /* \"contracts/CrowdFund.sol\":1343:1381  contributions[msg.sender] += msg.value */\n      dup3\n      dup3\n      sload\n      tag_96\n      swap2\n      swap1\n      tag_97\n      jump\t// in\n    tag_96:\n      swap3\n      pop\n      pop\n      dup2\n      swap1\n      sstore\n      pop\n        /* \"contracts/CrowdFund.sol\":1408:1417  msg.value */\n      callvalue\n        /* \"contracts/CrowdFund.sol\":1392:1404  raisedAmount */\n      0x03\n      0x00\n        /* \"contracts/CrowdFund.sol\":1392:1417  raisedAmount += msg.value */\n      dup3\n      dup3\n      sload\n      tag_98\n      swap2\n      swap1\n      tag_97\n      jump\t// in\n    tag_98:\n      swap3\n      pop\n      pop\n      dup2\n      swap1\n      sstore\n      pop\n        /* \"contracts/CrowdFund.sol\":1435:1470  FundReceived(msg.sender, msg.value) */\n      0x54a5b8782470a0d2c022b3b9e5e729503ac5dbdfe053afeb4559f9297f7565a6\n        /* \"contracts/CrowdFund.sol\":1448:1458  msg.sender */\n      caller\n        /* \"contracts/CrowdFund.sol\":1460:1469  msg.value */\n      callvalue\n        /* \"contracts/CrowdFund.sol\":1435:1470  FundReceived(msg.sender, msg.value) */\n      mload(0x40)\n      tag_99\n      swap3\n      swap2\n      swap1\n      tag_83\n      jump\t// in\n    tag_99:\n      mload(0x40)\n      dup1\n      swap2\n      sub\n      swap1\n      log1\n        /* \"contracts/CrowdFund.sol\":1503:1507  goal */\n      sload(0x01)\n        /* \"contracts/CrowdFund.sol\":1487:1499  raisedAmount */\n      sload(0x03)\n        /* \"contracts/CrowdFund.sol\":1487:1507  raisedAmount >= goal */\n      lt\n        /* \"contracts/CrowdFund.sol\":1483:1566  if (raisedAmount >= goal) {... */\n      tag_100\n      jumpi\n        /* \"contracts/CrowdFund.sol\":1529:1554  GoalReached(raisedAmount) */\n      0xfbfd8ab7c24300fa9888cd721c8565a7da56759384781283684dcf7c7c4a846b\n        /* \"contracts/CrowdFund.sol\":1541:1553  raisedAmount */\n      sload(0x03)\n        /* \"contracts/CrowdFund.sol\":1529:1554  GoalReached(raisedAmount) */\n      mload(0x40)\n      tag_101\n      swap2\n      swap1\n      tag_18\n      jump\t// in\n    tag_101:\n      mload(0x40)\n      dup1\n      swap2\n      sub\n      swap1\n      log1\n        /* \"contracts/CrowdFund.sol\":1483:1566  if (raisedAmount >= goal) {... */\n    tag_100:\n        /* \"contracts/CrowdFund.sol\":1107:1573  function contribute() public payable beforeDeadline {... */\n      jump\t// out\n        /* \"contracts/CrowdFund.sol\":228:256  uint public contributorCount */\n    tag_52:\n      sload(0x04)\n      dup2\n      jump\t// out\n        /* \"contracts/CrowdFund.sol\":2228:2460  function getDetails() public view returns (... */\n    tag_56:\n        /* \"contracts/CrowdFund.sol\":2281:2291  uint _goal */\n      0x00\n        /* \"contracts/CrowdFund.sol\":2302:2316  uint _deadline */\n      dup1\n        /* \"contracts/CrowdFund.sol\":2327:2345  uint _raisedAmount */\n      0x00\n        /* \"contracts/CrowdFund.sol\":2356:2378  uint _contributorCount */\n      dup1\n        /* \"contracts/CrowdFund.sol\":2405:2409  goal */\n      sload(0x01)\n        /* \"contracts/CrowdFund.sol\":2411:2419  deadline */\n      sload(0x02)\n        /* \"contracts/CrowdFund.sol\":2421:2433  raisedAmount */\n      sload(0x03)\n        /* \"contracts/CrowdFund.sol\":2435:2451  contributorCount */\n      sload(0x04)\n        /* \"contracts/CrowdFund.sol\":2397:2452  return (goal, deadline, raisedAmount, contributorCount) */\n      swap4\n      pop\n      swap4\n      pop\n      swap4\n      pop\n      swap4\n      pop\n        /* \"contracts/CrowdFund.sol\":2228:2460  function getDetails() public view returns (... */\n      swap1\n      swap2\n      swap3\n      swap4\n      jump\t// out\n        /* \"#utility.yul\":7:84   */\n    tag_103:\n        /* \"#utility.yul\":44:51   */\n      0x00\n        /* \"#utility.yul\":73:78   */\n      dup2\n        /* \"#utility.yul\":62:78   */\n      swap1\n      pop\n        /* \"#utility.yul\":7:84   */\n      swap2\n      swap1\n      pop\n      jump\t// out\n        /* \"#utility.yul\":90:208   */\n    tag_104:\n        /* \"#utility.yul\":177:201   */\n      tag_132\n        /* \"#utility.yul\":195:200   */\n      dup2\n        /* \"#utility.yul\":177:201   */\n      tag_103\n      jump\t// in\n    tag_132:\n        /* \"#utility.yul\":172:175   */\n      dup3\n        /* \"#utility.yul\":165:202   */\n      mstore\n        /* \"#utility.yul\":90:208   */\n      pop\n      pop\n      jump\t// out\n        /* \"#utility.yul\":214:436   */\n    tag_18:\n        /* \"#utility.yul\":307:311   */\n      0x00\n        /* \"#utility.yul\":345:347   */\n      0x20\n        /* \"#utility.yul\":334:343   */\n      dup3\n        /* \"#utility.yul\":330:348   */\n      add\n        /* \"#utility.yul\":322:348   */\n      swap1\n      pop\n        /* \"#utility.yul\":358:429   */\n      tag_134\n        /* \"#utility.yul\":426:427   */\n      0x00\n        /* \"#utility.yul\":415:424   */\n      dup4\n        /* \"#utility.yul\":411:428   */\n      add\n        /* \"#utility.yul\":402:408   */\n      dup5\n        /* \"#utility.yul\":358:429   */\n      tag_104\n      jump\t// in\n    tag_134:\n        /* \"#utility.yul\":214:436   */\n      swap3\n      swap2\n      pop\n      pop\n      jump\t// out\n        /* \"#utility.yul\":523:640   */\n    tag_106:\n        /* \"#utility.yul\":632:633   */\n      0x00\n        /* \"#utility.yul\":629:630   */\n      dup1\n        /* \"#utility.yul\":622:634   */\n      revert\n        /* \"#utility.yul\":769:895   */\n    tag_108:\n        /* \"#utility.yul\":806:813   */\n      0x00\n        /* \"#utility.yul\":846:888   */\n      0xffffffffffffffffffffffffffffffffffffffff\n        /* \"#utility.yul\":839:844   */\n      dup3\n        /* \"#utility.yul\":835:889   */\n      and\n        /* \"#utility.yul\":824:889   */\n      swap1\n      pop\n        /* \"#utility.yul\":769:895   */\n      swap2\n      swap1\n      pop\n      jump\t// out\n        /* \"#utility.yul\":901:997   */\n    tag_109:\n        /* \"#utility.yul\":938:945   */\n      0x00\n        /* \"#utility.yul\":967:991   */\n      tag_140\n        /* \"#utility.yul\":985:990   */\n      dup3\n        /* \"#utility.yul\":967:991   */\n      tag_108\n      jump\t// in\n    tag_140:\n        /* \"#utility.yul\":956:991   */\n      swap1\n      pop\n        /* \"#utility.yul\":901:997   */\n      swap2\n      swap1\n      pop\n      jump\t// out\n        /* \"#utility.yul\":1003:1125   */\n    tag_110:\n        /* \"#utility.yul\":1076:1100   */\n      tag_142\n        /* \"#utility.yul\":1094:1099   */\n      dup2\n        /* \"#utility.yul\":1076:1100   */\n      tag_109\n      jump\t// in\n    tag_142:\n        /* \"#utility.yul\":1069:1074   */\n      dup2\n        /* \"#utility.yul\":1066:1101   */\n      eq\n        /* \"#utility.yul\":1056:1119   */\n      tag_143\n      jumpi\n        /* \"#utility.yul\":1115:1116   */\n      0x00\n        /* \"#utility.yul\":1112:1113   */\n      dup1\n        /* \"#utility.yul\":1105:1117   */\n      revert\n        /* \"#utility.yul\":1056:1119   */\n    tag_143:\n        /* \"#utility.yul\":1003:1125   */\n      pop\n      jump\t// out\n        /* \"#utility.yul\":1131:1270   */\n    tag_111:\n        /* \"#utility.yul\":1177:1182   */\n      0x00\n        /* \"#utility.yul\":1215:1221   */\n      dup2\n        /* \"#utility.yul\":1202:1222   */\n      calldataload\n        /* \"#utility.yul\":1193:1222   */\n      swap1\n      pop\n        /* \"#utility.yul\":1231:1264   */\n      tag_145\n        /* \"#utility.yul\":1258:1263   */\n      dup2\n        /* \"#utility.yul\":1231:1264   */\n      tag_110\n      jump\t// in\n    tag_145:\n        /* \"#utility.yul\":1131:1270   */\n      swap3\n      swap2\n      pop\n      pop\n      jump\t// out\n        /* \"#utility.yul\":1276:1605   */\n    tag_29:\n        /* \"#utility.yul\":1335:1341   */\n      0x00\n        /* \"#utility.yul\":1384:1386   */\n      0x20\n        /* \"#utility.yul\":1372:1381   */\n      dup3\n        /* \"#utility.yul\":1363:1370   */\n      dup5\n        /* \"#utility.yul\":1359:1382   */\n      sub\n        /* \"#utility.yul\":1355:1387   */\n      slt\n        /* \"#utility.yul\":1352:1471   */\n      iszero\n      tag_147\n      jumpi\n        /* \"#utility.yul\":1390:1469   */\n      tag_148\n      tag_106\n      jump\t// in\n    tag_148:\n        /* \"#utility.yul\":1352:1471   */\n    tag_147:\n        /* \"#utility.yul\":1510:1511   */\n      0x00\n        /* \"#utility.yul\":1535:1588   */\n      tag_149\n        /* \"#utility.yul\":1580:1587   */\n      dup5\n        /* \"#utility.yul\":1571:1577   */\n      dup3\n        /* \"#utility.yul\":1560:1569   */\n      dup6\n        /* \"#utility.yul\":1556:1578   */\n      add\n        /* \"#utility.yul\":1535:1588   */\n      tag_111\n      jump\t// in\n    tag_149:\n        /* \"#utility.yul\":1525:1588   */\n      swap2\n      pop\n        /* \"#utility.yul\":1481:1598   */\n      pop\n        /* \"#utility.yul\":1276:1605   */\n      swap3\n      swap2\n      pop\n      pop\n      jump\t// out\n        /* \"#utility.yul\":1611:1729   */\n    tag_112:\n        /* \"#utility.yul\":1698:1722   */\n      tag_151\n        /* \"#utility.yul\":1716:1721   */\n      dup2\n        /* \"#utility.yul\":1698:1722   */\n      tag_109\n      jump\t// in\n    tag_151:\n        /* \"#utility.yul\":1693:1696   */\n      dup3\n        /* \"#utility.yul\":1686:1723   */\n      mstore\n        /* \"#utility.yul\":1611:1729   */\n      pop\n      pop\n      jump\t// out\n        /* \"#utility.yul\":1735:1957   */\n    tag_39:\n        /* \"#utility.yul\":1828:1832   */\n      0x00\n        /* \"#utility.yul\":1866:1868   */\n      0x20\n        /* \"#utility.yul\":1855:1864   */\n      dup3\n        /* \"#utility.yul\":1851:1869   */\n      add\n        /* \"#utility.yul\":1843:1869   */\n      swap1\n      pop\n        /* \"#utility.yul\":1879:1950   */\n      tag_153\n        /* \"#utility.yul\":1947:1948   */\n      0x00\n        /* \"#utility.yul\":1936:1945   */\n      dup4\n        /* \"#utility.yul\":1932:1949   */\n      add\n        /* \"#utility.yul\":1923:1929   */\n      dup5\n        /* \"#utility.yul\":1879:1950   */\n      tag_112\n      jump\t// in\n    tag_153:\n        /* \"#utility.yul\":1735:1957   */\n      swap3\n      swap2\n      pop\n      pop\n      jump\t// out\n        /* \"#utility.yul\":1963:2516   */\n    tag_58:\n        /* \"#utility.yul\":2140:2144   */\n      0x00\n        /* \"#utility.yul\":2178:2181   */\n      0x80\n        /* \"#utility.yul\":2167:2176   */\n      dup3\n        /* \"#utility.yul\":2163:2182   */\n      add\n        /* \"#utility.yul\":2155:2182   */\n      swap1\n      pop\n        /* \"#utility.yul\":2192:2263   */\n      tag_155\n        /* \"#utility.yul\":2260:2261   */\n      0x00\n        /* \"#utility.yul\":2249:2258   */\n      dup4\n        /* \"#utility.yul\":2245:2262   */\n      add\n        /* \"#utility.yul\":2236:2242   */\n      dup8\n        /* \"#utility.yul\":2192:2263   */\n      tag_104\n      jump\t// in\n    tag_155:\n        /* \"#utility.yul\":2273:2345   */\n      tag_156\n        /* \"#utility.yul\":2341:2343   */\n      0x20\n        /* \"#utility.yul\":2330:2339   */\n      dup4\n        /* \"#utility.yul\":2326:2344   */\n      add\n        /* \"#utility.yul\":2317:2323   */\n      dup7\n        /* \"#utility.yul\":2273:2345   */\n      tag_104\n      jump\t// in\n    tag_156:\n        /* \"#utility.yul\":2355:2427   */\n      tag_157\n        /* \"#utility.yul\":2423:2425   */\n      0x40\n        /* \"#utility.yul\":2412:2421   */\n      dup4\n        /* \"#utility.yul\":2408:2426   */\n      add\n        /* \"#utility.yul\":2399:2405   */\n      dup6\n        /* \"#utility.yul\":2355:2427   */\n      tag_104\n      jump\t// in\n    tag_157:\n        /* \"#utility.yul\":2437:2509   */\n      tag_158\n        /* \"#utility.yul\":2505:2507   */\n      0x60\n        /* \"#utility.yul\":2494:2503   */\n      dup4\n        /* \"#utility.yul\":2490:2508   */\n      add\n        /* \"#utility.yul\":2481:2487   */\n      dup5\n        /* \"#utility.yul\":2437:2509   */\n      tag_104\n      jump\t// in\n    tag_158:\n        /* \"#utility.yul\":1963:2516   */\n      swap6\n      swap5\n      pop\n      pop\n      pop\n      pop\n      pop\n      jump\t// out\n        /* \"#utility.yul\":2522:2691   */\n    tag_113:\n        /* \"#utility.yul\":2606:2617   */\n      0x00\n        /* \"#utility.yul\":2640:2646   */\n      dup3\n        /* \"#utility.yul\":2635:2638   */\n      dup3\n        /* \"#utility.yul\":2628:2647   */\n      mstore\n        /* \"#utility.yul\":2680:2684   */\n      0x20\n        /* \"#utility.yul\":2675:2678   */\n      dup3\n        /* \"#utility.yul\":2671:2685   */\n      add\n        /* \"#utility.yul\":2656:2685   */\n      swap1\n      pop\n        /* \"#utility.yul\":2522:2691   */\n      swap3\n      swap2\n      pop\n      pop\n      jump\t// out\n        /* \"#utility.yul\":2697:2861   */\n    tag_114:\n        /* \"#utility.yul\":2837:2853   */\n      0x4e6f7420617574686f72697a6564000000000000000000000000000000000000\n        /* \"#utility.yul\":2833:2834   */\n      0x00\n        /* \"#utility.yul\":2825:2831   */\n      dup3\n        /* \"#utility.yul\":2821:2835   */\n      add\n        /* \"#utility.yul\":2814:2854   */\n      mstore\n        /* \"#utility.yul\":2697:2861   */\n      pop\n      jump\t// out\n        /* \"#utility.yul\":2867:3233   */\n    tag_115:\n        /* \"#utility.yul\":3009:3012   */\n      0x00\n        /* \"#utility.yul\":3030:3097   */\n      tag_162\n        /* \"#utility.yul\":3094:3096   */\n      0x0e\n        /* \"#utility.yul\":3089:3092   */\n      dup4\n        /* \"#utility.yul\":3030:3097   */\n      tag_113\n      jump\t// in\n    tag_162:\n        /* \"#utility.yul\":3023:3097   */\n      swap2\n      pop\n        /* \"#utility.yul\":3106:3199   */\n      tag_163\n        /* \"#utility.yul\":3195:3198   */\n      dup3\n        /* \"#utility.yul\":3106:3199   */\n      tag_114\n      jump\t// in\n    tag_163:\n        /* \"#utility.yul\":3224:3226   */\n      0x20\n        /* \"#utility.yul\":3219:3222   */\n      dup3\n        /* \"#utility.yul\":3215:3227   */\n      add\n        /* \"#utility.yul\":3208:3227   */\n      swap1\n      pop\n        /* \"#utility.yul\":2867:3233   */\n      swap2\n      swap1\n      pop\n      jump\t// out\n        /* \"#utility.yul\":3239:3658   */\n    tag_62:\n        /* \"#utility.yul\":3405:3409   */\n      0x00\n        /* \"#utility.yul\":3443:3445   */\n      0x20\n        /* \"#utility.yul\":3432:3441   */\n      dup3\n        /* \"#utility.yul\":3428:3446   */\n      add\n        /* \"#utility.yul\":3420:3446   */\n      swap1\n      pop\n        /* \"#utility.yul\":3492:3501   */\n      dup2\n        /* \"#utility.yul\":3486:3490   */\n      dup2\n        /* \"#utility.yul\":3482:3502   */\n      sub\n        /* \"#utility.yul\":3478:3479   */\n      0x00\n        /* \"#utility.yul\":3467:3476   */\n      dup4\n        /* \"#utility.yul\":3463:3480   */\n      add\n        /* \"#utility.yul\":3456:3503   */\n      mstore\n        /* \"#utility.yul\":3520:3651   */\n      tag_165\n        /* \"#utility.yul\":3646:3650   */\n      dup2\n        /* \"#utility.yul\":3520:3651   */\n      tag_115\n      jump\t// in\n    tag_165:\n        /* \"#utility.yul\":3512:3651   */\n      swap1\n      pop\n        /* \"#utility.yul\":3239:3658   */\n      swap2\n      swap1\n      pop\n      jump\t// out\n        /* \"#utility.yul\":3664:3830   */\n    tag_116:\n        /* \"#utility.yul\":3804:3822   */\n      0x476f616c206e6f74207265616368656400000000000000000000000000000000\n        /* \"#utility.yul\":3800:3801   */\n      0x00\n        /* \"#utility.yul\":3792:3798   */\n      dup3\n        /* \"#utility.yul\":3788:3802   */\n      add\n        /* \"#utility.yul\":3781:3823   */\n      mstore\n        /* \"#utility.yul\":3664:3830   */\n      pop\n      jump\t// out\n        /* \"#utility.yul\":3836:4202   */\n    tag_117:\n        /* \"#utility.yul\":3978:3981   */\n      0x00\n        /* \"#utility.yul\":3999:4066   */\n      tag_168\n        /* \"#utility.yul\":4063:4065   */\n      0x10\n        /* \"#utility.yul\":4058:4061   */\n      dup4\n        /* \"#utility.yul\":3999:4066   */\n      tag_113\n      jump\t// in\n    tag_168:\n        /* \"#utility.yul\":3992:4066   */\n      swap2\n      pop\n        /* \"#utility.yul\":4075:4168   */\n      tag_169\n        /* \"#utility.yul\":4164:4167   */\n      dup3\n        /* \"#utility.yul\":4075:4168   */\n      tag_116\n      jump\t// in\n    tag_169:\n        /* \"#utility.yul\":4193:4195   */\n      0x20\n        /* \"#utility.yul\":4188:4191   */\n      dup3\n        /* \"#utility.yul\":4184:4196   */\n      add\n        /* \"#utility.yul\":4177:4196   */\n      swap1\n      pop\n        /* \"#utility.yul\":3836:4202   */\n      swap2\n      swap1\n      pop\n      jump\t// out\n        /* \"#utility.yul\":4208:4627   */\n    tag_66:\n        /* \"#utility.yul\":4374:4378   */\n      0x00\n        /* \"#utility.yul\":4412:4414   */\n      0x20\n        /* \"#utility.yul\":4401:4410   */\n      dup3\n        /* \"#utility.yul\":4397:4415   */\n      add\n        /* \"#utility.yul\":4389:4415   */\n      swap1\n      pop\n        /* \"#utility.yul\":4461:4470   */\n      dup2\n        /* \"#utility.yul\":4455:4459   */\n      dup2\n        /* \"#utility.yul\":4451:4471   */\n      sub\n        /* \"#utility.yul\":4447:4448   */\n      0x00\n        /* \"#utility.yul\":4436:4445   */\n      dup4\n        /* \"#utility.yul\":4432:4449   */\n      add\n        /* \"#utility.yul\":4425:4472   */\n      mstore\n        /* \"#utility.yul\":4489:4620   */\n      tag_171\n        /* \"#utility.yul\":4615:4619   */\n      dup2\n        /* \"#utility.yul\":4489:4620   */\n      tag_117\n      jump\t// in\n    tag_171:\n        /* \"#utility.yul\":4481:4620   */\n      swap1\n      pop\n        /* \"#utility.yul\":4208:4627   */\n      swap2\n      swap1\n      pop\n      jump\t// out\n        /* \"#utility.yul\":4633:4807   */\n    tag_118:\n        /* \"#utility.yul\":4773:4799   */\n      0x446561646c696e65206e6f742079657420726561636865640000000000000000\n        /* \"#utility.yul\":4769:4770   */\n      0x00\n        /* \"#utility.yul\":4761:4767   */\n      dup3\n        /* \"#utility.yul\":4757:4771   */\n      add\n        /* \"#utility.yul\":4750:4800   */\n      mstore\n        /* \"#utility.yul\":4633:4807   */\n      pop\n      jump\t// out\n        /* \"#utility.yul\":4813:5179   */\n    tag_119:\n        /* \"#utility.yul\":4955:4958   */\n      0x00\n        /* \"#utility.yul\":4976:5043   */\n      tag_174\n        /* \"#utility.yul\":5040:5042   */\n      0x18\n        /* \"#utility.yul\":5035:5038   */\n      dup4\n        /* \"#utility.yul\":4976:5043   */\n      tag_113\n      jump\t// in\n    tag_174:\n        /* \"#utility.yul\":4969:5043   */\n      swap2\n      pop\n        /* \"#utility.yul\":5052:5145   */\n      tag_175\n        /* \"#utility.yul\":5141:5144   */\n      dup3\n        /* \"#utility.yul\":5052:5145   */\n      tag_118\n      jump\t// in\n    tag_175:\n        /* \"#utility.yul\":5170:5172   */\n      0x20\n        /* \"#utility.yul\":5165:5168   */\n      dup3\n        /* \"#utility.yul\":5161:5173   */\n      add\n        /* \"#utility.yul\":5154:5173   */\n      swap1\n      pop\n        /* \"#utility.yul\":4813:5179   */\n      swap2\n      swap1\n      pop\n      jump\t// out\n        /* \"#utility.yul\":5185:5604   */\n    tag_72:\n        /* \"#utility.yul\":5351:5355   */\n      0x00\n        /* \"#utility.yul\":5389:5391   */\n      0x20\n        /* \"#utility.yul\":5378:5387   */\n      dup3\n        /* \"#utility.yul\":5374:5392   */\n      add\n        /* \"#utility.yul\":5366:5392   */\n      swap1\n      pop\n        /* \"#utility.yul\":5438:5447   */\n      dup2\n        /* \"#utility.yul\":5432:5436   */\n      dup2\n        /* \"#utility.yul\":5428:5448   */\n      sub\n        /* \"#utility.yul\":5424:5425   */\n      0x00\n        /* \"#utility.yul\":5413:5422   */\n      dup4\n        /* \"#utility.yul\":5409:5426   */\n      add\n        /* \"#utility.yul\":5402:5449   */\n      mstore\n        /* \"#utility.yul\":5466:5597   */\n      tag_177\n        /* \"#utility.yul\":5592:5596   */\n      dup2\n        /* \"#utility.yul\":5466:5597   */\n      tag_119\n      jump\t// in\n    tag_177:\n        /* \"#utility.yul\":5458:5597   */\n      swap1\n      pop\n        /* \"#utility.yul\":5185:5604   */\n      swap2\n      swap1\n      pop\n      jump\t// out\n        /* \"#utility.yul\":5610:5772   */\n    tag_120:\n        /* \"#utility.yul\":5750:5764   */\n      0x476f616c20776173206d65740000000000000000000000000000000000000000\n        /* \"#utility.yul\":5746:5747   */\n      0x00\n        /* \"#utility.yul\":5738:5744   */\n      dup3\n        /* \"#utility.yul\":5734:5748   */\n      add\n        /* \"#utility.yul\":5727:5765   */\n      mstore\n        /* \"#utility.yul\":5610:5772   */\n      pop\n      jump\t// out\n        /* \"#utility.yul\":5778:6144   */\n    tag_121:\n        /* \"#utility.yul\":5920:5923   */\n      0x00\n        /* \"#utility.yul\":5941:6008   */\n      tag_180\n        /* \"#utility.yul\":6005:6007   */\n      0x0c\n        /* \"#utility.yul\":6000:6003   */\n      dup4\n        /* \"#utility.yul\":5941:6008   */\n      tag_113\n      jump\t// in\n    tag_180:\n        /* \"#utility.yul\":5934:6008   */\n      swap2\n      pop\n        /* \"#utility.yul\":6017:6110   */\n      tag_181\n        /* \"#utility.yul\":6106:6109   */\n      dup3\n        /* \"#utility.yul\":6017:6110   */\n      tag_120\n      jump\t// in\n    tag_181:\n        /* \"#utility.yul\":6135:6137   */\n      0x20\n        /* \"#utility.yul\":6130:6133   */\n      dup3\n        /* \"#utility.yul\":6126:6138   */\n      add\n        /* \"#utility.yul\":6119:6138   */\n      swap1\n      pop\n        /* \"#utility.yul\":5778:6144   */\n      swap2\n      swap1\n      pop\n      jump\t// out\n        /* \"#utility.yul\":6150:6569   */\n    tag_76:\n        /* \"#utility.yul\":6316:6320   */\n      0x00\n        /* \"#utility.yul\":6354:6356   */\n      0x20\n        /* \"#utility.yul\":6343:6352   */\n      dup3\n        /* \"#utility.yul\":6339:6357   */\n      add\n        /* \"#utility.yul\":6331:6357   */\n      swap1\n      pop\n        /* \"#utility.yul\":6403:6412   */\n      dup2\n        /* \"#utility.yul\":6397:6401   */\n      dup2\n        /* \"#utility.yul\":6393:6413   */\n      sub\n        /* \"#utility.yul\":6389:6390   */\n      0x00\n        /* \"#utility.yul\":6378:6387   */\n      dup4\n        /* \"#utility.yul\":6374:6391   */\n      add\n        /* \"#utility.yul\":6367:6414   */\n      mstore\n        /* \"#utility.yul\":6431:6562   */\n      tag_183\n        /* \"#utility.yul\":6557:6561   */\n      dup2\n        /* \"#utility.yul\":6431:6562   */\n      tag_121\n      jump\t// in\n    tag_183:\n        /* \"#utility.yul\":6423:6562   */\n      swap1\n      pop\n        /* \"#utility.yul\":6150:6569   */\n      swap2\n      swap1\n      pop\n      jump\t// out\n        /* \"#utility.yul\":6575:6747   */\n    tag_122:\n        /* \"#utility.yul\":6715:6739   */\n      0x4e6f20636f6e747269627574696f6e7320666f756e6400000000000000000000\n        /* \"#utility.yul\":6711:6712   */\n      0x00\n        /* \"#utility.yul\":6703:6709   */\n      dup3\n        /* \"#utility.yul\":6699:6713   */\n      add\n        /* \"#utility.yul\":6692:6740   */\n      mstore\n        /* \"#utility.yul\":6575:6747   */\n      pop\n      jump\t// out\n        /* \"#utility.yul\":6753:7119   */\n    tag_123:\n        /* \"#utility.yul\":6895:6898   */\n      0x00\n        /* \"#utility.yul\":6916:6983   */\n      tag_186\n        /* \"#utility.yul\":6980:6982   */\n      0x16\n        /* \"#utility.yul\":6975:6978   */\n      dup4\n        /* \"#utility.yul\":6916:6983   */\n      tag_113\n      jump\t// in\n    tag_186:\n        /* \"#utility.yul\":6909:6983   */\n      swap2\n      pop\n        /* \"#utility.yul\":6992:7085   */\n      tag_187\n        /* \"#utility.yul\":7081:7084   */\n      dup3\n        /* \"#utility.yul\":6992:7085   */\n      tag_122\n      jump\t// in\n    tag_187:\n        /* \"#utility.yul\":7110:7112   */\n      0x20\n        /* \"#utility.yul\":7105:7108   */\n      dup3\n        /* \"#utility.yul\":7101:7113   */\n      add\n        /* \"#utility.yul\":7094:7113   */\n      swap1\n      pop\n        /* \"#utility.yul\":6753:7119   */\n      swap2\n      swap1\n      pop\n      jump\t// out\n        /* \"#utility.yul\":7125:7544   */\n    tag_79:\n        /* \"#utility.yul\":7291:7295   */\n      0x00\n        /* \"#utility.yul\":7329:7331   */\n      0x20\n        /* \"#utility.yul\":7318:7327   */\n      dup3\n        /* \"#utility.yul\":7314:7332   */\n      add\n        /* \"#utility.yul\":7306:7332   */\n      swap1\n      pop\n        /* \"#utility.yul\":7378:7387   */\n      dup2\n        /* \"#utility.yul\":7372:7376   */\n      dup2\n        /* \"#utility.yul\":7368:7388   */\n      sub\n        /* \"#utility.yul\":7364:7365   */\n      0x00\n        /* \"#utility.yul\":7353:7362   */\n      dup4\n        /* \"#utility.yul\":7349:7366   */\n      add\n        /* \"#utility.yul\":7342:7389   */\n      mstore\n        /* \"#utility.yul\":7406:7537   */\n      tag_189\n        /* \"#utility.yul\":7532:7536   */\n      dup2\n        /* \"#utility.yul\":7406:7537   */\n      tag_123\n      jump\t// in\n    tag_189:\n        /* \"#utility.yul\":7398:7537   */\n      swap1\n      pop\n        /* \"#utility.yul\":7125:7544   */\n      swap2\n      swap1\n      pop\n      jump\t// out\n        /* \"#utility.yul\":7550:7882   */\n    tag_83:\n        /* \"#utility.yul\":7671:7675   */\n      0x00\n        /* \"#utility.yul\":7709:7711   */\n      0x40\n        /* \"#utility.yul\":7698:7707   */\n      dup3\n        /* \"#utility.yul\":7694:7712   */\n      add\n        /* \"#utility.yul\":7686:7712   */\n      swap1\n      pop\n        /* \"#utility.yul\":7722:7793   */\n      tag_191\n        /* \"#utility.yul\":7790:7791   */\n      0x00\n        /* \"#utility.yul\":7779:7788   */\n      dup4\n        /* \"#utility.yul\":7775:7792   */\n      add\n        /* \"#utility.yul\":7766:7772   */\n      dup6\n        /* \"#utility.yul\":7722:7793   */\n      tag_112\n      jump\t// in\n    tag_191:\n        /* \"#utility.yul\":7803:7875   */\n      tag_192\n        /* \"#utility.yul\":7871:7873   */\n      0x20\n        /* \"#utility.yul\":7860:7869   */\n      dup4\n        /* \"#utility.yul\":7856:7874   */\n      add\n        /* \"#utility.yul\":7847:7853   */\n      dup5\n        /* \"#utility.yul\":7803:7875   */\n      tag_104\n      jump\t// in\n    tag_192:\n        /* \"#utility.yul\":7550:7882   */\n      swap4\n      swap3\n      pop\n      pop\n      pop\n      jump\t// out\n        /* \"#utility.yul\":7888:8053   */\n    tag_124:\n        /* \"#utility.yul\":8028:8045   */\n      0x446561646c696e65207061737365640000000000000000000000000000000000\n        /* \"#utility.yul\":8024:8025   */\n      0x00\n        /* \"#utility.yul\":8016:8022   */\n      dup3\n        /* \"#utility.yul\":8012:8026   */\n      add\n        /* \"#utility.yul\":8005:8046   */\n      mstore\n        /* \"#utility.yul\":7888:8053   */\n      pop\n      jump\t// out\n        /* \"#utility.yul\":8059:8425   */\n    tag_125:\n        /* \"#utility.yul\":8201:8204   */\n      0x00\n        /* \"#utility.yul\":8222:8289   */\n      tag_195\n        /* \"#utility.yul\":8286:8288   */\n      0x0f\n        /* \"#utility.yul\":8281:8284   */\n      dup4\n        /* \"#utility.yul\":8222:8289   */\n      tag_113\n      jump\t// in\n    tag_195:\n        /* \"#utility.yul\":8215:8289   */\n      swap2\n      pop\n        /* \"#utility.yul\":8298:8391   */\n      tag_196\n        /* \"#utility.yul\":8387:8390   */\n      dup3\n        /* \"#utility.yul\":8298:8391   */\n      tag_124\n      jump\t// in\n    tag_196:\n        /* \"#utility.yul\":8416:8418   */\n      0x20\n        /* \"#utility.yul\":8411:8414   */\n      dup3\n        /* \"#utility.yul\":8407:8419   */\n      add\n        /* \"#utility.yul\":8400:8419   */\n      swap1\n      pop\n        /* \"#utility.yul\":8059:8425   */\n      swap2\n      swap1\n      pop\n      jump\t// out\n        /* \"#utility.yul\":8431:8850   */\n    tag_88:\n        /* \"#utility.yul\":8597:8601   */\n      0x00\n        /* \"#utility.yul\":8635:8637   */\n      0x20\n        /* \"#utility.yul\":8624:8633   */\n      dup3\n        /* \"#utility.yul\":8620:8638   */\n      add\n        /* \"#utility.yul\":8612:8638   */\n      swap1\n      pop\n        /* \"#utility.yul\":8684:8693   */\n      dup2\n        /* \"#utility.yul\":8678:8682   */\n      dup2\n        /* \"#utility.yul\":8674:8694   */\n      sub\n        /* \"#utility.yul\":8670:8671   */\n      0x00\n        /* \"#utility.yul\":8659:8668   */\n      dup4\n        /* \"#utility.yul\":8655:8672   */\n      add\n        /* \"#utility.yul\":8648:8695   */\n      mstore\n        /* \"#utility.yul\":8712:8843   */\n      tag_198\n        /* \"#utility.yul\":8838:8842   */\n      dup2\n        /* \"#utility.yul\":8712:8843   */\n      tag_125\n      jump\t// in\n    tag_198:\n        /* \"#utility.yul\":8704:8843   */\n      swap1\n      pop\n        /* \"#utility.yul\":8431:8850   */\n      swap2\n      swap1\n      pop\n      jump\t// out\n        /* \"#utility.yul\":8856:9038   */\n    tag_126:\n        /* \"#utility.yul\":8996:9030   */\n      0x4d696e696d756d20636f6e747269627574696f6e20697320302e303120455448\n        /* \"#utility.yul\":8992:8993   */\n      0x00\n        /* \"#utility.yul\":8984:8990   */\n      dup3\n        /* \"#utility.yul\":8980:8994   */\n      add\n        /* \"#utility.yul\":8973:9031   */\n      mstore\n        /* \"#utility.yul\":8856:9038   */\n      pop\n      jump\t// out\n        /* \"#utility.yul\":9044:9410   */\n    tag_127:\n        /* \"#utility.yul\":9186:9189   */\n      0x00\n        /* \"#utility.yul\":9207:9274   */\n      tag_201\n        /* \"#utility.yul\":9271:9273   */\n      0x20\n        /* \"#utility.yul\":9266:9269   */\n      dup4\n        /* \"#utility.yul\":9207:9274   */\n      tag_113\n      jump\t// in\n    tag_201:\n        /* \"#utility.yul\":9200:9274   */\n      swap2\n      pop\n        /* \"#utility.yul\":9283:9376   */\n      tag_202\n        /* \"#utility.yul\":9372:9375   */\n      dup3\n        /* \"#utility.yul\":9283:9376   */\n      tag_126\n      jump\t// in\n    tag_202:\n        /* \"#utility.yul\":9401:9403   */\n      0x20\n        /* \"#utility.yul\":9396:9399   */\n      dup3\n        /* \"#utility.yul\":9392:9404   */\n      add\n        /* \"#utility.yul\":9385:9404   */\n      swap1\n      pop\n        /* \"#utility.yul\":9044:9410   */\n      swap2\n      swap1\n      pop\n      jump\t// out\n        /* \"#utility.yul\":9416:9835   */\n    tag_92:\n        /* \"#utility.yul\":9582:9586   */\n      0x00\n        /* \"#utility.yul\":9620:9622   */\n      0x20\n        /* \"#utility.yul\":9609:9618   */\n      dup3\n        /* \"#utility.yul\":9605:9623   */\n      add\n        /* \"#utility.yul\":9597:9623   */\n      swap1\n      pop\n        /* \"#utility.yul\":9669:9678   */\n      dup2\n        /* \"#utility.yul\":9663:9667   */\n      dup2\n        /* \"#utility.yul\":9659:9679   */\n      sub\n        /* \"#utility.yul\":9655:9656   */\n      0x00\n        /* \"#utility.yul\":9644:9653   */\n      dup4\n        /* \"#utility.yul\":9640:9657   */\n      add\n        /* \"#utility.yul\":9633:9680   */\n      mstore\n        /* \"#utility.yul\":9697:9828   */\n      tag_204\n        /* \"#utility.yul\":9823:9827   */\n      dup2\n        /* \"#utility.yul\":9697:9828   */\n      tag_127\n      jump\t// in\n    tag_204:\n        /* \"#utility.yul\":9689:9828   */\n      swap1\n      pop\n        /* \"#utility.yul\":9416:9835   */\n      swap2\n      swap1\n      pop\n      jump\t// out\n        /* \"#utility.yul\":9841:10021   */\n    tag_128:\n        /* \"#utility.yul\":9889:9966   */\n      0x4e487b7100000000000000000000000000000000000000000000000000000000\n        /* \"#utility.yul\":9886:9887   */\n      0x00\n        /* \"#utility.yul\":9879:9967   */\n      mstore\n        /* \"#utility.yul\":9986:9990   */\n      0x11\n        /* \"#utility.yul\":9983:9984   */\n      0x04\n        /* \"#utility.yul\":9976:9991   */\n      mstore\n        /* \"#utility.yul\":10010:10014   */\n      0x24\n        /* \"#utility.yul\":10007:10008   */\n      0x00\n        /* \"#utility.yul\":10000:10015   */\n      revert\n        /* \"#utility.yul\":10027:10260   */\n    tag_95:\n        /* \"#utility.yul\":10066:10069   */\n      0x00\n        /* \"#utility.yul\":10089:10113   */\n      tag_207\n        /* \"#utility.yul\":10107:10112   */\n      dup3\n        /* \"#utility.yul\":10089:10113   */\n      tag_103\n      jump\t// in\n    tag_207:\n        /* \"#utility.yul\":10080:10113   */\n      swap2\n      pop\n        /* \"#utility.yul\":10135:10201   */\n      0xffffffffffffffffffffffffffffffffffffffffffffffffffffffffffffffff\n        /* \"#utility.yul\":10128:10133   */\n      dup3\n        /* \"#utility.yul\":10125:10202   */\n      sub\n        /* \"#utility.yul\":10122:10225   */\n      tag_208\n      jumpi\n        /* \"#utility.yul\":10205:10223   */\n      tag_209\n      tag_128\n      jump\t// in\n    tag_209:\n        /* \"#utility.yul\":10122:10225   */\n    tag_208:\n        /* \"#utility.yul\":10252:10253   */\n      0x01\n        /* \"#utility.yul\":10245:10250   */\n      dup3\n        /* \"#utility.yul\":10241:10254   */\n      add\n        /* \"#utility.yul\":10234:10254   */\n      swap1\n      pop\n        /* \"#utility.yul\":10027:10260   */\n      swap2\n      swap1\n      pop\n      jump\t// out\n        /* \"#utility.yul\":10266:10457   */\n    tag_97:\n        /* \"#utility.yul\":10306:10309   */\n      0x00\n        /* \"#utility.yul\":10325:10345   */\n      tag_211\n        /* \"#utility.yul\":10343:10344   */\n      dup3\n        /* \"#utility.yul\":10325:10345   */\n      tag_103\n      jump\t// in\n    tag_211:\n        /* \"#utility.yul\":10320:10345   */\n      swap2\n      pop\n        /* \"#utility.yul\":10359:10379   */\n      tag_212\n        /* \"#utility.yul\":10377:10378   */\n      dup4\n        /* \"#utility.yul\":10359:10379   */\n      tag_103\n      jump\t// in\n    tag_212:\n        /* \"#utility.yul\":10354:10379   */\n      swap3\n      pop\n        /* \"#utility.yul\":10402:10403   */\n      dup3\n        /* \"#utility.yul\":10399:10400   */\n      dup3\n        /* \"#utility.yul\":10395:10404   */\n      add\n        /* \"#utility.yul\":10388:10404   */\n      swap1\n      pop\n        /* \"#utility.yul\":10423:10426   */\n      dup1\n        /* \"#utility.yul\":10420:10421   */\n      dup3\n        /* \"#utility.yul\":10417:10427   */\n      gt\n        /* \"#utility.yul\":10414:10450   */\n      iszero\n      tag_213\n      jumpi\n        /* \"#utility.yul\":10430:10448   */\n      tag_214\n      tag_128\n      jump\t// in\n    tag_214:\n        /* \"#utility.yul\":10414:10450   */\n    tag_213:\n        /* \"#utility.yul\":10266:10457   */\n      swap3\n      swap2\n      pop\n      pop\n      jump\t// out\n\n    auxdata: 0xa2646970667358221220d65cc88e4f1d9cbaf95815aa52eae8d15a39bbc42b18a4887d73584c04a9e17064736f6c634300081a0033\n}\n",
				"bytecode": {
					"linkReferences": {},
					"object": "608060405234801561001057600080fd5b50604051610ed8380380610ed8833981810160405281019061003291906100ec565b336000806101000a81548173ffffffffffffffffffffffffffffffffffffffff021916908373ffffffffffffffffffffffffffffffffffffffff160217905550670de0b6b3a764000082610086919061015b565b600181905550603c81610099919061015b565b426100a4919061019d565b60028190555050506101d1565b600080fd5b6000819050919050565b6100c9816100b6565b81146100d457600080fd5b50565b6000815190506100e6816100c0565b92915050565b60008060408385031215610103576101026100b1565b5b6000610111858286016100d7565b9250506020610122858286016100d7565b9150509250929050565b7f4e487b7100000000000000000000000000000000000000000000000000000000600052601160045260246000fd5b6000610166826100b6565b9150610171836100b6565b925082820261017f816100b6565b915082820484148315176101965761019561012c565b5b5092915050565b60006101a8826100b6565b91506101b3836100b6565b92508282019050808211156101cb576101ca61012c565b5b92915050565b610cf8806101e06000396000f3fe60806040526004361061009c5760003560e01c80638da5cb5b116100645780638da5cb5b14610162578063c59ee1dc1461018d578063c71daccb146101b8578063d7bb99ba146101e3578063ecfd8928146101ed578063fbbf93a0146102185761009c565b806329dcb0cf146100a15780633ccfd60b146100cc57806340193883146100e357806342e94c901461010e578063590e1ae31461014b575b600080fd5b3480156100ad57600080fd5b506100b6610246565b6040516100c391906107cf565b60405180910390f35b3480156100d857600080fd5b506100e161024c565b005b3480156100ef57600080fd5b506100f861038a565b60405161010591906107cf565b60405180910390f35b34801561011a57600080fd5b506101356004803603810190610130919061084d565b610390565b60405161014291906107cf565b60405180910390f35b34801561015757600080fd5b506101606103a8565b005b34801561016e57600080fd5b50610177610582565b6040516101849190610889565b60405180910390f35b34801561019957600080fd5b506101a26105a6565b6040516101af91906107cf565b60405180910390f35b3480156101c457600080fd5b506101cd6105ac565b6040516101da91906107cf565b60405180910390f35b6101eb6105b4565b005b3480156101f957600080fd5b50610202610790565b60405161020f91906107cf565b60405180910390f35b34801561022457600080fd5b5061022d610796565b60405161023d94939291906108a4565b60405180910390f35b60025481565b60008054906101000a900473ffffffffffffffffffffffffffffffffffffffff1673ffffffffffffffffffffffffffffffffffffffff163373ffffffffffffffffffffffffffffffffffffffff16146102da576040517f08c379a00000000000000000000000000000000000000000000000000000000081526004016102d190610946565b60405180910390fd5b6001546003541015610321576040517f08c379a0000000000000000000000000000000000000000000000000000000008152600401610318906109b2565b60405180910390fd5b60008054906101000a900473ffffffffffffffffffffffffffffffffffffffff1673ffffffffffffffffffffffffffffffffffffffff166108fc479081150290604051600060405180830381858888f19350505050158015610387573d6000803e3d6000fd5b50565b60015481565b60056020528060005260406000206000915090505481565b6002544210156103ed576040517f08c379a00000000000000000000000000000000000000000000000000000000081526004016103e490610a1e565b60405180910390fd5b60015460035410610433576040517f08c379a000000000000000000000000000000000000000000000000000000000815260040161042a90610a8a565b60405180910390fd5b6000600560003373ffffffffffffffffffffffffffffffffffffffff1673ffffffffffffffffffffffffffffffffffffffff168152602001908152602001600020549050600081116104ba576040517f08c379a00000000000000000000000000000000000000000000000000000000081526004016104b190610af6565b60405180910390fd5b6000600560003373ffffffffffffffffffffffffffffffffffffffff1673ffffffffffffffffffffffffffffffffffffffff168152602001908152602001600020819055503373ffffffffffffffffffffffffffffffffffffffff166108fc829081150290604051600060405180830381858888f19350505050158015610545573d6000803e3d6000fd5b507fd7dee2702d63ad89917b6a4da9981c90c4d24f8c2bdfd64c604ecae57d8d06513382604051610577929190610b16565b60405180910390a150565b60008054906101000a900473ffffffffffffffffffffffffffffffffffffffff1681565b60035481565b600047905090565b60025442106105f8576040517f08c379a00000000000000000000000000000000000000000000000000000000081526004016105ef90610b8b565b60405180910390fd5b662386f26fc100003411610641576040517f08c379a000000000000000000000000000000000000000000000000000000000815260040161063890610bf7565b60405180910390fd5b6000600560003373ffffffffffffffffffffffffffffffffffffffff1673ffffffffffffffffffffffffffffffffffffffff16815260200190815260200160002054036106a1576004600081548092919061069b90610c46565b91905055505b34600560003373ffffffffffffffffffffffffffffffffffffffff1673ffffffffffffffffffffffffffffffffffffffff16815260200190815260200160002060008282546106f09190610c8e565b9250508190555034600360008282546107099190610c8e565b925050819055507f54a5b8782470a0d2c022b3b9e5e729503ac5dbdfe053afeb4559f9297f7565a63334604051610741929190610b16565b60405180910390a16001546003541061078e577ffbfd8ab7c24300fa9888cd721c8565a7da56759384781283684dcf7c7c4a846b60035460405161078591906107cf565b60405180910390a15b565b60045481565b600080600080600154600254600354600454935093509350935090919293565b6000819050919050565b6107c9816107b6565b82525050565b60006020820190506107e460008301846107c0565b92915050565b600080fd5b600073ffffffffffffffffffffffffffffffffffffffff82169050919050565b600061081a826107ef565b9050919050565b61082a8161080f565b811461083557600080fd5b50565b60008135905061084781610821565b92915050565b600060208284031215610863576108626107ea565b5b600061087184828501610838565b91505092915050565b6108838161080f565b82525050565b600060208201905061089e600083018461087a565b92915050565b60006080820190506108b960008301876107c0565b6108c660208301866107c0565b6108d360408301856107c0565b6108e060608301846107c0565b95945050505050565b600082825260208201905092915050565b7f4e6f7420617574686f72697a6564000000000000000000000000000000000000600082015250565b6000610930600e836108e9565b915061093b826108fa565b602082019050919050565b6000602082019050818103600083015261095f81610923565b9050919050565b7f476f616c206e6f74207265616368656400000000000000000000000000000000600082015250565b600061099c6010836108e9565b91506109a782610966565b602082019050919050565b600060208201905081810360008301526109cb8161098f565b9050919050565b7f446561646c696e65206e6f742079657420726561636865640000000000000000600082015250565b6000610a086018836108e9565b9150610a13826109d2565b602082019050919050565b60006020820190508181036000830152610a37816109fb565b9050919050565b7f476f616c20776173206d65740000000000000000000000000000000000000000600082015250565b6000610a74600c836108e9565b9150610a7f82610a3e565b602082019050919050565b60006020820190508181036000830152610aa381610a67565b9050919050565b7f4e6f20636f6e747269627574696f6e7320666f756e6400000000000000000000600082015250565b6000610ae06016836108e9565b9150610aeb82610aaa565b602082019050919050565b60006020820190508181036000830152610b0f81610ad3565b9050919050565b6000604082019050610b2b600083018561087a565b610b3860208301846107c0565b9392505050565b7f446561646c696e65207061737365640000000000000000000000000000000000600082015250565b6000610b75600f836108e9565b9150610b8082610b3f565b602082019050919050565b60006020820190508181036000830152610ba481610b68565b9050919050565b7f4d696e696d756d20636f6e747269627574696f6e20697320302e303120455448600082015250565b6000610be16020836108e9565b9150610bec82610bab565b602082019050919050565b60006020820190508181036000830152610c1081610bd4565b9050919050565b7f4e487b7100000000000000000000000000000000000000000000000000000000600052601160045260246000fd5b6000610c51826107b6565b91507fffffffffffffffffffffffffffffffffffffffffffffffffffffffffffffffff8203610c8357610c82610c17565b5b600182019050919050565b6000610c99826107b6565b9150610ca4836107b6565b9250828201905080821115610cbc57610cbb610c17565b5b9291505056fea2646970667358221220d65cc88e4f1d9cbaf95815aa52eae8d15a39bbc42b18a4887d73584c04a9e17064736f6c634300081a0033",
					"opcodes": "PUSH1 0x80 PUSH1 0x40 MSTORE CALLVALUE DUP1 ISZERO PUSH2 0x10 JUMPI PUSH1 0x0 DUP1 REVERT JUMPDEST POP PUSH1 0x40 MLOAD PUSH2 0xED8 CODESIZE SUB DUP1 PUSH2 0xED8 DUP4 CODECOPY DUP2 DUP2 ADD PUSH1 0x40 MSTORE DUP2 ADD SWAP1 PUSH2 0x32 SWAP2 SWAP1 PUSH2 0xEC JUMP JUMPDEST CALLER PUSH1 0x0 DUP1 PUSH2 0x100 EXP DUP2 SLOAD DUP2 PUSH20 0xFFFFFFFFFFFFFFFFFFFFFFFFFFFFFFFFFFFFFFFF MUL NOT AND SWAP1 DUP4 PUSH20 0xFFFFFFFFFFFFFFFFFFFFFFFFFFFFFFFFFFFFFFFF AND MUL OR SWAP1 SSTORE POP PUSH8 0xDE0B6B3A7640000 DUP3 PUSH2 0x86 SWAP2 SWAP1 PUSH2 0x15B JUMP JUMPDEST PUSH1 0x1 DUP2 SWAP1 SSTORE POP PUSH1 0x3C DUP2 PUSH2 0x99 SWAP2 SWAP1 PUSH2 0x15B JUMP JUMPDEST TIMESTAMP PUSH2 0xA4 SWAP2 SWAP1 PUSH2 0x19D JUMP JUMPDEST PUSH1 0x2 DUP2 SWAP1 SSTORE POP POP POP PUSH2 0x1D1 JUMP JUMPDEST PUSH1 0x0 DUP1 REVERT JUMPDEST PUSH1 0x0 DUP2 SWAP1 POP SWAP2 SWAP1 POP JUMP JUMPDEST PUSH2 0xC9 DUP2 PUSH2 0xB6 JUMP JUMPDEST DUP2 EQ PUSH2 0xD4 JUMPI PUSH1 0x0 DUP1 REVERT JUMPDEST POP JUMP JUMPDEST PUSH1 0x0 DUP2 MLOAD SWAP1 POP PUSH2 0xE6 DUP2 PUSH2 0xC0 JUMP JUMPDEST SWAP3 SWAP2 POP POP JUMP JUMPDEST PUSH1 0x0 DUP1 PUSH1 0x40 DUP4 DUP6 SUB SLT ISZERO PUSH2 0x103 JUMPI PUSH2 0x102 PUSH2 0xB1 JUMP JUMPDEST JUMPDEST PUSH1 0x0 PUSH2 0x111 DUP6 DUP3 DUP7 ADD PUSH2 0xD7 JUMP JUMPDEST SWAP3 POP POP PUSH1 0x20 PUSH2 0x122 DUP6 DUP3 DUP7 ADD PUSH2 0xD7 JUMP JUMPDEST SWAP2 POP POP SWAP3 POP SWAP3 SWAP1 POP JUMP JUMPDEST PUSH32 0x4E487B7100000000000000000000000000000000000000000000000000000000 PUSH1 0x0 MSTORE PUSH1 0x11 PUSH1 0x4 MSTORE PUSH1 0x24 PUSH1 0x0 REVERT JUMPDEST PUSH1 0x0 PUSH2 0x166 DUP3 PUSH2 0xB6 JUMP JUMPDEST SWAP2 POP PUSH2 0x171 DUP4 PUSH2 0xB6 JUMP JUMPDEST SWAP3 POP DUP3 DUP3 MUL PUSH2 0x17F DUP2 PUSH2 0xB6 JUMP JUMPDEST SWAP2 POP DUP3 DUP3 DIV DUP5 EQ DUP4 ISZERO OR PUSH2 0x196 JUMPI PUSH2 0x195 PUSH2 0x12C JUMP JUMPDEST JUMPDEST POP SWAP3 SWAP2 POP POP JUMP JUMPDEST PUSH1 0x0 PUSH2 0x1A8 DUP3 PUSH2 0xB6 JUMP JUMPDEST SWAP2 POP PUSH2 0x1B3 DUP4 PUSH2 0xB6 JUMP JUMPDEST SWAP3 POP DUP3 DUP3 ADD SWAP1 POP DUP1 DUP3 GT ISZERO PUSH2 0x1CB JUMPI PUSH2 0x1CA PUSH2 0x12C JUMP JUMPDEST JUMPDEST SWAP3 SWAP2 POP POP JUMP JUMPDEST PUSH2 0xCF8 DUP1 PUSH2 0x1E0 PUSH1 0x0 CODECOPY PUSH1 0x0 RETURN INVALID PUSH1 0x80 PUSH1 0x40 MSTORE PUSH1 0x4 CALLDATASIZE LT PUSH2 0x9C JUMPI PUSH1 0x0 CALLDATALOAD PUSH1 0xE0 SHR DUP1 PUSH4 0x8DA5CB5B GT PUSH2 0x64 JUMPI DUP1 PUSH4 0x8DA5CB5B EQ PUSH2 0x162 JUMPI DUP1 PUSH4 0xC59EE1DC EQ PUSH2 0x18D JUMPI DUP1 PUSH4 0xC71DACCB EQ PUSH2 0x1B8 JUMPI DUP1 PUSH4 0xD7BB99BA EQ PUSH2 0x1E3 JUMPI DUP1 PUSH4 0xECFD8928 EQ PUSH2 0x1ED JUMPI DUP1 PUSH4 0xFBBF93A0 EQ PUSH2 0x218 JUMPI PUSH2 0x9C JUMP JUMPDEST DUP1 PUSH4 0x29DCB0CF EQ PUSH2 0xA1 JUMPI DUP1 PUSH4 0x3CCFD60B EQ PUSH2 0xCC JUMPI DUP1 PUSH4 0x40193883 EQ PUSH2 0xE3 JUMPI DUP1 PUSH4 0x42E94C90 EQ PUSH2 0x10E JUMPI DUP1 PUSH4 0x590E1AE3 EQ PUSH2 0x14B JUMPI JUMPDEST PUSH1 0x0 DUP1 REVERT JUMPDEST CALLVALUE DUP1 ISZERO PUSH2 0xAD JUMPI PUSH1 0x0 DUP1 REVERT JUMPDEST POP PUSH2 0xB6 PUSH2 0x246 JUMP JUMPDEST PUSH1 0x40 MLOAD PUSH2 0xC3 SWAP2 SWAP1 PUSH2 0x7CF JUMP JUMPDEST PUSH1 0x40 MLOAD DUP1 SWAP2 SUB SWAP1 RETURN JUMPDEST CALLVALUE DUP1 ISZERO PUSH2 0xD8 JUMPI PUSH1 0x0 DUP1 REVERT JUMPDEST POP PUSH2 0xE1 PUSH2 0x24C JUMP JUMPDEST STOP JUMPDEST CALLVALUE DUP1 ISZERO PUSH2 0xEF JUMPI PUSH1 0x0 DUP1 REVERT JUMPDEST POP PUSH2 0xF8 PUSH2 0x38A JUMP JUMPDEST PUSH1 0x40 MLOAD PUSH2 0x105 SWAP2 SWAP1 PUSH2 0x7CF JUMP JUMPDEST PUSH1 0x40 MLOAD DUP1 SWAP2 SUB SWAP1 RETURN JUMPDEST CALLVALUE DUP1 ISZERO PUSH2 0x11A JUMPI PUSH1 0x0 DUP1 REVERT JUMPDEST POP PUSH2 0x135 PUSH1 0x4 DUP1 CALLDATASIZE SUB DUP2 ADD SWAP1 PUSH2 0x130 SWAP2 SWAP1 PUSH2 0x84D JUMP JUMPDEST PUSH2 0x390 JUMP JUMPDEST PUSH1 0x40 MLOAD PUSH2 0x142 SWAP2 SWAP1 PUSH2 0x7CF JUMP JUMPDEST PUSH1 0x40 MLOAD DUP1 SWAP2 SUB SWAP1 RETURN JUMPDEST CALLVALUE DUP1 ISZERO PUSH2 0x157 JUMPI PUSH1 0x0 DUP1 REVERT JUMPDEST POP PUSH2 0x160 PUSH2 0x3A8 JUMP JUMPDEST STOP JUMPDEST CALLVALUE DUP1 ISZERO PUSH2 0x16E JUMPI PUSH1 0x0 DUP1 REVERT JUMPDEST POP PUSH2 0x177 PUSH2 0x582 JUMP JUMPDEST PUSH1 0x40 MLOAD PUSH2 0x184 SWAP2 SWAP1 PUSH2 0x889 JUMP JUMPDEST PUSH1 0x40 MLOAD DUP1 SWAP2 SUB SWAP1 RETURN JUMPDEST CALLVALUE DUP1 ISZERO PUSH2 0x199 JUMPI PUSH1 0x0 DUP1 REVERT JUMPDEST POP PUSH2 0x1A2 PUSH2 0x5A6 JUMP JUMPDEST PUSH1 0x40 MLOAD PUSH2 0x1AF SWAP2 SWAP1 PUSH2 0x7CF JUMP JUMPDEST PUSH1 0x40 MLOAD DUP1 SWAP2 SUB SWAP1 RETURN JUMPDEST CALLVALUE DUP1 ISZERO PUSH2 0x1C4 JUMPI PUSH1 0x0 DUP1 REVERT JUMPDEST POP PUSH2 0x1CD PUSH2 0x5AC JUMP JUMPDEST PUSH1 0x40 MLOAD PUSH2 0x1DA SWAP2 SWAP1 PUSH2 0x7CF JUMP JUMPDEST PUSH1 0x40 MLOAD DUP1 SWAP2 SUB SWAP1 RETURN JUMPDEST PUSH2 0x1EB PUSH2 0x5B4 JUMP JUMPDEST STOP JUMPDEST CALLVALUE DUP1 ISZERO PUSH2 0x1F9 JUMPI PUSH1 0x0 DUP1 REVERT JUMPDEST POP PUSH2 0x202 PUSH2 0x790 JUMP JUMPDEST PUSH1 0x40 MLOAD PUSH2 0x20F SWAP2 SWAP1 PUSH2 0x7CF JUMP JUMPDEST PUSH1 0x40 MLOAD DUP1 SWAP2 SUB SWAP1 RETURN JUMPDEST CALLVALUE DUP1 ISZERO PUSH2 0x224 JUMPI PUSH1 0x0 DUP1 REVERT JUMPDEST POP PUSH2 0x22D PUSH2 0x796 JUMP JUMPDEST PUSH1 0x40 MLOAD PUSH2 0x23D SWAP5 SWAP4 SWAP3 SWAP2 SWAP1 PUSH2 0x8A4 JUMP JUMPDEST PUSH1 0x40 MLOAD DUP1 SWAP2 SUB SWAP1 RETURN JUMPDEST PUSH1 0x2 SLOAD DUP2 JUMP JUMPDEST PUSH1 0x0 DUP1 SLOAD SWAP1 PUSH2 0x100 EXP SWAP1 DIV PUSH20 0xFFFFFFFFFFFFFFFFFFFFFFFFFFFFFFFFFFFFFFFF AND PUSH20 0xFFFFFFFFFFFFFFFFFFFFFFFFFFFFFFFFFFFFFFFF AND CALLER PUSH20 0xFFFFFFFFFFFFFFFFFFFFFFFFFFFFFFFFFFFFFFFF AND EQ PUSH2 0x2DA JUMPI PUSH1 0x40 MLOAD PUSH32 0x8C379A000000000000000000000000000000000000000000000000000000000 DUP2 MSTORE PUSH1 0x4 ADD PUSH2 0x2D1 SWAP1 PUSH2 0x946 JUMP JUMPDEST PUSH1 0x40 MLOAD DUP1 SWAP2 SUB SWAP1 REVERT JUMPDEST PUSH1 0x1 SLOAD PUSH1 0x3 SLOAD LT ISZERO PUSH2 0x321 JUMPI PUSH1 0x40 MLOAD PUSH32 0x8C379A000000000000000000000000000000000000000000000000000000000 DUP2 MSTORE PUSH1 0x4 ADD PUSH2 0x318 SWAP1 PUSH2 0x9B2 JUMP JUMPDEST PUSH1 0x40 MLOAD DUP1 SWAP2 SUB SWAP1 REVERT JUMPDEST PUSH1 0x0 DUP1 SLOAD SWAP1 PUSH2 0x100 EXP SWAP1 DIV PUSH20 0xFFFFFFFFFFFFFFFFFFFFFFFFFFFFFFFFFFFFFFFF AND PUSH20 0xFFFFFFFFFFFFFFFFFFFFFFFFFFFFFFFFFFFFFFFF AND PUSH2 0x8FC SELFBALANCE SWAP1 DUP2 ISZERO MUL SWAP1 PUSH1 0x40 MLOAD PUSH1 0x0 PUSH1 0x40 MLOAD DUP1 DUP4 SUB DUP2 DUP6 DUP9 DUP9 CALL SWAP4 POP POP POP POP ISZERO DUP1 ISZERO PUSH2 0x387 JUMPI RETURNDATASIZE PUSH1 0x0 DUP1 RETURNDATACOPY RETURNDATASIZE PUSH1 0x0 REVERT JUMPDEST POP JUMP JUMPDEST PUSH1 0x1 SLOAD DUP2 JUMP JUMPDEST PUSH1 0x5 PUSH1 0x20 MSTORE DUP1 PUSH1 0x0 MSTORE PUSH1 0x40 PUSH1 0x0 KECCAK256 PUSH1 0x0 SWAP2 POP SWAP1 POP SLOAD DUP2 JUMP JUMPDEST PUSH1 0x2 SLOAD TIMESTAMP LT ISZERO PUSH2 0x3ED JUMPI PUSH1 0x40 MLOAD PUSH32 0x8C379A000000000000000000000000000000000000000000000000000000000 DUP2 MSTORE PUSH1 0x4 ADD PUSH2 0x3E4 SWAP1 PUSH2 0xA1E JUMP JUMPDEST PUSH1 0x40 MLOAD DUP1 SWAP2 SUB SWAP1 REVERT JUMPDEST PUSH1 0x1 SLOAD PUSH1 0x3 SLOAD LT PUSH2 0x433 JUMPI PUSH1 0x40 MLOAD PUSH32 0x8C379A000000000000000000000000000000000000000000000000000000000 DUP2 MSTORE PUSH1 0x4 ADD PUSH2 0x42A SWAP1 PUSH2 0xA8A JUMP JUMPDEST PUSH1 0x40 MLOAD DUP1 SWAP2 SUB SWAP1 REVERT JUMPDEST PUSH1 0x0 PUSH1 0x5 PUSH1 0x0 CALLER PUSH20 0xFFFFFFFFFFFFFFFFFFFFFFFFFFFFFFFFFFFFFFFF AND PUSH20 0xFFFFFFFFFFFFFFFFFFFFFFFFFFFFFFFFFFFFFFFF AND DUP2 MSTORE PUSH1 0x20 ADD SWAP1 DUP2 MSTORE PUSH1 0x20 ADD PUSH1 0x0 KECCAK256 SLOAD SWAP1 POP PUSH1 0x0 DUP2 GT PUSH2 0x4BA JUMPI PUSH1 0x40 MLOAD PUSH32 0x8C379A000000000000000000000000000000000000000000000000000000000 DUP2 MSTORE PUSH1 0x4 ADD PUSH2 0x4B1 SWAP1 PUSH2 0xAF6 JUMP JUMPDEST PUSH1 0x40 MLOAD DUP1 SWAP2 SUB SWAP1 REVERT JUMPDEST PUSH1 0x0 PUSH1 0x5 PUSH1 0x0 CALLER PUSH20 0xFFFFFFFFFFFFFFFFFFFFFFFFFFFFFFFFFFFFFFFF AND PUSH20 0xFFFFFFFFFFFFFFFFFFFFFFFFFFFFFFFFFFFFFFFF AND DUP2 MSTORE PUSH1 0x20 ADD SWAP1 DUP2 MSTORE PUSH1 0x20 ADD PUSH1 0x0 KECCAK256 DUP2 SWAP1 SSTORE POP CALLER PUSH20 0xFFFFFFFFFFFFFFFFFFFFFFFFFFFFFFFFFFFFFFFF AND PUSH2 0x8FC DUP3 SWAP1 DUP2 ISZERO MUL SWAP1 PUSH1 0x40 MLOAD PUSH1 0x0 PUSH1 0x40 MLOAD DUP1 DUP4 SUB DUP2 DUP6 DUP9 DUP9 CALL SWAP4 POP POP POP POP ISZERO DUP1 ISZERO PUSH2 0x545 JUMPI RETURNDATASIZE PUSH1 0x0 DUP1 RETURNDATACOPY RETURNDATASIZE PUSH1 0x0 REVERT JUMPDEST POP PUSH32 0xD7DEE2702D63AD89917B6A4DA9981C90C4D24F8C2BDFD64C604ECAE57D8D0651 CALLER DUP3 PUSH1 0x40 MLOAD PUSH2 0x577 SWAP3 SWAP2 SWAP1 PUSH2 0xB16 JUMP JUMPDEST PUSH1 0x40 MLOAD DUP1 SWAP2 SUB SWAP1 LOG1 POP JUMP JUMPDEST PUSH1 0x0 DUP1 SLOAD SWAP1 PUSH2 0x100 EXP SWAP1 DIV PUSH20 0xFFFFFFFFFFFFFFFFFFFFFFFFFFFFFFFFFFFFFFFF AND DUP2 JUMP JUMPDEST PUSH1 0x3 SLOAD DUP2 JUMP JUMPDEST PUSH1 0x0 SELFBALANCE SWAP1 POP SWAP1 JUMP JUMPDEST PUSH1 0x2 SLOAD TIMESTAMP LT PUSH2 0x5F8 JUMPI PUSH1 0x40 MLOAD PUSH32 0x8C379A000000000000000000000000000000000000000000000000000000000 DUP2 MSTORE PUSH1 0x4 ADD PUSH2 0x5EF SWAP1 PUSH2 0xB8B JUMP JUMPDEST PUSH1 0x40 MLOAD DUP1 SWAP2 SUB SWAP1 REVERT JUMPDEST PUSH7 0x2386F26FC10000 CALLVALUE GT PUSH2 0x641 JUMPI PUSH1 0x40 MLOAD PUSH32 0x8C379A000000000000000000000000000000000000000000000000000000000 DUP2 MSTORE PUSH1 0x4 ADD PUSH2 0x638 SWAP1 PUSH2 0xBF7 JUMP JUMPDEST PUSH1 0x40 MLOAD DUP1 SWAP2 SUB SWAP1 REVERT JUMPDEST PUSH1 0x0 PUSH1 0x5 PUSH1 0x0 CALLER PUSH20 0xFFFFFFFFFFFFFFFFFFFFFFFFFFFFFFFFFFFFFFFF AND PUSH20 0xFFFFFFFFFFFFFFFFFFFFFFFFFFFFFFFFFFFFFFFF AND DUP2 MSTORE PUSH1 0x20 ADD SWAP1 DUP2 MSTORE PUSH1 0x20 ADD PUSH1 0x0 KECCAK256 SLOAD SUB PUSH2 0x6A1 JUMPI PUSH1 0x4 PUSH1 0x0 DUP2 SLOAD DUP1 SWAP3 SWAP2 SWAP1 PUSH2 0x69B SWAP1 PUSH2 0xC46 JUMP JUMPDEST SWAP2 SWAP1 POP SSTORE POP JUMPDEST CALLVALUE PUSH1 0x5 PUSH1 0x0 CALLER PUSH20 0xFFFFFFFFFFFFFFFFFFFFFFFFFFFFFFFFFFFFFFFF AND PUSH20 0xFFFFFFFFFFFFFFFFFFFFFFFFFFFFFFFFFFFFFFFF AND DUP2 MSTORE PUSH1 0x20 ADD SWAP1 DUP2 MSTORE PUSH1 0x20 ADD PUSH1 0x0 KECCAK256 PUSH1 0x0 DUP3 DUP3 SLOAD PUSH2 0x6F0 SWAP2 SWAP1 PUSH2 0xC8E JUMP JUMPDEST SWAP3 POP POP DUP2 SWAP1 SSTORE POP CALLVALUE PUSH1 0x3 PUSH1 0x0 DUP3 DUP3 SLOAD PUSH2 0x709 SWAP2 SWAP1 PUSH2 0xC8E JUMP JUMPDEST SWAP3 POP POP DUP2 SWAP1 SSTORE POP PUSH32 0x54A5B8782470A0D2C022B3B9E5E729503AC5DBDFE053AFEB4559F9297F7565A6 CALLER CALLVALUE PUSH1 0x40 MLOAD PUSH2 0x741 SWAP3 SWAP2 SWAP1 PUSH2 0xB16 JUMP JUMPDEST PUSH1 0x40 MLOAD DUP1 SWAP2 SUB SWAP1 LOG1 PUSH1 0x1 SLOAD PUSH1 0x3 SLOAD LT PUSH2 0x78E JUMPI PUSH32 0xFBFD8AB7C24300FA9888CD721C8565A7DA56759384781283684DCF7C7C4A846B PUSH1 0x3 SLOAD PUSH1 0x40 MLOAD PUSH2 0x785 SWAP2 SWAP1 PUSH2 0x7CF JUMP JUMPDEST PUSH1 0x40 MLOAD DUP1 SWAP2 SUB SWAP1 LOG1 JUMPDEST JUMP JUMPDEST PUSH1 0x4 SLOAD DUP2 JUMP JUMPDEST PUSH1 0x0 DUP1 PUSH1 0x0 DUP1 PUSH1 0x1 SLOAD PUSH1 0x2 SLOAD PUSH1 0x3 SLOAD PUSH1 0x4 SLOAD SWAP4 POP SWAP4 POP SWAP4 POP SWAP4 POP SWAP1 SWAP2 SWAP3 SWAP4 JUMP JUMPDEST PUSH1 0x0 DUP2 SWAP1 POP SWAP2 SWAP1 POP JUMP JUMPDEST PUSH2 0x7C9 DUP2 PUSH2 0x7B6 JUMP JUMPDEST DUP3 MSTORE POP POP JUMP JUMPDEST PUSH1 0x0 PUSH1 0x20 DUP3 ADD SWAP1 POP PUSH2 0x7E4 PUSH1 0x0 DUP4 ADD DUP5 PUSH2 0x7C0 JUMP JUMPDEST SWAP3 SWAP2 POP POP JUMP JUMPDEST PUSH1 0x0 DUP1 REVERT JUMPDEST PUSH1 0x0 PUSH20 0xFFFFFFFFFFFFFFFFFFFFFFFFFFFFFFFFFFFFFFFF DUP3 AND SWAP1 POP SWAP2 SWAP1 POP JUMP JUMPDEST PUSH1 0x0 PUSH2 0x81A DUP3 PUSH2 0x7EF JUMP JUMPDEST SWAP1 POP SWAP2 SWAP1 POP JUMP JUMPDEST PUSH2 0x82A DUP2 PUSH2 0x80F JUMP JUMPDEST DUP2 EQ PUSH2 0x835 JUMPI PUSH1 0x0 DUP1 REVERT JUMPDEST POP JUMP JUMPDEST PUSH1 0x0 DUP2 CALLDATALOAD SWAP1 POP PUSH2 0x847 DUP2 PUSH2 0x821 JUMP JUMPDEST SWAP3 SWAP2 POP POP JUMP JUMPDEST PUSH1 0x0 PUSH1 0x20 DUP3 DUP5 SUB SLT ISZERO PUSH2 0x863 JUMPI PUSH2 0x862 PUSH2 0x7EA JUMP JUMPDEST JUMPDEST PUSH1 0x0 PUSH2 0x871 DUP5 DUP3 DUP6 ADD PUSH2 0x838 JUMP JUMPDEST SWAP2 POP POP SWAP3 SWAP2 POP POP JUMP JUMPDEST PUSH2 0x883 DUP2 PUSH2 0x80F JUMP JUMPDEST DUP3 MSTORE POP POP JUMP JUMPDEST PUSH1 0x0 PUSH1 0x20 DUP3 ADD SWAP1 POP PUSH2 0x89E PUSH1 0x0 DUP4 ADD DUP5 PUSH2 0x87A JUMP JUMPDEST SWAP3 SWAP2 POP POP JUMP JUMPDEST PUSH1 0x0 PUSH1 0x80 DUP3 ADD SWAP1 POP PUSH2 0x8B9 PUSH1 0x0 DUP4 ADD DUP8 PUSH2 0x7C0 JUMP JUMPDEST PUSH2 0x8C6 PUSH1 0x20 DUP4 ADD DUP7 PUSH2 0x7C0 JUMP JUMPDEST PUSH2 0x8D3 PUSH1 0x40 DUP4 ADD DUP6 PUSH2 0x7C0 JUMP JUMPDEST PUSH2 0x8E0 PUSH1 0x60 DUP4 ADD DUP5 PUSH2 0x7C0 JUMP JUMPDEST SWAP6 SWAP5 POP POP POP POP POP JUMP JUMPDEST PUSH1 0x0 DUP3 DUP3 MSTORE PUSH1 0x20 DUP3 ADD SWAP1 POP SWAP3 SWAP2 POP POP JUMP JUMPDEST PUSH32 0x4E6F7420617574686F72697A6564000000000000000000000000000000000000 PUSH1 0x0 DUP3 ADD MSTORE POP JUMP JUMPDEST PUSH1 0x0 PUSH2 0x930 PUSH1 0xE DUP4 PUSH2 0x8E9 JUMP JUMPDEST SWAP2 POP PUSH2 0x93B DUP3 PUSH2 0x8FA JUMP JUMPDEST PUSH1 0x20 DUP3 ADD SWAP1 POP SWAP2 SWAP1 POP JUMP JUMPDEST PUSH1 0x0 PUSH1 0x20 DUP3 ADD SWAP1 POP DUP2 DUP2 SUB PUSH1 0x0 DUP4 ADD MSTORE PUSH2 0x95F DUP2 PUSH2 0x923 JUMP JUMPDEST SWAP1 POP SWAP2 SWAP1 POP JUMP JUMPDEST PUSH32 0x476F616C206E6F74207265616368656400000000000000000000000000000000 PUSH1 0x0 DUP3 ADD MSTORE POP JUMP JUMPDEST PUSH1 0x0 PUSH2 0x99C PUSH1 0x10 DUP4 PUSH2 0x8E9 JUMP JUMPDEST SWAP2 POP PUSH2 0x9A7 DUP3 PUSH2 0x966 JUMP JUMPDEST PUSH1 0x20 DUP3 ADD SWAP1 POP SWAP2 SWAP1 POP JUMP JUMPDEST PUSH1 0x0 PUSH1 0x20 DUP3 ADD SWAP1 POP DUP2 DUP2 SUB PUSH1 0x0 DUP4 ADD MSTORE PUSH2 0x9CB DUP2 PUSH2 0x98F JUMP JUMPDEST SWAP1 POP SWAP2 SWAP1 POP JUMP JUMPDEST PUSH32 0x446561646C696E65206E6F742079657420726561636865640000000000000000 PUSH1 0x0 DUP3 ADD MSTORE POP JUMP JUMPDEST PUSH1 0x0 PUSH2 0xA08 PUSH1 0x18 DUP4 PUSH2 0x8E9 JUMP JUMPDEST SWAP2 POP PUSH2 0xA13 DUP3 PUSH2 0x9D2 JUMP JUMPDEST PUSH1 0x20 DUP3 ADD SWAP1 POP SWAP2 SWAP1 POP JUMP JUMPDEST PUSH1 0x0 PUSH1 0x20 DUP3 ADD SWAP1 POP DUP2 DUP2 SUB PUSH1 0x0 DUP4 ADD MSTORE PUSH2 0xA37 DUP2 PUSH2 0x9FB JUMP JUMPDEST SWAP1 POP SWAP2 SWAP1 POP JUMP JUMPDEST PUSH32 0x476F616C20776173206D65740000000000000000000000000000000000000000 PUSH1 0x0 DUP3 ADD MSTORE POP JUMP JUMPDEST PUSH1 0x0 PUSH2 0xA74 PUSH1 0xC DUP4 PUSH2 0x8E9 JUMP JUMPDEST SWAP2 POP PUSH2 0xA7F DUP3 PUSH2 0xA3E JUMP JUMPDEST PUSH1 0x20 DUP3 ADD SWAP1 POP SWAP2 SWAP1 POP JUMP JUMPDEST PUSH1 0x0 PUSH1 0x20 DUP3 ADD SWAP1 POP DUP2 DUP2 SUB PUSH1 0x0 DUP4 ADD MSTORE PUSH2 0xAA3 DUP2 PUSH2 0xA67 JUMP JUMPDEST SWAP1 POP SWAP2 SWAP1 POP JUMP JUMPDEST PUSH32 0x4E6F20636F6E747269627574696F6E7320666F756E6400000000000000000000 PUSH1 0x0 DUP3 ADD MSTORE POP JUMP JUMPDEST PUSH1 0x0 PUSH2 0xAE0 PUSH1 0x16 DUP4 PUSH2 0x8E9 JUMP JUMPDEST SWAP2 POP PUSH2 0xAEB DUP3 PUSH2 0xAAA JUMP JUMPDEST PUSH1 0x20 DUP3 ADD SWAP1 POP SWAP2 SWAP1 POP JUMP JUMPDEST PUSH1 0x0 PUSH1 0x20 DUP3 ADD SWAP1 POP DUP2 DUP2 SUB PUSH1 0x0 DUP4 ADD MSTORE PUSH2 0xB0F DUP2 PUSH2 0xAD3 JUMP JUMPDEST SWAP1 POP SWAP2 SWAP1 POP JUMP JUMPDEST PUSH1 0x0 PUSH1 0x40 DUP3 ADD SWAP1 POP PUSH2 0xB2B PUSH1 0x0 DUP4 ADD DUP6 PUSH2 0x87A JUMP JUMPDEST PUSH2 0xB38 PUSH1 0x20 DUP4 ADD DUP5 PUSH2 0x7C0 JUMP JUMPDEST SWAP4 SWAP3 POP POP POP JUMP JUMPDEST PUSH32 0x446561646C696E65207061737365640000000000000000000000000000000000 PUSH1 0x0 DUP3 ADD MSTORE POP JUMP JUMPDEST PUSH1 0x0 PUSH2 0xB75 PUSH1 0xF DUP4 PUSH2 0x8E9 JUMP JUMPDEST SWAP2 POP PUSH2 0xB80 DUP3 PUSH2 0xB3F JUMP JUMPDEST PUSH1 0x20 DUP3 ADD SWAP1 POP SWAP2 SWAP1 POP JUMP JUMPDEST PUSH1 0x0 PUSH1 0x20 DUP3 ADD SWAP1 POP DUP2 DUP2 SUB PUSH1 0x0 DUP4 ADD MSTORE PUSH2 0xBA4 DUP2 PUSH2 0xB68 JUMP JUMPDEST SWAP1 POP SWAP2 SWAP1 POP JUMP JUMPDEST PUSH32 0x4D696E696D756D20636F6E747269627574696F6E20697320302E303120455448 PUSH1 0x0 DUP3 ADD MSTORE POP JUMP JUMPDEST PUSH1 0x0 PUSH2 0xBE1 PUSH1 0x20 DUP4 PUSH2 0x8E9 JUMP JUMPDEST SWAP2 POP PUSH2 0xBEC DUP3 PUSH2 0xBAB JUMP JUMPDEST PUSH1 0x20 DUP3 ADD SWAP1 POP SWAP2 SWAP1 POP JUMP JUMPDEST PUSH1 0x0 PUSH1 0x20 DUP3 ADD SWAP1 POP DUP2 DUP2 SUB PUSH1 0x0 DUP4 ADD MSTORE PUSH2 0xC10 DUP2 PUSH2 0xBD4 JUMP JUMPDEST SWAP1 POP SWAP2 SWAP1 POP JUMP JUMPDEST PUSH32 0x4E487B7100000000000000000000000000000000000000000000000000000000 PUSH1 0x0 MSTORE PUSH1 0x11 PUSH1 0x4 MSTORE PUSH1 0x24 PUSH1 0x0 REVERT JUMPDEST PUSH1 0x0 PUSH2 0xC51 DUP3 PUSH2 0x7B6 JUMP JUMPDEST SWAP2 POP PUSH32 0xFFFFFFFFFFFFFFFFFFFFFFFFFFFFFFFFFFFFFFFFFFFFFFFFFFFFFFFFFFFFFFFF DUP3 SUB PUSH2 0xC83 JUMPI PUSH2 0xC82 PUSH2 0xC17 JUMP JUMPDEST JUMPDEST PUSH1 0x1 DUP3 ADD SWAP1 POP SWAP2 SWAP1 POP JUMP JUMPDEST PUSH1 0x0 PUSH2 0xC99 DUP3 PUSH2 0x7B6 JUMP JUMPDEST SWAP2 POP PUSH2 0xCA4 DUP4 PUSH2 0x7B6 JUMP JUMPDEST SWAP3 POP DUP3 DUP3 ADD SWAP1 POP DUP1 DUP3 GT ISZERO PUSH2 0xCBC JUMPI PUSH2 0xCBB PUSH2 0xC17 JUMP JUMPDEST JUMPDEST SWAP3 SWAP2 POP POP JUMP INVALID LOG2 PUSH5 0x6970667358 0x22 SLT KECCAK256 0xD6 TLOAD 0xC8 DUP15 0x4F SAR SWAP13 0xBA 0xF9 PC ISZERO 0xAA MSTORE 0xEA 0xE8 0xD1 GAS CODECOPY 0xBB 0xC4 0x2B XOR LOG4 DUP9 PUSH30 0x73584C04A9E17064736F6C634300081A0033000000000000000000000000 "
				},
				"gasEstimates": {
					"creation": {
						"codeDepositCost": "664000",
						"executionCost": "infinite",
						"totalCost": "infinite"
					},
					"external": {
						"checkBalance()": "383",
						"contribute()": "infinite",
						"contributions(address)": "1581",
						"contributorCount()": "1217",
						"deadline()": "1130",
						"getDetails()": "infinite",
						"goal()": "1174",
						"owner()": "1211",
						"raisedAmount()": "1151",
						"refund()": "infinite",
						"withdraw()": "infinite"
					}
				},
				"methodIdentifiers": {
					"checkBalance()": "c71daccb",
					"contribute()": "d7bb99ba",
					"contributions(address)": "42e94c90",
					"contributorCount()": "ecfd8928",
					"deadline()": "29dcb0cf",
					"getDetails()": "fbbf93a0",
					"goal()": "40193883",
					"owner()": "8da5cb5b",
					"raisedAmount()": "c59ee1dc",
					"refund()": "590e1ae3",
					"withdraw()": "3ccfd60b"
				}
			},
			"storageLayout": {
				"storage": [
					{
						"astId": 3,
						"contract": "contracts/CrowdFund.sol:CrowdFund",
						"label": "owner",
						"offset": 0,
						"slot": "0",
						"type": "t_address"
					},
					{
						"astId": 5,
						"contract": "contracts/CrowdFund.sol:CrowdFund",
						"label": "goal",
						"offset": 0,
						"slot": "1",
						"type": "t_uint256"
					},
					{
						"astId": 7,
						"contract": "contracts/CrowdFund.sol:CrowdFund",
						"label": "deadline",
						"offset": 0,
						"slot": "2",
						"type": "t_uint256"
					},
					{
						"astId": 9,
						"contract": "contracts/CrowdFund.sol:CrowdFund",
						"label": "raisedAmount",
						"offset": 0,
						"slot": "3",
						"type": "t_uint256"
					},
					{
						"astId": 11,
						"contract": "contracts/CrowdFund.sol:CrowdFund",
						"label": "contributorCount",
						"offset": 0,
						"slot": "4",
						"type": "t_uint256"
					},
					{
						"astId": 15,
						"contract": "contracts/CrowdFund.sol:CrowdFund",
						"label": "contributions",
						"offset": 0,
						"slot": "5",
						"type": "t_mapping(t_address,t_uint256)"
					}
				],
				"types": {
					"t_address": {
						"encoding": "inplace",
						"label": "address",
						"numberOfBytes": "20"
					},
					"t_mapping(t_address,t_uint256)": {
						"encoding": "mapping",
						"key": "t_address",
						"label": "mapping(address => uint256)",
						"numberOfBytes": "32",
						"value": "t_uint256"
					},
					"t_uint256": {
						"encoding": "inplace",
						"label": "uint256",
						"numberOfBytes": "32"
					}
				}
			},
			"userdoc": {
				"kind": "user",
				"methods": {},
				"version": 1
			}
		}
	}
}