{
	"contracts/SimpleMessage.sol": {
		"SimpleMessage": {
			"abi": [
				{
					"inputs": [
						{
							"internalType": "string",
							"name": "initialMessage",
							"type": "string"
						}
					],
					"stateMutability": "nonpayable",
					"type": "constructor"
				},
				{
					"inputs": [],
					"name": "message",
					"outputs": [
						{
							"internalType": "string",
							"name": "",
							"type": "string"
						}
					],
					"stateMutability": "view",
					"type": "function"
				},
				{
					"inputs": [
						{
							"internalType": "string",
							"name": "newMessage",
							"type": "string"
						}
					],
					"name": "setMessage",
					"outputs": [],
					"stateMutability": "nonpayable",
					"type": "function"
				}
			],
			"devdoc": {
				"kind": "dev",
				"methods": {},
				"version": 1
			},
			"evm": {
				"assembly": "    /* \"contracts/SimpleMessage.sol\":63:321  contract SimpleMessage { ... */\n  mstore(0x40, 0x80)\n    /* \"contracts/SimpleMessage.sol\":126:213  constructor(string memory initialMessage) { ... */\n  callvalue\n  dup1\n  iszero\n  tag_1\n  jumpi\n  0x00\n  dup1\n  revert\ntag_1:\n  pop\n  mload(0x40)\n  sub(codesize, bytecodeSize)\n  dup1\n  bytecodeSize\n  dup4\n  codecopy\n  dup2\n  dup2\n  add\n  0x40\n  mstore\n  dup2\n  add\n  swap1\n  tag_2\n  swap2\n  swap1\n  tag_3\n  jump\t// in\ntag_2:\n    /* \"contracts/SimpleMessage.sol\":190:204  initialMessage */\n  dup1\n    /* \"contracts/SimpleMessage.sol\":180:187  message */\n  0x00\n    /* \"contracts/SimpleMessage.sol\":180:204  message = initialMessage */\n  swap1\n  dup2\n  tag_6\n  swap2\n  swap1\n  tag_7\n  jump\t// in\ntag_6:\n  pop\n    /* \"contracts/SimpleMessage.sol\":126:213  constructor(string memory initialMessage) { ... */\n  pop\n    /* \"contracts/SimpleMessage.sol\":63:321  contract SimpleMessage { ... */\n  jump(tag_8)\n    /* \"#utility.yul\":7:82   */\ntag_9:\n    /* \"#utility.yul\":40:46   */\n  0x00\n    /* \"#utility.yul\":73:75   */\n  0x40\n    /* \"#utility.yul\":67:76   */\n  mload\n    /* \"#utility.yul\":57:76   */\n  swap1\n  pop\n    /* \"#utility.yul\":7:82   */\n  swap1\n  jump\t// out\n    /* \"#utility.yul\":88:205   */\ntag_10:\n    /* \"#utility.yul\":197:198   */\n  0x00\n    /* \"#utility.yul\":194:195   */\n  dup1\n    /* \"#utility.yul\":187:199   */\n  revert\n    /* \"#utility.yul\":211:328   */\ntag_11:\n    /* \"#utility.yul\":320:321   */\n  0x00\n    /* \"#utility.yul\":317:318   */\n  dup1\n    /* \"#utility.yul\":310:322   */\n  revert\n    /* \"#utility.yul\":334:451   */\ntag_12:\n    /* \"#utility.yul\":443:444   */\n  0x00\n    /* \"#utility.yul\":440:441   */\n  dup1\n    /* \"#utility.yul\":433:445   */\n  revert\n    /* \"#utility.yul\":457:574   */\ntag_13:\n    /* \"#utility.yul\":566:567   */\n  0x00\n    /* \"#utility.yul\":563:564   */\n  dup1\n    /* \"#utility.yul\":556:568   */\n  revert\n    /* \"#utility.yul\":580:682   */\ntag_14:\n    /* \"#utility.yul\":621:627   */\n  0x00\n    /* \"#utility.yul\":672:674   */\n  0x1f\n    /* \"#utility.yul\":668:675   */\n  not\n    /* \"#utility.yul\":663:665   */\n  0x1f\n    /* \"#utility.yul\":656:661   */\n  dup4\n    /* \"#utility.yul\":652:666   */\n  add\n    /* \"#utility.yul\":648:676   */\n  and\n    /* \"#utility.yul\":638:676   */\n  swap1\n  pop\n    /* \"#utility.yul\":580:682   */\n  swap2\n  swap1\n  pop\n  jump\t// out\n    /* \"#utility.yul\":688:868   */\ntag_15:\n    /* \"#utility.yul\":736:813   */\n  0x4e487b7100000000000000000000000000000000000000000000000000000000\n    /* \"#utility.yul\":733:734   */\n  0x00\n    /* \"#utility.yul\":726:814   */\n  mstore\n    /* \"#utility.yul\":833:837   */\n  0x41\n    /* \"#utility.yul\":830:831   */\n  0x04\n    /* \"#utility.yul\":823:838   */\n  mstore\n    /* \"#utility.yul\":857:861   */\n  0x24\n    /* \"#utility.yul\":854:855   */\n  0x00\n    /* \"#utility.yul\":847:862   */\n  revert\n    /* \"#utility.yul\":874:1155   */\ntag_16:\n    /* \"#utility.yul\":957:984   */\n  tag_50\n    /* \"#utility.yul\":979:983   */\n  dup3\n    /* \"#utility.yul\":957:984   */\n  tag_14\n  jump\t// in\ntag_50:\n    /* \"#utility.yul\":949:955   */\n  dup2\n    /* \"#utility.yul\":945:985   */\n  add\n    /* \"#utility.yul\":1087:1093   */\n  dup2\n    /* \"#utility.yul\":1075:1085   */\n  dup2\n    /* \"#utility.yul\":1072:1094   */\n  lt\n    /* \"#utility.yul\":1051:1069   */\n  0xffffffffffffffff\n    /* \"#utility.yul\":1039:1049   */\n  dup3\n    /* \"#utility.yul\":1036:1070   */\n  gt\n    /* \"#utility.yul\":1033:1095   */\n  or\n    /* \"#utility.yul\":1030:1118   */\n  iszero\n  tag_51\n  jumpi\n    /* \"#utility.yul\":1098:1116   */\n  tag_52\n  tag_15\n  jump\t// in\ntag_52:\n    /* \"#utility.yul\":1030:1118   */\ntag_51:\n    /* \"#utility.yul\":1138:1148   */\n  dup1\n    /* \"#utility.yul\":1134:1136   */\n  0x40\n    /* \"#utility.yul\":1127:1149   */\n  mstore\n    /* \"#utility.yul\":917:1155   */\n  pop\n    /* \"#utility.yul\":874:1155   */\n  pop\n  pop\n  jump\t// out\n    /* \"#utility.yul\":1161:1290   */\ntag_17:\n    /* \"#utility.yul\":1195:1201   */\n  0x00\n    /* \"#utility.yul\":1222:1242   */\n  tag_54\n  tag_9\n  jump\t// in\ntag_54:\n    /* \"#utility.yul\":1212:1242   */\n  swap1\n  pop\n    /* \"#utility.yul\":1251:1284   */\n  tag_55\n    /* \"#utility.yul\":1279:1283   */\n  dup3\n    /* \"#utility.yul\":1271:1277   */\n  dup3\n    /* \"#utility.yul\":1251:1284   */\n  tag_16\n  jump\t// in\ntag_55:\n    /* \"#utility.yul\":1161:1290   */\n  swap2\n  swap1\n  pop\n  jump\t// out\n    /* \"#utility.yul\":1296:1604   */\ntag_18:\n    /* \"#utility.yul\":1358:1362   */\n  0x00\n    /* \"#utility.yul\":1448:1466   */\n  0xffffffffffffffff\n    /* \"#utility.yul\":1440:1446   */\n  dup3\n    /* \"#utility.yul\":1437:1467   */\n  gt\n    /* \"#utility.yul\":1434:1490   */\n  iszero\n  tag_57\n  jumpi\n    /* \"#utility.yul\":1470:1488   */\n  tag_58\n  tag_15\n  jump\t// in\ntag_58:\n    /* \"#utility.yul\":1434:1490   */\ntag_57:\n    /* \"#utility.yul\":1508:1537   */\n  tag_59\n    /* \"#utility.yul\":1530:1536   */\n  dup3\n    /* \"#utility.yul\":1508:1537   */\n  tag_14\n  jump\t// in\ntag_59:\n    /* \"#utility.yul\":1500:1537   */\n  swap1\n  pop\n    /* \"#utility.yul\":1592:1596   */\n  0x20\n    /* \"#utility.yul\":1586:1590   */\n  dup2\n    /* \"#utility.yul\":1582:1597   */\n  add\n    /* \"#utility.yul\":1574:1597   */\n  swap1\n  pop\n    /* \"#utility.yul\":1296:1604   */\n  swap2\n  swap1\n  pop\n  jump\t// out\n    /* \"#utility.yul\":1610:1858   */\ntag_19:\n    /* \"#utility.yul\":1692:1693   */\n  0x00\n    /* \"#utility.yul\":1702:1815   */\ntag_61:\n    /* \"#utility.yul\":1716:1722   */\n  dup4\n    /* \"#utility.yul\":1713:1714   */\n  dup2\n    /* \"#utility.yul\":1710:1723   */\n  lt\n    /* \"#utility.yul\":1702:1815   */\n  iszero\n  tag_63\n  jumpi\n    /* \"#utility.yul\":1801:1802   */\n  dup1\n    /* \"#utility.yul\":1796:1799   */\n  dup3\n    /* \"#utility.yul\":1792:1803   */\n  add\n    /* \"#utility.yul\":1786:1804   */\n  mload\n    /* \"#utility.yul\":1782:1783   */\n  dup2\n    /* \"#utility.yul\":1777:1780   */\n  dup5\n    /* \"#utility.yul\":1773:1784   */\n  add\n    /* \"#utility.yul\":1766:1805   */\n  mstore\n    /* \"#utility.yul\":1738:1740   */\n  0x20\n    /* \"#utility.yul\":1735:1736   */\n  dup2\n    /* \"#utility.yul\":1731:1741   */\n  add\n    /* \"#utility.yul\":1726:1741   */\n  swap1\n  pop\n    /* \"#utility.yul\":1702:1815   */\n  jump(tag_61)\ntag_63:\n    /* \"#utility.yul\":1849:1850   */\n  0x00\n    /* \"#utility.yul\":1840:1846   */\n  dup5\n    /* \"#utility.yul\":1835:1838   */\n  dup5\n    /* \"#utility.yul\":1831:1847   */\n  add\n    /* \"#utility.yul\":1824:1851   */\n  mstore\n    /* \"#utility.yul\":1672:1858   */\n  pop\n    /* \"#utility.yul\":1610:1858   */\n  pop\n  pop\n  pop\n  jump\t// out\n    /* \"#utility.yul\":1864:2298   */\ntag_20:\n    /* \"#utility.yul\":1953:1958   */\n  0x00\n    /* \"#utility.yul\":1978:2044   */\n  tag_65\n    /* \"#utility.yul\":1994:2043   */\n  tag_66\n    /* \"#utility.yul\":2036:2042   */\n  dup5\n    /* \"#utility.yul\":1994:2043   */\n  tag_18\n  jump\t// in\ntag_66:\n    /* \"#utility.yul\":1978:2044   */\n  tag_17\n  jump\t// in\ntag_65:\n    /* \"#utility.yul\":1969:2044   */\n  swap1\n  pop\n    /* \"#utility.yul\":2067:2073   */\n  dup3\n    /* \"#utility.yul\":2060:2065   */\n  dup2\n    /* \"#utility.yul\":2053:2074   */\n  mstore\n    /* \"#utility.yul\":2105:2109   */\n  0x20\n    /* \"#utility.yul\":2098:2103   */\n  dup2\n    /* \"#utility.yul\":2094:2110   */\n  add\n    /* \"#utility.yul\":2143:2146   */\n  dup5\n    /* \"#utility.yul\":2134:2140   */\n  dup5\n    /* \"#utility.yul\":2129:2132   */\n  dup5\n    /* \"#utility.yul\":2125:2141   */\n  add\n    /* \"#utility.yul\":2122:2147   */\n  gt\n    /* \"#utility.yul\":2119:2231   */\n  iszero\n  tag_67\n  jumpi\n    /* \"#utility.yul\":2150:2229   */\n  tag_68\n  tag_13\n  jump\t// in\ntag_68:\n    /* \"#utility.yul\":2119:2231   */\ntag_67:\n    /* \"#utility.yul\":2240:2292   */\n  tag_69\n    /* \"#utility.yul\":2285:2291   */\n  dup5\n    /* \"#utility.yul\":2280:2283   */\n  dup3\n    /* \"#utility.yul\":2275:2278   */\n  dup6\n    /* \"#utility.yul\":2240:2292   */\n  tag_19\n  jump\t// in\ntag_69:\n    /* \"#utility.yul\":1959:2298   */\n  pop\n    /* \"#utility.yul\":1864:2298   */\n  swap4\n  swap3\n  pop\n  pop\n  pop\n  jump\t// out\n    /* \"#utility.yul\":2318:2673   */\ntag_21:\n    /* \"#utility.yul\":2385:2390   */\n  0x00\n    /* \"#utility.yul\":2434:2437   */\n  dup3\n    /* \"#utility.yul\":2427:2431   */\n  0x1f\n    /* \"#utility.yul\":2419:2425   */\n  dup4\n    /* \"#utility.yul\":2415:2432   */\n  add\n    /* \"#utility.yul\":2411:2438   */\n  slt\n    /* \"#utility.yul\":2401:2523   */\n  tag_71\n  jumpi\n    /* \"#utility.yul\":2442:2521   */\n  tag_72\n  tag_12\n  jump\t// in\ntag_72:\n    /* \"#utility.yul\":2401:2523   */\ntag_71:\n    /* \"#utility.yul\":2552:2558   */\n  dup2\n    /* \"#utility.yul\":2546:2559   */\n  mload\n    /* \"#utility.yul\":2577:2667   */\n  tag_73\n    /* \"#utility.yul\":2663:2666   */\n  dup5\n    /* \"#utility.yul\":2655:2661   */\n  dup3\n    /* \"#utility.yul\":2648:2652   */\n  0x20\n    /* \"#utility.yul\":2640:2646   */\n  dup7\n    /* \"#utility.yul\":2636:2653   */\n  add\n    /* \"#utility.yul\":2577:2667   */\n  tag_20\n  jump\t// in\ntag_73:\n    /* \"#utility.yul\":2568:2667   */\n  swap2\n  pop\n    /* \"#utility.yul\":2391:2673   */\n  pop\n    /* \"#utility.yul\":2318:2673   */\n  swap3\n  swap2\n  pop\n  pop\n  jump\t// out\n    /* \"#utility.yul\":2679:3203   */\ntag_3:\n    /* \"#utility.yul\":2759:2765   */\n  0x00\n    /* \"#utility.yul\":2808:2810   */\n  0x20\n    /* \"#utility.yul\":2796:2805   */\n  dup3\n    /* \"#utility.yul\":2787:2794   */\n  dup5\n    /* \"#utility.yul\":2783:2806   */\n  sub\n    /* \"#utility.yul\":2779:2811   */\n  slt\n    /* \"#utility.yul\":2776:2895   */\n  iszero\n  tag_75\n  jumpi\n    /* \"#utility.yul\":2814:2893   */\n  tag_76\n  tag_10\n  jump\t// in\ntag_76:\n    /* \"#utility.yul\":2776:2895   */\ntag_75:\n    /* \"#utility.yul\":2955:2956   */\n  0x00\n    /* \"#utility.yul\":2944:2953   */\n  dup3\n    /* \"#utility.yul\":2940:2957   */\n  add\n    /* \"#utility.yul\":2934:2958   */\n  mload\n    /* \"#utility.yul\":2985:3003   */\n  0xffffffffffffffff\n    /* \"#utility.yul\":2977:2983   */\n  dup2\n    /* \"#utility.yul\":2974:3004   */\n  gt\n    /* \"#utility.yul\":2971:3088   */\n  iszero\n  tag_77\n  jumpi\n    /* \"#utility.yul\":3007:3086   */\n  tag_78\n  tag_11\n  jump\t// in\ntag_78:\n    /* \"#utility.yul\":2971:3088   */\ntag_77:\n    /* \"#utility.yul\":3112:3186   */\n  tag_79\n    /* \"#utility.yul\":3178:3185   */\n  dup5\n    /* \"#utility.yul\":3169:3175   */\n  dup3\n    /* \"#utility.yul\":3158:3167   */\n  dup6\n    /* \"#utility.yul\":3154:3176   */\n  add\n    /* \"#utility.yul\":3112:3186   */\n  tag_21\n  jump\t// in\ntag_79:\n    /* \"#utility.yul\":3102:3186   */\n  swap2\n  pop\n    /* \"#utility.yul\":2905:3196   */\n  pop\n    /* \"#utility.yul\":2679:3203   */\n  swap3\n  swap2\n  pop\n  pop\n  jump\t// out\n    /* \"#utility.yul\":3209:3308   */\ntag_22:\n    /* \"#utility.yul\":3261:3267   */\n  0x00\n    /* \"#utility.yul\":3295:3300   */\n  dup2\n    /* \"#utility.yul\":3289:3301   */\n  mload\n    /* \"#utility.yul\":3279:3301   */\n  swap1\n  pop\n    /* \"#utility.yul\":3209:3308   */\n  swap2\n  swap1\n  pop\n  jump\t// out\n    /* \"#utility.yul\":3314:3494   */\ntag_23:\n    /* \"#utility.yul\":3362:3439   */\n  0x4e487b7100000000000000000000000000000000000000000000000000000000\n    /* \"#utility.yul\":3359:3360   */\n  0x00\n    /* \"#utility.yul\":3352:3440   */\n  mstore\n    /* \"#utility.yul\":3459:3463   */\n  0x22\n    /* \"#utility.yul\":3456:3457   */\n  0x04\n    /* \"#utility.yul\":3449:3464   */\n  mstore\n    /* \"#utility.yul\":3483:3487   */\n  0x24\n    /* \"#utility.yul\":3480:3481   */\n  0x00\n    /* \"#utility.yul\":3473:3488   */\n  revert\n    /* \"#utility.yul\":3500:3820   */\ntag_24:\n    /* \"#utility.yul\":3544:3550   */\n  0x00\n    /* \"#utility.yul\":3581:3582   */\n  0x02\n    /* \"#utility.yul\":3575:3579   */\n  dup3\n    /* \"#utility.yul\":3571:3583   */\n  div\n    /* \"#utility.yul\":3561:3583   */\n  swap1\n  pop\n    /* \"#utility.yul\":3628:3629   */\n  0x01\n    /* \"#utility.yul\":3622:3626   */\n  dup3\n    /* \"#utility.yul\":3618:3630   */\n  and\n    /* \"#utility.yul\":3649:3667   */\n  dup1\n    /* \"#utility.yul\":3639:3720   */\n  tag_83\n  jumpi\n    /* \"#utility.yul\":3705:3709   */\n  0x7f\n    /* \"#utility.yul\":3697:3703   */\n  dup3\n    /* \"#utility.yul\":3693:3710   */\n  and\n    /* \"#utility.yul\":3683:3710   */\n  swap2\n  pop\n    /* \"#utility.yul\":3639:3720   */\ntag_83:\n    /* \"#utility.yul\":3767:3769   */\n  0x20\n    /* \"#utility.yul\":3759:3765   */\n  dup3\n    /* \"#utility.yul\":3756:3770   */\n  lt\n    /* \"#utility.yul\":3736:3754   */\n  dup2\n    /* \"#utility.yul\":3733:3771   */\n  sub\n    /* \"#utility.yul\":3730:3814   */\n  tag_84\n  jumpi\n    /* \"#utility.yul\":3786:3804   */\n  tag_85\n  tag_23\n  jump\t// in\ntag_85:\n    /* \"#utility.yul\":3730:3814   */\ntag_84:\n    /* \"#utility.yul\":3551:3820   */\n  pop\n    /* \"#utility.yul\":3500:3820   */\n  swap2\n  swap1\n  pop\n  jump\t// out\n    /* \"#utility.yul\":3826:3967   */\ntag_25:\n    /* \"#utility.yul\":3875:3879   */\n  0x00\n    /* \"#utility.yul\":3898:3901   */\n  dup2\n    /* \"#utility.yul\":3890:3901   */\n  swap1\n  pop\n    /* \"#utility.yul\":3921:3924   */\n  dup2\n    /* \"#utility.yul\":3918:3919   */\n  0x00\n    /* \"#utility.yul\":3911:3925   */\n  mstore\n    /* \"#utility.yul\":3955:3959   */\n  0x20\n    /* \"#utility.yul\":3952:3953   */\n  0x00\n    /* \"#utility.yul\":3942:3960   */\n  keccak256\n    /* \"#utility.yul\":3934:3960   */\n  swap1\n  pop\n    /* \"#utility.yul\":3826:3967   */\n  swap2\n  swap1\n  pop\n  jump\t// out\n    /* \"#utility.yul\":3973:4066   */\ntag_26:\n    /* \"#utility.yul\":4010:4016   */\n  0x00\n    /* \"#utility.yul\":4057:4059   */\n  0x20\n    /* \"#utility.yul\":4052:4054   */\n  0x1f\n    /* \"#utility.yul\":4045:4050   */\n  dup4\n    /* \"#utility.yul\":4041:4055   */\n  add\n    /* \"#utility.yul\":4037:4060   */\n  div\n    /* \"#utility.yul\":4027:4060   */\n  swap1\n  pop\n    /* \"#utility.yul\":3973:4066   */\n  swap2\n  swap1\n  pop\n  jump\t// out\n    /* \"#utility.yul\":4072:4179   */\ntag_27:\n    /* \"#utility.yul\":4116:4124   */\n  0x00\n    /* \"#utility.yul\":4166:4171   */\n  dup3\n    /* \"#utility.yul\":4160:4164   */\n  dup3\n    /* \"#utility.yul\":4156:4172   */\n  shl\n    /* \"#utility.yul\":4135:4172   */\n  swap1\n  pop\n    /* \"#utility.yul\":4072:4179   */\n  swap3\n  swap2\n  pop\n  pop\n  jump\t// out\n    /* \"#utility.yul\":4185:4578   */\ntag_28:\n    /* \"#utility.yul\":4254:4260   */\n  0x00\n    /* \"#utility.yul\":4304:4305   */\n  0x08\n    /* \"#utility.yul\":4292:4302   */\n  dup4\n    /* \"#utility.yul\":4288:4306   */\n  mul\n    /* \"#utility.yul\":4327:4424   */\n  tag_90\n    /* \"#utility.yul\":4357:4423   */\n  0xffffffffffffffffffffffffffffffffffffffffffffffffffffffffffffffff\n    /* \"#utility.yul\":4346:4355   */\n  dup3\n    /* \"#utility.yul\":4327:4424   */\n  tag_27\n  jump\t// in\ntag_90:\n    /* \"#utility.yul\":4445:4484   */\n  tag_91\n    /* \"#utility.yul\":4475:4483   */\n  dup7\n    /* \"#utility.yul\":4464:4473   */\n  dup4\n    /* \"#utility.yul\":4445:4484   */\n  tag_27\n  jump\t// in\ntag_91:\n    /* \"#utility.yul\":4433:4484   */\n  swap6\n  pop\n    /* \"#utility.yul\":4517:4521   */\n  dup1\n    /* \"#utility.yul\":4513:4522   */\n  not\n    /* \"#utility.yul\":4506:4511   */\n  dup5\n    /* \"#utility.yul\":4502:4523   */\n  and\n    /* \"#utility.yul\":4493:4523   */\n  swap4\n  pop\n    /* \"#utility.yul\":4566:4570   */\n  dup1\n    /* \"#utility.yul\":4556:4564   */\n  dup7\n    /* \"#utility.yul\":4552:4571   */\n  and\n    /* \"#utility.yul\":4545:4550   */\n  dup5\n    /* \"#utility.yul\":4542:4572   */\n  or\n    /* \"#utility.yul\":4532:4572   */\n  swap3\n  pop\n    /* \"#utility.yul\":4261:4578   */\n  pop\n  pop\n    /* \"#utility.yul\":4185:4578   */\n  swap4\n  swap3\n  pop\n  pop\n  pop\n  jump\t// out\n    /* \"#utility.yul\":4584:4661   */\ntag_29:\n    /* \"#utility.yul\":4621:4628   */\n  0x00\n    /* \"#utility.yul\":4650:4655   */\n  dup2\n    /* \"#utility.yul\":4639:4655   */\n  swap1\n  pop\n    /* \"#utility.yul\":4584:4661   */\n  swap2\n  swap1\n  pop\n  jump\t// out\n    /* \"#utility.yul\":4667:4727   */\ntag_30:\n    /* \"#utility.yul\":4695:4698   */\n  0x00\n    /* \"#utility.yul\":4716:4721   */\n  dup2\n    /* \"#utility.yul\":4709:4721   */\n  swap1\n  pop\n    /* \"#utility.yul\":4667:4727   */\n  swap2\n  swap1\n  pop\n  jump\t// out\n    /* \"#utility.yul\":4733:4875   */\ntag_31:\n    /* \"#utility.yul\":4783:4792   */\n  0x00\n    /* \"#utility.yul\":4816:4869   */\n  tag_95\n    /* \"#utility.yul\":4834:4868   */\n  tag_96\n    /* \"#utility.yul\":4843:4867   */\n  tag_97\n    /* \"#utility.yul\":4861:4866   */\n  dup5\n    /* \"#utility.yul\":4843:4867   */\n  tag_29\n  jump\t// in\ntag_97:\n    /* \"#utility.yul\":4834:4868   */\n  tag_30\n  jump\t// in\ntag_96:\n    /* \"#utility.yul\":4816:4869   */\n  tag_29\n  jump\t// in\ntag_95:\n    /* \"#utility.yul\":4803:4869   */\n  swap1\n  pop\n    /* \"#utility.yul\":4733:4875   */\n  swap2\n  swap1\n  pop\n  jump\t// out\n    /* \"#utility.yul\":4881:4956   */\ntag_32:\n    /* \"#utility.yul\":4924:4927   */\n  0x00\n    /* \"#utility.yul\":4945:4950   */\n  dup2\n    /* \"#utility.yul\":4938:4950   */\n  swap1\n  pop\n    /* \"#utility.yul\":4881:4956   */\n  swap2\n  swap1\n  pop\n  jump\t// out\n    /* \"#utility.yul\":4962:5231   */\ntag_33:\n    /* \"#utility.yul\":5072:5111   */\n  tag_100\n    /* \"#utility.yul\":5103:5110   */\n  dup4\n    /* \"#utility.yul\":5072:5111   */\n  tag_31\n  jump\t// in\ntag_100:\n    /* \"#utility.yul\":5133:5224   */\n  tag_101\n    /* \"#utility.yul\":5182:5223   */\n  tag_102\n    /* \"#utility.yul\":5206:5222   */\n  dup3\n    /* \"#utility.yul\":5182:5223   */\n  tag_32\n  jump\t// in\ntag_102:\n    /* \"#utility.yul\":5174:5180   */\n  dup5\n    /* \"#utility.yul\":5167:5171   */\n  dup5\n    /* \"#utility.yul\":5161:5172   */\n  sload\n    /* \"#utility.yul\":5133:5224   */\n  tag_28\n  jump\t// in\ntag_101:\n    /* \"#utility.yul\":5127:5131   */\n  dup3\n    /* \"#utility.yul\":5120:5225   */\n  sstore\n    /* \"#utility.yul\":5038:5231   */\n  pop\n    /* \"#utility.yul\":4962:5231   */\n  pop\n  pop\n  pop\n  jump\t// out\n    /* \"#utility.yul\":5237:5310   */\ntag_34:\n    /* \"#utility.yul\":5282:5285   */\n  0x00\n    /* \"#utility.yul\":5237:5310   */\n  swap1\n  jump\t// out\n    /* \"#utility.yul\":5316:5505   */\ntag_35:\n    /* \"#utility.yul\":5393:5425   */\n  tag_105\n  tag_34\n  jump\t// in\ntag_105:\n    /* \"#utility.yul\":5434:5499   */\n  tag_106\n    /* \"#utility.yul\":5492:5498   */\n  dup2\n    /* \"#utility.yul\":5484:5490   */\n  dup5\n    /* \"#utility.yul\":5478:5482   */\n  dup5\n    /* \"#utility.yul\":5434:5499   */\n  tag_33\n  jump\t// in\ntag_106:\n    /* \"#utility.yul\":5369:5505   */\n  pop\n    /* \"#utility.yul\":5316:5505   */\n  pop\n  pop\n  jump\t// out\n    /* \"#utility.yul\":5511:5697   */\ntag_36:\n    /* \"#utility.yul\":5571:5691   */\ntag_108:\n    /* \"#utility.yul\":5588:5591   */\n  dup2\n    /* \"#utility.yul\":5581:5586   */\n  dup2\n    /* \"#utility.yul\":5578:5592   */\n  lt\n    /* \"#utility.yul\":5571:5691   */\n  iszero\n  tag_110\n  jumpi\n    /* \"#utility.yul\":5642:5681   */\n  tag_111\n    /* \"#utility.yul\":5679:5680   */\n  0x00\n    /* \"#utility.yul\":5672:5677   */\n  dup3\n    /* \"#utility.yul\":5642:5681   */\n  tag_35\n  jump\t// in\ntag_111:\n    /* \"#utility.yul\":5615:5616   */\n  0x01\n    /* \"#utility.yul\":5608:5613   */\n  dup2\n    /* \"#utility.yul\":5604:5617   */\n  add\n    /* \"#utility.yul\":5595:5617   */\n  swap1\n  pop\n    /* \"#utility.yul\":5571:5691   */\n  jump(tag_108)\ntag_110:\n    /* \"#utility.yul\":5511:5697   */\n  pop\n  pop\n  jump\t// out\n    /* \"#utility.yul\":5703:6246   */\ntag_37:\n    /* \"#utility.yul\":5804:5806   */\n  0x1f\n    /* \"#utility.yul\":5799:5802   */\n  dup3\n    /* \"#utility.yul\":5796:5807   */\n  gt\n    /* \"#utility.yul\":5793:6239   */\n  iszero\n  tag_113\n  jumpi\n    /* \"#utility.yul\":5838:5876   */\n  tag_114\n    /* \"#utility.yul\":5870:5875   */\n  dup2\n    /* \"#utility.yul\":5838:5876   */\n  tag_25\n  jump\t// in\ntag_114:\n    /* \"#utility.yul\":5922:5951   */\n  tag_115\n    /* \"#utility.yul\":5940:5950   */\n  dup5\n    /* \"#utility.yul\":5922:5951   */\n  tag_26\n  jump\t// in\ntag_115:\n    /* \"#utility.yul\":5912:5920   */\n  dup2\n    /* \"#utility.yul\":5908:5952   */\n  add\n    /* \"#utility.yul\":6105:6107   */\n  0x20\n    /* \"#utility.yul\":6093:6103   */\n  dup6\n    /* \"#utility.yul\":6090:6108   */\n  lt\n    /* \"#utility.yul\":6087:6136   */\n  iszero\n  tag_116\n  jumpi\n    /* \"#utility.yul\":6126:6134   */\n  dup2\n    /* \"#utility.yul\":6111:6134   */\n  swap1\n  pop\n    /* \"#utility.yul\":6087:6136   */\ntag_116:\n    /* \"#utility.yul\":6149:6229   */\n  tag_117\n    /* \"#utility.yul\":6205:6227   */\n  tag_118\n    /* \"#utility.yul\":6223:6226   */\n  dup6\n    /* \"#utility.yul\":6205:6227   */\n  tag_26\n  jump\t// in\ntag_118:\n    /* \"#utility.yul\":6195:6203   */\n  dup4\n    /* \"#utility.yul\":6191:6228   */\n  add\n    /* \"#utility.yul\":6178:6189   */\n  dup3\n    /* \"#utility.yul\":6149:6229   */\n  tag_36\n  jump\t// in\ntag_117:\n    /* \"#utility.yul\":5808:6239   */\n  pop\n  pop\n    /* \"#utility.yul\":5793:6239   */\ntag_113:\n    /* \"#utility.yul\":5703:6246   */\n  pop\n  pop\n  pop\n  jump\t// out\n    /* \"#utility.yul\":6252:6369   */\ntag_38:\n    /* \"#utility.yul\":6306:6314   */\n  0x00\n    /* \"#utility.yul\":6356:6361   */\n  dup3\n    /* \"#utility.yul\":6350:6354   */\n  dup3\n    /* \"#utility.yul\":6346:6362   */\n  shr\n    /* \"#utility.yul\":6325:6362   */\n  swap1\n  pop\n    /* \"#utility.yul\":6252:6369   */\n  swap3\n  swap2\n  pop\n  pop\n  jump\t// out\n    /* \"#utility.yul\":6375:6544   */\ntag_39:\n    /* \"#utility.yul\":6419:6425   */\n  0x00\n    /* \"#utility.yul\":6452:6503   */\n  tag_121\n    /* \"#utility.yul\":6500:6501   */\n  0x00\n    /* \"#utility.yul\":6496:6502   */\n  not\n    /* \"#utility.yul\":6488:6493   */\n  dup5\n    /* \"#utility.yul\":6485:6486   */\n  0x08\n    /* \"#utility.yul\":6481:6494   */\n  mul\n    /* \"#utility.yul\":6452:6503   */\n  tag_38\n  jump\t// in\ntag_121:\n    /* \"#utility.yul\":6448:6504   */\n  not\n    /* \"#utility.yul\":6533:6537   */\n  dup1\n    /* \"#utility.yul\":6527:6531   */\n  dup4\n    /* \"#utility.yul\":6523:6538   */\n  and\n    /* \"#utility.yul\":6513:6538   */\n  swap2\n  pop\n    /* \"#utility.yul\":6426:6544   */\n  pop\n    /* \"#utility.yul\":6375:6544   */\n  swap3\n  swap2\n  pop\n  pop\n  jump\t// out\n    /* \"#utility.yul\":6549:6844   */\ntag_40:\n    /* \"#utility.yul\":6625:6629   */\n  0x00\n    /* \"#utility.yul\":6771:6800   */\n  tag_123\n    /* \"#utility.yul\":6796:6799   */\n  dup4\n    /* \"#utility.yul\":6790:6794   */\n  dup4\n    /* \"#utility.yul\":6771:6800   */\n  tag_39\n  jump\t// in\ntag_123:\n    /* \"#utility.yul\":6763:6800   */\n  swap2\n  pop\n    /* \"#utility.yul\":6833:6836   */\n  dup3\n    /* \"#utility.yul\":6830:6831   */\n  0x02\n    /* \"#utility.yul\":6826:6837   */\n  mul\n    /* \"#utility.yul\":6820:6824   */\n  dup3\n    /* \"#utility.yul\":6817:6838   */\n  or\n    /* \"#utility.yul\":6809:6838   */\n  swap1\n  pop\n    /* \"#utility.yul\":6549:6844   */\n  swap3\n  swap2\n  pop\n  pop\n  jump\t// out\n    /* \"#utility.yul\":6849:8244   */\ntag_7:\n    /* \"#utility.yul\":6966:7003   */\n  tag_125\n    /* \"#utility.yul\":6999:7002   */\n  dup3\n    /* \"#utility.yul\":6966:7003   */\n  tag_22\n  jump\t// in\ntag_125:\n    /* \"#utility.yul\":7068:7086   */\n  0xffffffffffffffff\n    /* \"#utility.yul\":7060:7066   */\n  dup2\n    /* \"#utility.yul\":7057:7087   */\n  gt\n    /* \"#utility.yul\":7054:7110   */\n  iszero\n  tag_126\n  jumpi\n    /* \"#utility.yul\":7090:7108   */\n  tag_127\n  tag_15\n  jump\t// in\ntag_127:\n    /* \"#utility.yul\":7054:7110   */\ntag_126:\n    /* \"#utility.yul\":7134:7172   */\n  tag_128\n    /* \"#utility.yul\":7166:7170   */\n  dup3\n    /* \"#utility.yul\":7160:7171   */\n  sload\n    /* \"#utility.yul\":7134:7172   */\n  tag_24\n  jump\t// in\ntag_128:\n    /* \"#utility.yul\":7219:7286   */\n  tag_129\n    /* \"#utility.yul\":7279:7285   */\n  dup3\n    /* \"#utility.yul\":7271:7277   */\n  dup3\n    /* \"#utility.yul\":7265:7269   */\n  dup6\n    /* \"#utility.yul\":7219:7286   */\n  tag_37\n  jump\t// in\ntag_129:\n    /* \"#utility.yul\":7313:7314   */\n  0x00\n    /* \"#utility.yul\":7337:7341   */\n  0x20\n    /* \"#utility.yul\":7324:7341   */\n  swap1\n  pop\n    /* \"#utility.yul\":7369:7371   */\n  0x1f\n    /* \"#utility.yul\":7361:7367   */\n  dup4\n    /* \"#utility.yul\":7358:7372   */\n  gt\n    /* \"#utility.yul\":7386:7387   */\n  0x01\n    /* \"#utility.yul\":7381:7999   */\n  dup2\n  eq\n  tag_131\n  jumpi\n    /* \"#utility.yul\":8043:8044   */\n  0x00\n    /* \"#utility.yul\":8060:8066   */\n  dup5\n    /* \"#utility.yul\":8057:8134   */\n  iszero\n  tag_132\n  jumpi\n    /* \"#utility.yul\":8109:8118   */\n  dup3\n    /* \"#utility.yul\":8104:8107   */\n  dup8\n    /* \"#utility.yul\":8100:8119   */\n  add\n    /* \"#utility.yul\":8094:8120   */\n  mload\n    /* \"#utility.yul\":8085:8120   */\n  swap1\n  pop\n    /* \"#utility.yul\":8057:8134   */\ntag_132:\n    /* \"#utility.yul\":8160:8227   */\n  tag_133\n    /* \"#utility.yul\":8220:8226   */\n  dup6\n    /* \"#utility.yul\":8213:8218   */\n  dup3\n    /* \"#utility.yul\":8160:8227   */\n  tag_40\n  jump\t// in\ntag_133:\n    /* \"#utility.yul\":8154:8158   */\n  dup7\n    /* \"#utility.yul\":8147:8228   */\n  sstore\n    /* \"#utility.yul\":8016:8238   */\n  pop\n    /* \"#utility.yul\":7351:8238   */\n  jump(tag_130)\n    /* \"#utility.yul\":7381:7999   */\ntag_131:\n    /* \"#utility.yul\":7433:7437   */\n  0x1f\n    /* \"#utility.yul\":7429:7438   */\n  not\n    /* \"#utility.yul\":7421:7427   */\n  dup5\n    /* \"#utility.yul\":7417:7439   */\n  and\n    /* \"#utility.yul\":7467:7504   */\n  tag_134\n    /* \"#utility.yul\":7499:7503   */\n  dup7\n    /* \"#utility.yul\":7467:7504   */\n  tag_25\n  jump\t// in\ntag_134:\n    /* \"#utility.yul\":7526:7527   */\n  0x00\n    /* \"#utility.yul\":7540:7748   */\ntag_135:\n    /* \"#utility.yul\":7554:7561   */\n  dup3\n    /* \"#utility.yul\":7551:7552   */\n  dup2\n    /* \"#utility.yul\":7548:7562   */\n  lt\n    /* \"#utility.yul\":7540:7748   */\n  iszero\n  tag_137\n  jumpi\n    /* \"#utility.yul\":7633:7642   */\n  dup5\n    /* \"#utility.yul\":7628:7631   */\n  dup10\n    /* \"#utility.yul\":7624:7643   */\n  add\n    /* \"#utility.yul\":7618:7644   */\n  mload\n    /* \"#utility.yul\":7610:7616   */\n  dup3\n    /* \"#utility.yul\":7603:7645   */\n  sstore\n    /* \"#utility.yul\":7684:7685   */\n  0x01\n    /* \"#utility.yul\":7676:7682   */\n  dup3\n    /* \"#utility.yul\":7672:7686   */\n  add\n    /* \"#utility.yul\":7662:7686   */\n  swap2\n  pop\n    /* \"#utility.yul\":7731:7733   */\n  0x20\n    /* \"#utility.yul\":7720:7729   */\n  dup6\n    /* \"#utility.yul\":7716:7734   */\n  add\n    /* \"#utility.yul\":7703:7734   */\n  swap5\n  pop\n    /* \"#utility.yul\":7577:7581   */\n  0x20\n    /* \"#utility.yul\":7574:7575   */\n  dup2\n    /* \"#utility.yul\":7570:7582   */\n  add\n    /* \"#utility.yul\":7565:7582   */\n  swap1\n  pop\n    /* \"#utility.yul\":7540:7748   */\n  jump(tag_135)\ntag_137:\n    /* \"#utility.yul\":7776:7782   */\n  dup7\n    /* \"#utility.yul\":7767:7774   */\n  dup4\n    /* \"#utility.yul\":7764:7783   */\n  lt\n    /* \"#utility.yul\":7761:7940   */\n  iszero\n  tag_138\n  jumpi\n    /* \"#utility.yul\":7834:7843   */\n  dup5\n    /* \"#utility.yul\":7829:7832   */\n  dup10\n    /* \"#utility.yul\":7825:7844   */\n  add\n    /* \"#utility.yul\":7819:7845   */\n  mload\n    /* \"#utility.yul\":7877:7925   */\n  tag_139\n    /* \"#utility.yul\":7919:7923   */\n  0x1f\n    /* \"#utility.yul\":7911:7917   */\n  dup10\n    /* \"#utility.yul\":7907:7924   */\n  and\n    /* \"#utility.yul\":7896:7905   */\n  dup3\n    /* \"#utility.yul\":7877:7925   */\n  tag_39\n  jump\t// in\ntag_139:\n    /* \"#utility.yul\":7869:7875   */\n  dup4\n    /* \"#utility.yul\":7862:7926   */\n  sstore\n    /* \"#utility.yul\":7784:7940   */\n  pop\n    /* \"#utility.yul\":7761:7940   */\ntag_138:\n    /* \"#utility.yul\":7986:7987   */\n  0x01\n    /* \"#utility.yul\":7982:7983   */\n  0x02\n    /* \"#utility.yul\":7974:7980   */\n  dup9\n    /* \"#utility.yul\":7970:7984   */\n  mul\n    /* \"#utility.yul\":7966:7988   */\n  add\n    /* \"#utility.yul\":7960:7964   */\n  dup9\n    /* \"#utility.yul\":7953:7989   */\n  sstore\n    /* \"#utility.yul\":7388:7999   */\n  pop\n  pop\n  pop\n    /* \"#utility.yul\":7351:8238   */\ntag_130:\n  pop\n    /* \"#utility.yul\":6941:8244   */\n  pop\n  pop\n  pop\n    /* \"#utility.yul\":6849:8244   */\n  pop\n  pop\n  jump\t// out\n    /* \"contracts/SimpleMessage.sol\":63:321  contract SimpleMessage { ... */\ntag_8:\n  dataSize(sub_0)\n  dup1\n  dataOffset(sub_0)\n  0x00\n  codecopy\n  0x00\n  return\nstop\n\nsub_0: assembly {\n        /* \"contracts/SimpleMessage.sol\":63:321  contract SimpleMessage { ... */\n      mstore(0x40, 0x80)\n      callvalue\n      dup1\n      iszero\n      tag_1\n      jumpi\n      0x00\n      dup1\n      revert\n    tag_1:\n      pop\n      jumpi(tag_2, lt(calldatasize, 0x04))\n      shr(0xe0, calldataload(0x00))\n      dup1\n      0x368b8772\n      eq\n      tag_3\n      jumpi\n      dup1\n      0xe21f37ce\n      eq\n      tag_4\n      jumpi\n    tag_2:\n      0x00\n      dup1\n      revert\n        /* \"contracts/SimpleMessage.sol\":223:317  function setMessage(string memory newMessage) public { ... */\n    tag_3:\n      tag_5\n      0x04\n      dup1\n      calldatasize\n      sub\n      dup2\n      add\n      swap1\n      tag_6\n      swap2\n      swap1\n      tag_7\n      jump\t// in\n    tag_6:\n      tag_8\n      jump\t// in\n    tag_5:\n      stop\n        /* \"contracts/SimpleMessage.sol\":94:115  string public message */\n    tag_4:\n      tag_9\n      tag_10\n      jump\t// in\n    tag_9:\n      mload(0x40)\n      tag_11\n      swap2\n      swap1\n      tag_12\n      jump\t// in\n    tag_11:\n      mload(0x40)\n      dup1\n      swap2\n      sub\n      swap1\n      return\n        /* \"contracts/SimpleMessage.sol\":223:317  function setMessage(string memory newMessage) public { ... */\n    tag_8:\n        /* \"contracts/SimpleMessage.sol\":298:308  newMessage */\n      dup1\n        /* \"contracts/SimpleMessage.sol\":288:295  message */\n      0x00\n        /* \"contracts/SimpleMessage.sol\":288:308  message = newMessage */\n      swap1\n      dup2\n      tag_14\n      swap2\n      swap1\n      tag_15\n      jump\t// in\n    tag_14:\n      pop\n        /* \"contracts/SimpleMessage.sol\":223:317  function setMessage(string memory newMessage) public { ... */\n      pop\n      jump\t// out\n        /* \"contracts/SimpleMessage.sol\":94:115  string public message */\n    tag_10:\n      0x00\n      dup1\n      sload\n      tag_16\n      swap1\n      tag_17\n      jump\t// in\n    tag_16:\n      dup1\n      0x1f\n      add\n      0x20\n      dup1\n      swap2\n      div\n      mul\n      0x20\n      add\n      mload(0x40)\n      swap1\n      dup2\n      add\n      0x40\n      mstore\n      dup1\n      swap3\n      swap2\n      swap1\n      dup2\n      dup2\n      mstore\n      0x20\n      add\n      dup3\n      dup1\n      sload\n      tag_18\n      swap1\n      tag_17\n      jump\t// in\n    tag_18:\n      dup1\n      iszero\n      tag_19\n      jumpi\n      dup1\n      0x1f\n      lt\n      tag_20\n      jumpi\n      0x0100\n      dup1\n      dup4\n      sload\n      div\n      mul\n      dup4\n      mstore\n      swap2\n      0x20\n      add\n      swap2\n      jump(tag_19)\n    tag_20:\n      dup3\n      add\n      swap2\n      swap1\n      0x00\n      mstore\n      keccak256(0x00, 0x20)\n      swap1\n    tag_21:\n      dup2\n      sload\n      dup2\n      mstore\n      swap1\n      0x01\n      add\n      swap1\n      0x20\n      add\n      dup1\n      dup4\n      gt\n      tag_21\n      jumpi\n      dup3\n      swap1\n      sub\n      0x1f\n      and\n      dup3\n      add\n      swap2\n    tag_19:\n      pop\n      pop\n      pop\n      pop\n      pop\n      dup2\n      jump\t// out\n        /* \"#utility.yul\":7:82   */\n    tag_22:\n        /* \"#utility.yul\":40:46   */\n      0x00\n        /* \"#utility.yul\":73:75   */\n      0x40\n        /* \"#utility.yul\":67:76   */\n      mload\n        /* \"#utility.yul\":57:76   */\n      swap1\n      pop\n        /* \"#utility.yul\":7:82   */\n      swap1\n      jump\t// out\n        /* \"#utility.yul\":88:205   */\n    tag_23:\n        /* \"#utility.yul\":197:198   */\n      0x00\n        /* \"#utility.yul\":194:195   */\n      dup1\n        /* \"#utility.yul\":187:199   */\n      revert\n        /* \"#utility.yul\":211:328   */\n    tag_24:\n        /* \"#utility.yul\":320:321   */\n      0x00\n        /* \"#utility.yul\":317:318   */\n      dup1\n        /* \"#utility.yul\":310:322   */\n      revert\n        /* \"#utility.yul\":334:451   */\n    tag_25:\n        /* \"#utility.yul\":443:444   */\n      0x00\n        /* \"#utility.yul\":440:441   */\n      dup1\n        /* \"#utility.yul\":433:445   */\n      revert\n        /* \"#utility.yul\":457:574   */\n    tag_26:\n        /* \"#utility.yul\":566:567   */\n      0x00\n        /* \"#utility.yul\":563:564   */\n      dup1\n        /* \"#utility.yul\":556:568   */\n      revert\n        /* \"#utility.yul\":580:682   */\n    tag_27:\n        /* \"#utility.yul\":621:627   */\n      0x00\n        /* \"#utility.yul\":672:674   */\n      0x1f\n        /* \"#utility.yul\":668:675   */\n      not\n        /* \"#utility.yul\":663:665   */\n      0x1f\n        /* \"#utility.yul\":656:661   */\n      dup4\n        /* \"#utility.yul\":652:666   */\n      add\n        /* \"#utility.yul\":648:676   */\n      and\n        /* \"#utility.yul\":638:676   */\n      swap1\n      pop\n        /* \"#utility.yul\":580:682   */\n      swap2\n      swap1\n      pop\n      jump\t// out\n        /* \"#utility.yul\":688:868   */\n    tag_28:\n        /* \"#utility.yul\":736:813   */\n      0x4e487b7100000000000000000000000000000000000000000000000000000000\n        /* \"#utility.yul\":733:734   */\n      0x00\n        /* \"#utility.yul\":726:814   */\n      mstore\n        /* \"#utility.yul\":833:837   */\n      0x41\n        /* \"#utility.yul\":830:831   */\n      0x04\n        /* \"#utility.yul\":823:838   */\n      mstore\n        /* \"#utility.yul\":857:861   */\n      0x24\n        /* \"#utility.yul\":854:855   */\n      0x00\n        /* \"#utility.yul\":847:862   */\n      revert\n        /* \"#utility.yul\":874:1155   */\n    tag_29:\n        /* \"#utility.yul\":957:984   */\n      tag_65\n        /* \"#utility.yul\":979:983   */\n      dup3\n        /* \"#utility.yul\":957:984   */\n      tag_27\n      jump\t// in\n    tag_65:\n        /* \"#utility.yul\":949:955   */\n      dup2\n        /* \"#utility.yul\":945:985   */\n      add\n        /* \"#utility.yul\":1087:1093   */\n      dup2\n        /* \"#utility.yul\":1075:1085   */\n      dup2\n        /* \"#utility.yul\":1072:1094   */\n      lt\n        /* \"#utility.yul\":1051:1069   */\n      0xffffffffffffffff\n        /* \"#utility.yul\":1039:1049   */\n      dup3\n        /* \"#utility.yul\":1036:1070   */\n      gt\n        /* \"#utility.yul\":1033:1095   */\n      or\n        /* \"#utility.yul\":1030:1118   */\n      iszero\n      tag_66\n      jumpi\n        /* \"#utility.yul\":1098:1116   */\n      tag_67\n      tag_28\n      jump\t// in\n    tag_67:\n        /* \"#utility.yul\":1030:1118   */\n    tag_66:\n        /* \"#utility.yul\":1138:1148   */\n      dup1\n        /* \"#utility.yul\":1134:1136   */\n      0x40\n        /* \"#utility.yul\":1127:1149   */\n      mstore\n        /* \"#utility.yul\":917:1155   */\n      pop\n        /* \"#utility.yul\":874:1155   */\n      pop\n      pop\n      jump\t// out\n        /* \"#utility.yul\":1161:1290   */\n    tag_30:\n        /* \"#utility.yul\":1195:1201   */\n      0x00\n        /* \"#utility.yul\":1222:1242   */\n      tag_69\n      tag_22\n      jump\t// in\n    tag_69:\n        /* \"#utility.yul\":1212:1242   */\n      swap1\n      pop\n        /* \"#utility.yul\":1251:1284   */\n      tag_70\n        /* \"#utility.yul\":1279:1283   */\n      dup3\n        /* \"#utility.yul\":1271:1277   */\n      dup3\n        /* \"#utility.yul\":1251:1284   */\n      tag_29\n      jump\t// in\n    tag_70:\n        /* \"#utility.yul\":1161:1290   */\n      swap2\n      swap1\n      pop\n      jump\t// out\n        /* \"#utility.yul\":1296:1604   */\n    tag_31:\n        /* \"#utility.yul\":1358:1362   */\n      0x00\n        /* \"#utility.yul\":1448:1466   */\n      0xffffffffffffffff\n        /* \"#utility.yul\":1440:1446   */\n      dup3\n        /* \"#utility.yul\":1437:1467   */\n      gt\n        /* \"#utility.yul\":1434:1490   */\n      iszero\n      tag_72\n      jumpi\n        /* \"#utility.yul\":1470:1488   */\n      tag_73\n      tag_28\n      jump\t// in\n    tag_73:\n        /* \"#utility.yul\":1434:1490   */\n    tag_72:\n        /* \"#utility.yul\":1508:1537   */\n      tag_74\n        /* \"#utility.yul\":1530:1536   */\n      dup3\n        /* \"#utility.yul\":1508:1537   */\n      tag_27\n      jump\t// in\n    tag_74:\n        /* \"#utility.yul\":1500:1537   */\n      swap1\n      pop\n        /* \"#utility.yul\":1592:1596   */\n      0x20\n        /* \"#utility.yul\":1586:1590   */\n      dup2\n        /* \"#utility.yul\":1582:1597   */\n      add\n        /* \"#utility.yul\":1574:1597   */\n      swap1\n      pop\n        /* \"#utility.yul\":1296:1604   */\n      swap2\n      swap1\n      pop\n      jump\t// out\n        /* \"#utility.yul\":1610:1758   */\n    tag_32:\n        /* \"#utility.yul\":1708:1714   */\n      dup3\n        /* \"#utility.yul\":1703:1706   */\n      dup2\n        /* \"#utility.yul\":1698:1701   */\n      dup4\n        /* \"#utility.yul\":1685:1715   */\n      calldatacopy\n        /* \"#utility.yul\":1749:1750   */\n      0x00\n        /* \"#utility.yul\":1740:1746   */\n      dup4\n        /* \"#utility.yul\":1735:1738   */\n      dup4\n        /* \"#utility.yul\":1731:1747   */\n      add\n        /* \"#utility.yul\":1724:1751   */\n      mstore\n        /* \"#utility.yul\":1610:1758   */\n      pop\n      pop\n      pop\n      jump\t// out\n        /* \"#utility.yul\":1764:2189   */\n    tag_33:\n        /* \"#utility.yul\":1842:1847   */\n      0x00\n        /* \"#utility.yul\":1867:1933   */\n      tag_77\n        /* \"#utility.yul\":1883:1932   */\n      tag_78\n        /* \"#utility.yul\":1925:1931   */\n      dup5\n        /* \"#utility.yul\":1883:1932   */\n      tag_31\n      jump\t// in\n    tag_78:\n        /* \"#utility.yul\":1867:1933   */\n      tag_30\n      jump\t// in\n    tag_77:\n        /* \"#utility.yul\":1858:1933   */\n      swap1\n      pop\n        /* \"#utility.yul\":1956:1962   */\n      dup3\n        /* \"#utility.yul\":1949:1954   */\n      dup2\n        /* \"#utility.yul\":1942:1963   */\n      mstore\n        /* \"#utility.yul\":1994:1998   */\n      0x20\n        /* \"#utility.yul\":1987:1992   */\n      dup2\n        /* \"#utility.yul\":1983:1999   */\n      add\n        /* \"#utility.yul\":2032:2035   */\n      dup5\n        /* \"#utility.yul\":2023:2029   */\n      dup5\n        /* \"#utility.yul\":2018:2021   */\n      dup5\n        /* \"#utility.yul\":2014:2030   */\n      add\n        /* \"#utility.yul\":2011:2036   */\n      gt\n        /* \"#utility.yul\":2008:2120   */\n      iszero\n      tag_79\n      jumpi\n        /* \"#utility.yul\":2039:2118   */\n      tag_80\n      tag_26\n      jump\t// in\n    tag_80:\n        /* \"#utility.yul\":2008:2120   */\n    tag_79:\n        /* \"#utility.yul\":2129:2183   */\n      tag_81\n        /* \"#utility.yul\":2176:2182   */\n      dup5\n        /* \"#utility.yul\":2171:2174   */\n      dup3\n        /* \"#utility.yul\":2166:2169   */\n      dup6\n        /* \"#utility.yul\":2129:2183   */\n      tag_32\n      jump\t// in\n    tag_81:\n        /* \"#utility.yul\":1848:2189   */\n      pop\n        /* \"#utility.yul\":1764:2189   */\n      swap4\n      swap3\n      pop\n      pop\n      pop\n      jump\t// out\n        /* \"#utility.yul\":2209:2549   */\n    tag_34:\n        /* \"#utility.yul\":2265:2270   */\n      0x00\n        /* \"#utility.yul\":2314:2317   */\n      dup3\n        /* \"#utility.yul\":2307:2311   */\n      0x1f\n        /* \"#utility.yul\":2299:2305   */\n      dup4\n        /* \"#utility.yul\":2295:2312   */\n      add\n        /* \"#utility.yul\":2291:2318   */\n      slt\n        /* \"#utility.yul\":2281:2403   */\n      tag_83\n      jumpi\n        /* \"#utility.yul\":2322:2401   */\n      tag_84\n      tag_25\n      jump\t// in\n    tag_84:\n        /* \"#utility.yul\":2281:2403   */\n    tag_83:\n        /* \"#utility.yul\":2439:2445   */\n      dup2\n        /* \"#utility.yul\":2426:2446   */\n      calldataload\n        /* \"#utility.yul\":2464:2543   */\n      tag_85\n        /* \"#utility.yul\":2539:2542   */\n      dup5\n        /* \"#utility.yul\":2531:2537   */\n      dup3\n        /* \"#utility.yul\":2524:2528   */\n      0x20\n        /* \"#utility.yul\":2516:2522   */\n      dup7\n        /* \"#utility.yul\":2512:2529   */\n      add\n        /* \"#utility.yul\":2464:2543   */\n      tag_33\n      jump\t// in\n    tag_85:\n        /* \"#utility.yul\":2455:2543   */\n      swap2\n      pop\n        /* \"#utility.yul\":2271:2549   */\n      pop\n        /* \"#utility.yul\":2209:2549   */\n      swap3\n      swap2\n      pop\n      pop\n      jump\t// out\n        /* \"#utility.yul\":2555:3064   */\n    tag_7:\n        /* \"#utility.yul\":2624:2630   */\n      0x00\n        /* \"#utility.yul\":2673:2675   */\n      0x20\n        /* \"#utility.yul\":2661:2670   */\n      dup3\n        /* \"#utility.yul\":2652:2659   */\n      dup5\n        /* \"#utility.yul\":2648:2671   */\n      sub\n        /* \"#utility.yul\":2644:2676   */\n      slt\n        /* \"#utility.yul\":2641:2760   */\n      iszero\n      tag_87\n      jumpi\n        /* \"#utility.yul\":2679:2758   */\n      tag_88\n      tag_23\n      jump\t// in\n    tag_88:\n        /* \"#utility.yul\":2641:2760   */\n    tag_87:\n        /* \"#utility.yul\":2827:2828   */\n      0x00\n        /* \"#utility.yul\":2816:2825   */\n      dup3\n        /* \"#utility.yul\":2812:2829   */\n      add\n        /* \"#utility.yul\":2799:2830   */\n      calldataload\n        /* \"#utility.yul\":2857:2875   */\n      0xffffffffffffffff\n        /* \"#utility.yul\":2849:2855   */\n      dup2\n        /* \"#utility.yul\":2846:2876   */\n      gt\n        /* \"#utility.yul\":2843:2960   */\n      iszero\n      tag_89\n      jumpi\n        /* \"#utility.yul\":2879:2958   */\n      tag_90\n      tag_24\n      jump\t// in\n    tag_90:\n        /* \"#utility.yul\":2843:2960   */\n    tag_89:\n        /* \"#utility.yul\":2984:3047   */\n      tag_91\n        /* \"#utility.yul\":3039:3046   */\n      dup5\n        /* \"#utility.yul\":3030:3036   */\n      dup3\n        /* \"#utility.yul\":3019:3028   */\n      dup6\n        /* \"#utility.yul\":3015:3037   */\n      add\n        /* \"#utility.yul\":2984:3047   */\n      tag_34\n      jump\t// in\n    tag_91:\n        /* \"#utility.yul\":2974:3047   */\n      swap2\n      pop\n        /* \"#utility.yul\":2770:3057   */\n      pop\n        /* \"#utility.yul\":2555:3064   */\n      swap3\n      swap2\n      pop\n      pop\n      jump\t// out\n        /* \"#utility.yul\":3070:3169   */\n    tag_35:\n        /* \"#utility.yul\":3122:3128   */\n      0x00\n        /* \"#utility.yul\":3156:3161   */\n      dup2\n        /* \"#utility.yul\":3150:3162   */\n      mload\n        /* \"#utility.yul\":3140:3162   */\n      swap1\n      pop\n        /* \"#utility.yul\":3070:3169   */\n      swap2\n      swap1\n      pop\n      jump\t// out\n        /* \"#utility.yul\":3175:3344   */\n    tag_36:\n        /* \"#utility.yul\":3259:3270   */\n      0x00\n        /* \"#utility.yul\":3293:3299   */\n      dup3\n        /* \"#utility.yul\":3288:3291   */\n      dup3\n        /* \"#utility.yul\":3281:3300   */\n      mstore\n        /* \"#utility.yul\":3333:3337   */\n      0x20\n        /* \"#utility.yul\":3328:3331   */\n      dup3\n        /* \"#utility.yul\":3324:3338   */\n      add\n        /* \"#utility.yul\":3309:3338   */\n      swap1\n      pop\n        /* \"#utility.yul\":3175:3344   */\n      swap3\n      swap2\n      pop\n      pop\n      jump\t// out\n        /* \"#utility.yul\":3350:3598   */\n    tag_37:\n        /* \"#utility.yul\":3432:3433   */\n      0x00\n        /* \"#utility.yul\":3442:3555   */\n    tag_95:\n        /* \"#utility.yul\":3456:3462   */\n      dup4\n        /* \"#utility.yul\":3453:3454   */\n      dup2\n        /* \"#utility.yul\":3450:3463   */\n      lt\n        /* \"#utility.yul\":3442:3555   */\n      iszero\n      tag_97\n      jumpi\n        /* \"#utility.yul\":3541:3542   */\n      dup1\n        /* \"#utility.yul\":3536:3539   */\n      dup3\n        /* \"#utility.yul\":3532:3543   */\n      add\n        /* \"#utility.yul\":3526:3544   */\n      mload\n        /* \"#utility.yul\":3522:3523   */\n      dup2\n        /* \"#utility.yul\":3517:3520   */\n      dup5\n        /* \"#utility.yul\":3513:3524   */\n      add\n        /* \"#utility.yul\":3506:3545   */\n      mstore\n        /* \"#utility.yul\":3478:3480   */\n      0x20\n        /* \"#utility.yul\":3475:3476   */\n      dup2\n        /* \"#utility.yul\":3471:3481   */\n      add\n        /* \"#utility.yul\":3466:3481   */\n      swap1\n      pop\n        /* \"#utility.yul\":3442:3555   */\n      jump(tag_95)\n    tag_97:\n        /* \"#utility.yul\":3589:3590   */\n      0x00\n        /* \"#utility.yul\":3580:3586   */\n      dup5\n        /* \"#utility.yul\":3575:3578   */\n      dup5\n        /* \"#utility.yul\":3571:3587   */\n      add\n        /* \"#utility.yul\":3564:3591   */\n      mstore\n        /* \"#utility.yul\":3412:3598   */\n      pop\n        /* \"#utility.yul\":3350:3598   */\n      pop\n      pop\n      pop\n      jump\t// out\n        /* \"#utility.yul\":3604:3981   */\n    tag_38:\n        /* \"#utility.yul\":3692:3695   */\n      0x00\n        /* \"#utility.yul\":3720:3759   */\n      tag_99\n        /* \"#utility.yul\":3753:3758   */\n      dup3\n        /* \"#utility.yul\":3720:3759   */\n      tag_35\n      jump\t// in\n    tag_99:\n        /* \"#utility.yul\":3775:3846   */\n      tag_100\n        /* \"#utility.yul\":3839:3845   */\n      dup2\n        /* \"#utility.yul\":3834:3837   */\n      dup6\n        /* \"#utility.yul\":3775:3846   */\n      tag_36\n      jump\t// in\n    tag_100:\n        /* \"#utility.yul\":3768:3846   */\n      swap4\n      pop\n        /* \"#utility.yul\":3855:3920   */\n      tag_101\n        /* \"#utility.yul\":3913:3919   */\n      dup2\n        /* \"#utility.yul\":3908:3911   */\n      dup6\n        /* \"#utility.yul\":3901:3905   */\n      0x20\n        /* \"#utility.yul\":3894:3899   */\n      dup7\n        /* \"#utility.yul\":3890:3906   */\n      add\n        /* \"#utility.yul\":3855:3920   */\n      tag_37\n      jump\t// in\n    tag_101:\n        /* \"#utility.yul\":3945:3974   */\n      tag_102\n        /* \"#utility.yul\":3967:3973   */\n      dup2\n        /* \"#utility.yul\":3945:3974   */\n      tag_27\n      jump\t// in\n    tag_102:\n        /* \"#utility.yul\":3940:3943   */\n      dup5\n        /* \"#utility.yul\":3936:3975   */\n      add\n        /* \"#utility.yul\":3929:3975   */\n      swap2\n      pop\n        /* \"#utility.yul\":3696:3981   */\n      pop\n        /* \"#utility.yul\":3604:3981   */\n      swap3\n      swap2\n      pop\n      pop\n      jump\t// out\n        /* \"#utility.yul\":3987:4300   */\n    tag_12:\n        /* \"#utility.yul\":4100:4104   */\n      0x00\n        /* \"#utility.yul\":4138:4140   */\n      0x20\n        /* \"#utility.yul\":4127:4136   */\n      dup3\n        /* \"#utility.yul\":4123:4141   */\n      add\n        /* \"#utility.yul\":4115:4141   */\n      swap1\n      pop\n        /* \"#utility.yul\":4187:4196   */\n      dup2\n        /* \"#utility.yul\":4181:4185   */\n      dup2\n        /* \"#utility.yul\":4177:4197   */\n      sub\n        /* \"#utility.yul\":4173:4174   */\n      0x00\n        /* \"#utility.yul\":4162:4171   */\n      dup4\n        /* \"#utility.yul\":4158:4175   */\n      add\n        /* \"#utility.yul\":4151:4198   */\n      mstore\n        /* \"#utility.yul\":4215:4293   */\n      tag_104\n        /* \"#utility.yul\":4288:4292   */\n      dup2\n        /* \"#utility.yul\":4279:4285   */\n      dup5\n        /* \"#utility.yul\":4215:4293   */\n      tag_38\n      jump\t// in\n    tag_104:\n        /* \"#utility.yul\":4207:4293   */\n      swap1\n      pop\n        /* \"#utility.yul\":3987:4300   */\n      swap3\n      swap2\n      pop\n      pop\n      jump\t// out\n        /* \"#utility.yul\":4306:4486   */\n    tag_39:\n        /* \"#utility.yul\":4354:4431   */\n      0x4e487b7100000000000000000000000000000000000000000000000000000000\n        /* \"#utility.yul\":4351:4352   */\n      0x00\n        /* \"#utility.yul\":4344:4432   */\n      mstore\n        /* \"#utility.yul\":4451:4455   */\n      0x22\n        /* \"#utility.yul\":4448:4449   */\n      0x04\n        /* \"#utility.yul\":4441:4456   */\n      mstore\n        /* \"#utility.yul\":4475:4479   */\n      0x24\n        /* \"#utility.yul\":4472:4473   */\n      0x00\n        /* \"#utility.yul\":4465:4480   */\n      revert\n        /* \"#utility.yul\":4492:4812   */\n    tag_17:\n        /* \"#utility.yul\":4536:4542   */\n      0x00\n        /* \"#utility.yul\":4573:4574   */\n      0x02\n        /* \"#utility.yul\":4567:4571   */\n      dup3\n        /* \"#utility.yul\":4563:4575   */\n      div\n        /* \"#utility.yul\":4553:4575   */\n      swap1\n      pop\n        /* \"#utility.yul\":4620:4621   */\n      0x01\n        /* \"#utility.yul\":4614:4618   */\n      dup3\n        /* \"#utility.yul\":4610:4622   */\n      and\n        /* \"#utility.yul\":4641:4659   */\n      dup1\n        /* \"#utility.yul\":4631:4712   */\n      tag_107\n      jumpi\n        /* \"#utility.yul\":4697:4701   */\n      0x7f\n        /* \"#utility.yul\":4689:4695   */\n      dup3\n        /* \"#utility.yul\":4685:4702   */\n      and\n        /* \"#utility.yul\":4675:4702   */\n      swap2\n      pop\n        /* \"#utility.yul\":4631:4712   */\n    tag_107:\n        /* \"#utility.yul\":4759:4761   */\n      0x20\n        /* \"#utility.yul\":4751:4757   */\n      dup3\n        /* \"#utility.yul\":4748:4762   */\n      lt\n        /* \"#utility.yul\":4728:4746   */\n      dup2\n        /* \"#utility.yul\":4725:4763   */\n      sub\n        /* \"#utility.yul\":4722:4806   */\n      tag_108\n      jumpi\n        /* \"#utility.yul\":4778:4796   */\n      tag_109\n      tag_39\n      jump\t// in\n    tag_109:\n        /* \"#utility.yul\":4722:4806   */\n    tag_108:\n        /* \"#utility.yul\":4543:4812   */\n      pop\n        /* \"#utility.yul\":4492:4812   */\n      swap2\n      swap1\n      pop\n      jump\t// out\n        /* \"#utility.yul\":4818:4959   */\n    tag_40:\n        /* \"#utility.yul\":4867:4871   */\n      0x00\n        /* \"#utility.yul\":4890:4893   */\n      dup2\n        /* \"#utility.yul\":4882:4893   */\n      swap1\n      pop\n        /* \"#utility.yul\":4913:4916   */\n      dup2\n        /* \"#utility.yul\":4910:4911   */\n      0x00\n        /* \"#utility.yul\":4903:4917   */\n      mstore\n        /* \"#utility.yul\":4947:4951   */\n      0x20\n        /* \"#utility.yul\":4944:4945   */\n      0x00\n        /* \"#utility.yul\":4934:4952   */\n      keccak256\n        /* \"#utility.yul\":4926:4952   */\n      swap1\n      pop\n        /* \"#utility.yul\":4818:4959   */\n      swap2\n      swap1\n      pop\n      jump\t// out\n        /* \"#utility.yul\":4965:5058   */\n    tag_41:\n        /* \"#utility.yul\":5002:5008   */\n      0x00\n        /* \"#utility.yul\":5049:5051   */\n      0x20\n        /* \"#utility.yul\":5044:5046   */\n      0x1f\n        /* \"#utility.yul\":5037:5042   */\n      dup4\n        /* \"#utility.yul\":5033:5047   */\n      add\n        /* \"#utility.yul\":5029:5052   */\n      div\n        /* \"#utility.yul\":5019:5052   */\n      swap1\n      pop\n        /* \"#utility.yul\":4965:5058   */\n      swap2\n      swap1\n      pop\n      jump\t// out\n        /* \"#utility.yul\":5064:5171   */\n    tag_42:\n        /* \"#utility.yul\":5108:5116   */\n      0x00\n        /* \"#utility.yul\":5158:5163   */\n      dup3\n        /* \"#utility.yul\":5152:5156   */\n      dup3\n        /* \"#utility.yul\":5148:5164   */\n      shl\n        /* \"#utility.yul\":5127:5164   */\n      swap1\n      pop\n        /* \"#utility.yul\":5064:5171   */\n      swap3\n      swap2\n      pop\n      pop\n      jump\t// out\n        /* \"#utility.yul\":5177:5570   */\n    tag_43:\n        /* \"#utility.yul\":5246:5252   */\n      0x00\n        /* \"#utility.yul\":5296:5297   */\n      0x08\n        /* \"#utility.yul\":5284:5294   */\n      dup4\n        /* \"#utility.yul\":5280:5298   */\n      mul\n        /* \"#utility.yul\":5319:5416   */\n      tag_114\n        /* \"#utility.yul\":5349:5415   */\n      0xffffffffffffffffffffffffffffffffffffffffffffffffffffffffffffffff\n        /* \"#utility.yul\":5338:5347   */\n      dup3\n        /* \"#utility.yul\":5319:5416   */\n      tag_42\n      jump\t// in\n    tag_114:\n        /* \"#utility.yul\":5437:5476   */\n      tag_115\n        /* \"#utility.yul\":5467:5475   */\n      dup7\n        /* \"#utility.yul\":5456:5465   */\n      dup4\n        /* \"#utility.yul\":5437:5476   */\n      tag_42\n      jump\t// in\n    tag_115:\n        /* \"#utility.yul\":5425:5476   */\n      swap6\n      pop\n        /* \"#utility.yul\":5509:5513   */\n      dup1\n        /* \"#utility.yul\":5505:5514   */\n      not\n        /* \"#utility.yul\":5498:5503   */\n      dup5\n        /* \"#utility.yul\":5494:5515   */\n      and\n        /* \"#utility.yul\":5485:5515   */\n      swap4\n      pop\n        /* \"#utility.yul\":5558:5562   */\n      dup1\n        /* \"#utility.yul\":5548:5556   */\n      dup7\n        /* \"#utility.yul\":5544:5563   */\n      and\n        /* \"#utility.yul\":5537:5542   */\n      dup5\n        /* \"#utility.yul\":5534:5564   */\n      or\n        /* \"#utility.yul\":5524:5564   */\n      swap3\n      pop\n        /* \"#utility.yul\":5253:5570   */\n      pop\n      pop\n        /* \"#utility.yul\":5177:5570   */\n      swap4\n      swap3\n      pop\n      pop\n      pop\n      jump\t// out\n        /* \"#utility.yul\":5576:5653   */\n    tag_44:\n        /* \"#utility.yul\":5613:5620   */\n      0x00\n        /* \"#utility.yul\":5642:5647   */\n      dup2\n        /* \"#utility.yul\":5631:5647   */\n      swap1\n      pop\n        /* \"#utility.yul\":5576:5653   */\n      swap2\n      swap1\n      pop\n      jump\t// out\n        /* \"#utility.yul\":5659:5719   */\n    tag_45:\n        /* \"#utility.yul\":5687:5690   */\n      0x00\n        /* \"#utility.yul\":5708:5713   */\n      dup2\n        /* \"#utility.yul\":5701:5713   */\n      swap1\n      pop\n        /* \"#utility.yul\":5659:5719   */\n      swap2\n      swap1\n      pop\n      jump\t// out\n        /* \"#utility.yul\":5725:5867   */\n    tag_46:\n        /* \"#utility.yul\":5775:5784   */\n      0x00\n        /* \"#utility.yul\":5808:5861   */\n      tag_119\n        /* \"#utility.yul\":5826:5860   */\n      tag_120\n        /* \"#utility.yul\":5835:5859   */\n      tag_121\n        /* \"#utility.yul\":5853:5858   */\n      dup5\n        /* \"#utility.yul\":5835:5859   */\n      tag_44\n      jump\t// in\n    tag_121:\n        /* \"#utility.yul\":5826:5860   */\n      tag_45\n      jump\t// in\n    tag_120:\n        /* \"#utility.yul\":5808:5861   */\n      tag_44\n      jump\t// in\n    tag_119:\n        /* \"#utility.yul\":5795:5861   */\n      swap1\n      pop\n        /* \"#utility.yul\":5725:5867   */\n      swap2\n      swap1\n      pop\n      jump\t// out\n        /* \"#utility.yul\":5873:5948   */\n    tag_47:\n        /* \"#utility.yul\":5916:5919   */\n      0x00\n        /* \"#utility.yul\":5937:5942   */\n      dup2\n        /* \"#utility.yul\":5930:5942   */\n      swap1\n      pop\n        /* \"#utility.yul\":5873:5948   */\n      swap2\n      swap1\n      pop\n      jump\t// out\n        /* \"#utility.yul\":5954:6223   */\n    tag_48:\n        /* \"#utility.yul\":6064:6103   */\n      tag_124\n        /* \"#utility.yul\":6095:6102   */\n      dup4\n        /* \"#utility.yul\":6064:6103   */\n      tag_46\n      jump\t// in\n    tag_124:\n        /* \"#utility.yul\":6125:6216   */\n      tag_125\n        /* \"#utility.yul\":6174:6215   */\n      tag_126\n        /* \"#utility.yul\":6198:6214   */\n      dup3\n        /* \"#utility.yul\":6174:6215   */\n      tag_47\n      jump\t// in\n    tag_126:\n        /* \"#utility.yul\":6166:6172   */\n      dup5\n        /* \"#utility.yul\":6159:6163   */\n      dup5\n        /* \"#utility.yul\":6153:6164   */\n      sload\n        /* \"#utility.yul\":6125:6216   */\n      tag_43\n      jump\t// in\n    tag_125:\n        /* \"#utility.yul\":6119:6123   */\n      dup3\n        /* \"#utility.yul\":6112:6217   */\n      sstore\n        /* \"#utility.yul\":6030:6223   */\n      pop\n        /* \"#utility.yul\":5954:6223   */\n      pop\n      pop\n      pop\n      jump\t// out\n        /* \"#utility.yul\":6229:6302   */\n    tag_49:\n        /* \"#utility.yul\":6274:6277   */\n      0x00\n        /* \"#utility.yul\":6229:6302   */\n      swap1\n      jump\t// out\n        /* \"#utility.yul\":6308:6497   */\n    tag_50:\n        /* \"#utility.yul\":6385:6417   */\n      tag_129\n      tag_49\n      jump\t// in\n    tag_129:\n        /* \"#utility.yul\":6426:6491   */\n      tag_130\n        /* \"#utility.yul\":6484:6490   */\n      dup2\n        /* \"#utility.yul\":6476:6482   */\n      dup5\n        /* \"#utility.yul\":6470:6474   */\n      dup5\n        /* \"#utility.yul\":6426:6491   */\n      tag_48\n      jump\t// in\n    tag_130:\n        /* \"#utility.yul\":6361:6497   */\n      pop\n        /* \"#utility.yul\":6308:6497   */\n      pop\n      pop\n      jump\t// out\n        /* \"#utility.yul\":6503:6689   */\n    tag_51:\n        /* \"#utility.yul\":6563:6683   */\n    tag_132:\n        /* \"#utility.yul\":6580:6583   */\n      dup2\n        /* \"#utility.yul\":6573:6578   */\n      dup2\n        /* \"#utility.yul\":6570:6584   */\n      lt\n        /* \"#utility.yul\":6563:6683   */\n      iszero\n      tag_134\n      jumpi\n        /* \"#utility.yul\":6634:6673   */\n      tag_135\n        /* \"#utility.yul\":6671:6672   */\n      0x00\n        /* \"#utility.yul\":6664:6669   */\n      dup3\n        /* \"#utility.yul\":6634:6673   */\n      tag_50\n      jump\t// in\n    tag_135:\n        /* \"#utility.yul\":6607:6608   */\n      0x01\n        /* \"#utility.yul\":6600:6605   */\n      dup2\n        /* \"#utility.yul\":6596:6609   */\n      add\n        /* \"#utility.yul\":6587:6609   */\n      swap1\n      pop\n        /* \"#utility.yul\":6563:6683   */\n      jump(tag_132)\n    tag_134:\n        /* \"#utility.yul\":6503:6689   */\n      pop\n      pop\n      jump\t// out\n        /* \"#utility.yul\":6695:7238   */\n    tag_52:\n        /* \"#utility.yul\":6796:6798   */\n      0x1f\n        /* \"#utility.yul\":6791:6794   */\n      dup3\n        /* \"#utility.yul\":6788:6799   */\n      gt\n        /* \"#utility.yul\":6785:7231   */\n      iszero\n      tag_137\n      jumpi\n        /* \"#utility.yul\":6830:6868   */\n      tag_138\n        /* \"#utility.yul\":6862:6867   */\n      dup2\n        /* \"#utility.yul\":6830:6868   */\n      tag_40\n      jump\t// in\n    tag_138:\n        /* \"#utility.yul\":6914:6943   */\n      tag_139\n        /* \"#utility.yul\":6932:6942   */\n      dup5\n        /* \"#utility.yul\":6914:6943   */\n      tag_41\n      jump\t// in\n    tag_139:\n        /* \"#utility.yul\":6904:6912   */\n      dup2\n        /* \"#utility.yul\":6900:6944   */\n      add\n        /* \"#utility.yul\":7097:7099   */\n      0x20\n        /* \"#utility.yul\":7085:7095   */\n      dup6\n        /* \"#utility.yul\":7082:7100   */\n      lt\n        /* \"#utility.yul\":7079:7128   */\n      iszero\n      tag_140\n      jumpi\n        /* \"#utility.yul\":7118:7126   */\n      dup2\n        /* \"#utility.yul\":7103:7126   */\n      swap1\n      pop\n        /* \"#utility.yul\":7079:7128   */\n    tag_140:\n        /* \"#utility.yul\":7141:7221   */\n      tag_141\n        /* \"#utility.yul\":7197:7219   */\n      tag_142\n        /* \"#utility.yul\":7215:7218   */\n      dup6\n        /* \"#utility.yul\":7197:7219   */\n      tag_41\n      jump\t// in\n    tag_142:\n        /* \"#utility.yul\":7187:7195   */\n      dup4\n        /* \"#utility.yul\":7183:7220   */\n      add\n        /* \"#utility.yul\":7170:7181   */\n      dup3\n        /* \"#utility.yul\":7141:7221   */\n      tag_51\n      jump\t// in\n    tag_141:\n        /* \"#utility.yul\":6800:7231   */\n      pop\n      pop\n        /* \"#utility.yul\":6785:7231   */\n    tag_137:\n        /* \"#utility.yul\":6695:7238   */\n      pop\n      pop\n      pop\n      jump\t// out\n        /* \"#utility.yul\":7244:7361   */\n    tag_53:\n        /* \"#utility.yul\":7298:7306   */\n      0x00\n        /* \"#utility.yul\":7348:7353   */\n      dup3\n        /* \"#utility.yul\":7342:7346   */\n      dup3\n        /* \"#utility.yul\":7338:7354   */\n      shr\n        /* \"#utility.yul\":7317:7354   */\n      swap1\n      pop\n        /* \"#utility.yul\":7244:7361   */\n      swap3\n      swap2\n      pop\n      pop\n      jump\t// out\n        /* \"#utility.yul\":7367:7536   */\n    tag_54:\n        /* \"#utility.yul\":7411:7417   */\n      0x00\n        /* \"#utility.yul\":7444:7495   */\n      tag_145\n        /* \"#utility.yul\":7492:7493   */\n      0x00\n        /* \"#utility.yul\":7488:7494   */\n      not\n        /* \"#utility.yul\":7480:7485   */\n      dup5\n        /* \"#utility.yul\":7477:7478   */\n      0x08\n        /* \"#utility.yul\":7473:7486   */\n      mul\n        /* \"#utility.yul\":7444:7495   */\n      tag_53\n      jump\t// in\n    tag_145:\n        /* \"#utility.yul\":7440:7496   */\n      not\n        /* \"#utility.yul\":7525:7529   */\n      dup1\n        /* \"#utility.yul\":7519:7523   */\n      dup4\n        /* \"#utility.yul\":7515:7530   */\n      and\n        /* \"#utility.yul\":7505:7530   */\n      swap2\n      pop\n        /* \"#utility.yul\":7418:7536   */\n      pop\n        /* \"#utility.yul\":7367:7536   */\n      swap3\n      swap2\n      pop\n      pop\n      jump\t// out\n        /* \"#utility.yul\":7541:7836   */\n    tag_55:\n        /* \"#utility.yul\":7617:7621   */\n      0x00\n        /* \"#utility.yul\":7763:7792   */\n      tag_147\n        /* \"#utility.yul\":7788:7791   */\n      dup4\n        /* \"#utility.yul\":7782:7786   */\n      dup4\n        /* \"#utility.yul\":7763:7792   */\n      tag_54\n      jump\t// in\n    tag_147:\n        /* \"#utility.yul\":7755:7792   */\n      swap2\n      pop\n        /* \"#utility.yul\":7825:7828   */\n      dup3\n        /* \"#utility.yul\":7822:7823   */\n      0x02\n        /* \"#utility.yul\":7818:7829   */\n      mul\n        /* \"#utility.yul\":7812:7816   */\n      dup3\n        /* \"#utility.yul\":7809:7830   */\n      or\n        /* \"#utility.yul\":7801:7830   */\n      swap1\n      pop\n        /* \"#utility.yul\":7541:7836   */\n      swap3\n      swap2\n      pop\n      pop\n      jump\t// out\n        /* \"#utility.yul\":7841:9236   */\n    tag_15:\n        /* \"#utility.yul\":7958:7995   */\n      tag_149\n        /* \"#utility.yul\":7991:7994   */\n      dup3\n        /* \"#utility.yul\":7958:7995   */\n      tag_35\n      jump\t// in\n    tag_149:\n        /* \"#utility.yul\":8060:8078   */\n      0xffffffffffffffff\n        /* \"#utility.yul\":8052:8058   */\n      dup2\n        /* \"#utility.yul\":8049:8079   */\n      gt\n        /* \"#utility.yul\":8046:8102   */\n      iszero\n      tag_150\n      jumpi\n        /* \"#utility.yul\":8082:8100   */\n      tag_151\n      tag_28\n      jump\t// in\n    tag_151:\n        /* \"#utility.yul\":8046:8102   */\n    tag_150:\n        /* \"#utility.yul\":8126:8164   */\n      tag_152\n        /* \"#utility.yul\":8158:8162   */\n      dup3\n        /* \"#utility.yul\":8152:8163   */\n      sload\n        /* \"#utility.yul\":8126:8164   */\n      tag_17\n      jump\t// in\n    tag_152:\n        /* \"#utility.yul\":8211:8278   */\n      tag_153\n        /* \"#utility.yul\":8271:8277   */\n      dup3\n        /* \"#utility.yul\":8263:8269   */\n      dup3\n        /* \"#utility.yul\":8257:8261   */\n      dup6\n        /* \"#utility.yul\":8211:8278   */\n      tag_52\n      jump\t// in\n    tag_153:\n        /* \"#utility.yul\":8305:8306   */\n      0x00\n        /* \"#utility.yul\":8329:8333   */\n      0x20\n        /* \"#utility.yul\":8316:8333   */\n      swap1\n      pop\n        /* \"#utility.yul\":8361:8363   */\n      0x1f\n        /* \"#utility.yul\":8353:8359   */\n      dup4\n        /* \"#utility.yul\":8350:8364   */\n      gt\n        /* \"#utility.yul\":8378:8379   */\n      0x01\n        /* \"#utility.yul\":8373:8991   */\n      dup2\n      eq\n      tag_155\n      jumpi\n        /* \"#utility.yul\":9035:9036   */\n      0x00\n        /* \"#utility.yul\":9052:9058   */\n      dup5\n        /* \"#utility.yul\":9049:9126   */\n      iszero\n      tag_156\n      jumpi\n        /* \"#utility.yul\":9101:9110   */\n      dup3\n        /* \"#utility.yul\":9096:9099   */\n      dup8\n        /* \"#utility.yul\":9092:9111   */\n      add\n        /* \"#utility.yul\":9086:9112   */\n      mload\n        /* \"#utility.yul\":9077:9112   */\n      swap1\n      pop\n        /* \"#utility.yul\":9049:9126   */\n    tag_156:\n        /* \"#utility.yul\":9152:9219   */\n      tag_157\n        /* \"#utility.yul\":9212:9218   */\n      dup6\n        /* \"#utility.yul\":9205:9210   */\n      dup3\n        /* \"#utility.yul\":9152:9219   */\n      tag_55\n      jump\t// in\n    tag_157:\n        /* \"#utility.yul\":9146:9150   */\n      dup7\n        /* \"#utility.yul\":9139:9220   */\n      sstore\n        /* \"#utility.yul\":9008:9230   */\n      pop\n        /* \"#utility.yul\":8343:9230   */\n      jump(tag_154)\n        /* \"#utility.yul\":8373:8991   */\n    tag_155:\n        /* \"#utility.yul\":8425:8429   */\n      0x1f\n        /* \"#utility.yul\":8421:8430   */\n      not\n        /* \"#utility.yul\":8413:8419   */\n      dup5\n        /* \"#utility.yul\":8409:8431   */\n      and\n        /* \"#utility.yul\":8459:8496   */\n      tag_158\n        /* \"#utility.yul\":8491:8495   */\n      dup7\n        /* \"#utility.yul\":8459:8496   */\n      tag_40\n      jump\t// in\n    tag_158:\n        /* \"#utility.yul\":8518:8519   */\n      0x00\n        /* \"#utility.yul\":8532:8740   */\n    tag_159:\n        /* \"#utility.yul\":8546:8553   */\n      dup3\n        /* \"#utility.yul\":8543:8544   */\n      dup2\n        /* \"#utility.yul\":8540:8554   */\n      lt\n        /* \"#utility.yul\":8532:8740   */\n      iszero\n      tag_161\n      jumpi\n        /* \"#utility.yul\":8625:8634   */\n      dup5\n        /* \"#utility.yul\":8620:8623   */\n      dup10\n        /* \"#utility.yul\":8616:8635   */\n      add\n        /* \"#utility.yul\":8610:8636   */\n      mload\n        /* \"#utility.yul\":8602:8608   */\n      dup3\n        /* \"#utility.yul\":8595:8637   */\n      sstore\n        /* \"#utility.yul\":8676:8677   */\n      0x01\n        /* \"#utility.yul\":8668:8674   */\n      dup3\n        /* \"#utility.yul\":8664:8678   */\n      add\n        /* \"#utility.yul\":8654:8678   */\n      swap2\n      pop\n        /* \"#utility.yul\":8723:8725   */\n      0x20\n        /* \"#utility.yul\":8712:8721   */\n      dup6\n        /* \"#utility.yul\":8708:8726   */\n      add\n        /* \"#utility.yul\":8695:8726   */\n      swap5\n      pop\n        /* \"#utility.yul\":8569:8573   */\n      0x20\n        /* \"#utility.yul\":8566:8567   */\n      dup2\n        /* \"#utility.yul\":8562:8574   */\n      add\n        /* \"#utility.yul\":8557:8574   */\n      swap1\n      pop\n        /* \"#utility.yul\":8532:8740   */\n      jump(tag_159)\n    tag_161:\n        /* \"#utility.yul\":8768:8774   */\n      dup7\n        /* \"#utility.yul\":8759:8766   */\n      dup4\n        /* \"#utility.yul\":8756:8775   */\n      lt\n        /* \"#utility.yul\":8753:8932   */\n      iszero\n      tag_162\n      jumpi\n        /* \"#utility.yul\":8826:8835   */\n      dup5\n        /* \"#utility.yul\":8821:8824   */\n      dup10\n        /* \"#utility.yul\":8817:8836   */\n      add\n        /* \"#utility.yul\":8811:8837   */\n      mload\n        /* \"#utility.yul\":8869:8917   */\n      tag_163\n        /* \"#utility.yul\":8911:8915   */\n      0x1f\n        /* \"#utility.yul\":8903:8909   */\n      dup10\n        /* \"#utility.yul\":8899:8916   */\n      and\n        /* \"#utility.yul\":8888:8897   */\n      dup3\n        /* \"#utility.yul\":8869:8917   */\n      tag_54\n      jump\t// in\n    tag_163:\n        /* \"#utility.yul\":8861:8867   */\n      dup4\n        /* \"#utility.yul\":8854:8918   */\n      sstore\n        /* \"#utility.yul\":8776:8932   */\n      pop\n        /* \"#utility.yul\":8753:8932   */\n    tag_162:\n        /* \"#utility.yul\":8978:8979   */\n      0x01\n        /* \"#utility.yul\":8974:8975   */\n      0x02\n        /* \"#utility.yul\":8966:8972   */\n      dup9\n        /* \"#utility.yul\":8962:8976   */\n      mul\n        /* \"#utility.yul\":8958:8980   */\n      add\n        /* \"#utility.yul\":8952:8956   */\n      dup9\n        /* \"#utility.yul\":8945:8981   */\n      sstore\n        /* \"#utility.yul\":8380:8991   */\n      pop\n      pop\n      pop\n        /* \"#utility.yul\":8343:9230   */\n    tag_154:\n      pop\n        /* \"#utility.yul\":7933:9236   */\n      pop\n      pop\n      pop\n        /* \"#utility.yul\":7841:9236   */\n      pop\n      pop\n      jump\t// out\n\n    auxdata: 0xa26469706673582212200c5cbc4c3b70de77e6ab5c26433abac024ca25a2495f25d9e2d00a44c0d6d74464736f6c634300081e0033\n}\n",
				"bytecode": {
					"linkReferences": {},
					"object": "608060405234801561001057600080fd5b50604051610b80380380610b80833981810160405281019061003291906101bd565b80600090816100419190610427565b50506104f9565b6000604051905090565b600080fd5b600080fd5b600080fd5b600080fd5b6000601f19601f8301169050919050565b7f4e487b7100000000000000000000000000000000000000000000000000000000600052604160045260246000fd5b6100af82610066565b810181811067ffffffffffffffff821117156100ce576100cd610077565b5b80604052505050565b60006100e1610048565b90506100ed82826100a6565b919050565b600067ffffffffffffffff82111561010d5761010c610077565b5b61011682610066565b9050602081019050919050565b60005b83811015610141578082015181840152602081019050610126565b60008484015250505050565b600061016061015b846100f2565b6100d7565b90508281526020810184848401111561017c5761017b610061565b5b610187848285610123565b509392505050565b600082601f8301126101a4576101a361005c565b5b81516101b484826020860161014d565b91505092915050565b6000602082840312156101d3576101d2610052565b5b600082015167ffffffffffffffff8111156101f1576101f0610057565b5b6101fd8482850161018f565b91505092915050565b600081519050919050565b7f4e487b7100000000000000000000000000000000000000000000000000000000600052602260045260246000fd5b6000600282049050600182168061025857607f821691505b60208210810361026b5761026a610211565b5b50919050565b60008190508160005260206000209050919050565b60006020601f8301049050919050565b600082821b905092915050565b6000600883026102d37fffffffffffffffffffffffffffffffffffffffffffffffffffffffffffffffff82610296565b6102dd8683610296565b95508019841693508086168417925050509392505050565b6000819050919050565b6000819050919050565b600061032461031f61031a846102f5565b6102ff565b6102f5565b9050919050565b6000819050919050565b61033e83610309565b61035261034a8261032b565b8484546102a3565b825550505050565b600090565b61036761035a565b610372818484610335565b505050565b5b818110156103965761038b60008261035f565b600181019050610378565b5050565b601f8211156103db576103ac81610271565b6103b584610286565b810160208510156103c4578190505b6103d86103d085610286565b830182610377565b50505b505050565b600082821c905092915050565b60006103fe600019846008026103e0565b1980831691505092915050565b600061041783836103ed565b9150826002028217905092915050565b61043082610206565b67ffffffffffffffff81111561044957610448610077565b5b6104538254610240565b61045e82828561039a565b600060209050601f831160018114610491576000841561047f578287015190505b610489858261040b565b8655506104f1565b601f19841661049f86610271565b60005b828110156104c7578489015182556001820191506020850194506020810190506104a2565b868310156104e457848901516104e0601f8916826103ed565b8355505b6001600288020188555050505b505050505050565b610678806105086000396000f3fe608060405234801561001057600080fd5b50600436106100365760003560e01c8063368b87721461003b578063e21f37ce14610057575b600080fd5b61005560048036038101906100509190610270565b610075565b005b61005f610088565b60405161006c9190610338565b60405180910390f35b80600090816100849190610570565b5050565b6000805461009590610389565b80601f01602080910402602001604051908101604052809291908181526020018280546100c190610389565b801561010e5780601f106100e35761010080835404028352916020019161010e565b820191906000526020600020905b8154815290600101906020018083116100f157829003601f168201915b505050505081565b6000604051905090565b600080fd5b600080fd5b600080fd5b600080fd5b6000601f19601f8301169050919050565b7f4e487b7100000000000000000000000000000000000000000000000000000000600052604160045260246000fd5b61017d82610134565b810181811067ffffffffffffffff8211171561019c5761019b610145565b5b80604052505050565b60006101af610116565b90506101bb8282610174565b919050565b600067ffffffffffffffff8211156101db576101da610145565b5b6101e482610134565b9050602081019050919050565b82818337600083830152505050565b600061021361020e846101c0565b6101a5565b90508281526020810184848401111561022f5761022e61012f565b5b61023a8482856101f1565b509392505050565b600082601f8301126102575761025661012a565b5b8135610267848260208601610200565b91505092915050565b60006020828403121561028657610285610120565b5b600082013567ffffffffffffffff8111156102a4576102a3610125565b5b6102b084828501610242565b91505092915050565b600081519050919050565b600082825260208201905092915050565b60005b838110156102f35780820151818401526020810190506102d8565b60008484015250505050565b600061030a826102b9565b61031481856102c4565b93506103248185602086016102d5565b61032d81610134565b840191505092915050565b6000602082019050818103600083015261035281846102ff565b905092915050565b7f4e487b7100000000000000000000000000000000000000000000000000000000600052602260045260246000fd5b600060028204905060018216806103a157607f821691505b6020821081036103b4576103b361035a565b5b50919050565b60008190508160005260206000209050919050565b60006020601f8301049050919050565b600082821b905092915050565b60006008830261041c7fffffffffffffffffffffffffffffffffffffffffffffffffffffffffffffffff826103df565b61042686836103df565b95508019841693508086168417925050509392505050565b6000819050919050565b6000819050919050565b600061046d6104686104638461043e565b610448565b61043e565b9050919050565b6000819050919050565b61048783610452565b61049b61049382610474565b8484546103ec565b825550505050565b600090565b6104b06104a3565b6104bb81848461047e565b505050565b5b818110156104df576104d46000826104a8565b6001810190506104c1565b5050565b601f821115610524576104f5816103ba565b6104fe846103cf565b8101602085101561050d578190505b610521610519856103cf565b8301826104c0565b50505b505050565b600082821c905092915050565b600061054760001984600802610529565b1980831691505092915050565b60006105608383610536565b9150826002028217905092915050565b610579826102b9565b67ffffffffffffffff81111561059257610591610145565b5b61059c8254610389565b6105a78282856104e3565b600060209050601f8311600181146105da57600084156105c8578287015190505b6105d28582610554565b86555061063a565b601f1984166105e8866103ba565b60005b82811015610610578489015182556001820191506020850194506020810190506105eb565b8683101561062d5784890151610629601f891682610536565b8355505b6001600288020188555050505b50505050505056fea26469706673582212200c5cbc4c3b70de77e6ab5c26433abac024ca25a2495f25d9e2d00a44c0d6d74464736f6c634300081e0033",
					"opcodes": "PUSH1 0x80 PUSH1 0x40 MSTORE CALLVALUE DUP1 ISZERO PUSH2 0x10 JUMPI PUSH1 0x0 DUP1 REVERT JUMPDEST POP PUSH1 0x40 MLOAD PUSH2 0xB80 CODESIZE SUB DUP1 PUSH2 0xB80 DUP4 CODECOPY DUP2 DUP2 ADD PUSH1 0x40 MSTORE DUP2 ADD SWAP1 PUSH2 0x32 SWAP2 SWAP1 PUSH2 0x1BD JUMP JUMPDEST DUP1 PUSH1 0x0 SWAP1 DUP2 PUSH2 0x41 SWAP2 SWAP1 PUSH2 0x427 JUMP JUMPDEST POP POP PUSH2 0x4F9 JUMP JUMPDEST PUSH1 0x0 PUSH1 0x40 MLOAD SWAP1 POP SWAP1 JUMP JUMPDEST PUSH1 0x0 DUP1 REVERT JUMPDEST PUSH1 0x0 DUP1 REVERT JUMPDEST PUSH1 0x0 DUP1 REVERT JUMPDEST PUSH1 0x0 DUP1 REVERT JUMPDEST PUSH1 0x0 PUSH1 0x1F NOT PUSH1 0x1F DUP4 ADD AND SWAP1 POP SWAP2 SWAP1 POP JUMP JUMPDEST PUSH32 0x4E487B7100000000000000000000000000000000000000000000000000000000 PUSH1 0x0 MSTORE PUSH1 0x41 PUSH1 0x4 MSTORE PUSH1 0x24 PUSH1 0x0 REVERT JUMPDEST PUSH2 0xAF DUP3 PUSH2 0x66 JUMP JUMPDEST DUP2 ADD DUP2 DUP2 LT PUSH8 0xFFFFFFFFFFFFFFFF DUP3 GT OR ISZERO PUSH2 0xCE JUMPI PUSH2 0xCD PUSH2 0x77 JUMP JUMPDEST JUMPDEST DUP1 PUSH1 0x40 MSTORE POP POP POP JUMP JUMPDEST PUSH1 0x0 PUSH2 0xE1 PUSH2 0x48 JUMP JUMPDEST SWAP1 POP PUSH2 0xED DUP3 DUP3 PUSH2 0xA6 JUMP JUMPDEST SWAP2 SWAP1 POP JUMP JUMPDEST PUSH1 0x0 PUSH8 0xFFFFFFFFFFFFFFFF DUP3 GT ISZERO PUSH2 0x10D JUMPI PUSH2 0x10C PUSH2 0x77 JUMP JUMPDEST JUMPDEST PUSH2 0x116 DUP3 PUSH2 0x66 JUMP JUMPDEST SWAP1 POP PUSH1 0x20 DUP2 ADD SWAP1 POP SWAP2 SWAP1 POP JUMP JUMPDEST PUSH1 0x0 JUMPDEST DUP4 DUP2 LT ISZERO PUSH2 0x141 JUMPI DUP1 DUP3 ADD MLOAD DUP2 DUP5 ADD MSTORE PUSH1 0x20 DUP2 ADD SWAP1 POP PUSH2 0x126 JUMP JUMPDEST PUSH1 0x0 DUP5 DUP5 ADD MSTORE POP POP POP POP JUMP JUMPDEST PUSH1 0x0 PUSH2 0x160 PUSH2 0x15B DUP5 PUSH2 0xF2 JUMP JUMPDEST PUSH2 0xD7 JUMP JUMPDEST SWAP1 POP DUP3 DUP2 MSTORE PUSH1 0x20 DUP2 ADD DUP5 DUP5 DUP5 ADD GT ISZERO PUSH2 0x17C JUMPI PUSH2 0x17B PUSH2 0x61 JUMP JUMPDEST JUMPDEST PUSH2 0x187 DUP5 DUP3 DUP6 PUSH2 0x123 JUMP JUMPDEST POP SWAP4 SWAP3 POP POP POP JUMP JUMPDEST PUSH1 0x0 DUP3 PUSH1 0x1F DUP4 ADD SLT PUSH2 0x1A4 JUMPI PUSH2 0x1A3 PUSH2 0x5C JUMP JUMPDEST JUMPDEST DUP2 MLOAD PUSH2 0x1B4 DUP5 DUP3 PUSH1 0x20 DUP7 ADD PUSH2 0x14D JUMP JUMPDEST SWAP2 POP POP SWAP3 SWAP2 POP POP JUMP JUMPDEST PUSH1 0x0 PUSH1 0x20 DUP3 DUP5 SUB SLT ISZERO PUSH2 0x1D3 JUMPI PUSH2 0x1D2 PUSH2 0x52 JUMP JUMPDEST JUMPDEST PUSH1 0x0 DUP3 ADD MLOAD PUSH8 0xFFFFFFFFFFFFFFFF DUP2 GT ISZERO PUSH2 0x1F1 JUMPI PUSH2 0x1F0 PUSH2 0x57 JUMP JUMPDEST JUMPDEST PUSH2 0x1FD DUP5 DUP3 DUP6 ADD PUSH2 0x18F JUMP JUMPDEST SWAP2 POP POP SWAP3 SWAP2 POP POP JUMP JUMPDEST PUSH1 0x0 DUP2 MLOAD SWAP1 POP SWAP2 SWAP1 POP JUMP JUMPDEST PUSH32 0x4E487B7100000000000000000000000000000000000000000000000000000000 PUSH1 0x0 MSTORE PUSH1 0x22 PUSH1 0x4 MSTORE PUSH1 0x24 PUSH1 0x0 REVERT JUMPDEST PUSH1 0x0 PUSH1 0x2 DUP3 DIV SWAP1 POP PUSH1 0x1 DUP3 AND DUP1 PUSH2 0x258 JUMPI PUSH1 0x7F DUP3 AND SWAP2 POP JUMPDEST PUSH1 0x20 DUP3 LT DUP2 SUB PUSH2 0x26B JUMPI PUSH2 0x26A PUSH2 0x211 JUMP JUMPDEST JUMPDEST POP SWAP2 SWAP1 POP JUMP JUMPDEST PUSH1 0x0 DUP2 SWAP1 POP DUP2 PUSH1 0x0 MSTORE PUSH1 0x20 PUSH1 0x0 KECCAK256 SWAP1 POP SWAP2 SWAP1 POP JUMP JUMPDEST PUSH1 0x0 PUSH1 0x20 PUSH1 0x1F DUP4 ADD DIV SWAP1 POP SWAP2 SWAP1 POP JUMP JUMPDEST PUSH1 0x0 DUP3 DUP3 SHL SWAP1 POP SWAP3 SWAP2 POP POP JUMP JUMPDEST PUSH1 0x0 PUSH1 0x8 DUP4 MUL PUSH2 0x2D3 PUSH32 0xFFFFFFFFFFFFFFFFFFFFFFFFFFFFFFFFFFFFFFFFFFFFFFFFFFFFFFFFFFFFFFFF DUP3 PUSH2 0x296 JUMP JUMPDEST PUSH2 0x2DD DUP7 DUP4 PUSH2 0x296 JUMP JUMPDEST SWAP6 POP DUP1 NOT DUP5 AND SWAP4 POP DUP1 DUP7 AND DUP5 OR SWAP3 POP POP POP SWAP4 SWAP3 POP POP POP JUMP JUMPDEST PUSH1 0x0 DUP2 SWAP1 POP SWAP2 SWAP1 POP JUMP JUMPDEST PUSH1 0x0 DUP2 SWAP1 POP SWAP2 SWAP1 POP JUMP JUMPDEST PUSH1 0x0 PUSH2 0x324 PUSH2 0x31F PUSH2 0x31A DUP5 PUSH2 0x2F5 JUMP JUMPDEST PUSH2 0x2FF JUMP JUMPDEST PUSH2 0x2F5 JUMP JUMPDEST SWAP1 POP SWAP2 SWAP1 POP JUMP JUMPDEST PUSH1 0x0 DUP2 SWAP1 POP SWAP2 SWAP1 POP JUMP JUMPDEST PUSH2 0x33E DUP4 PUSH2 0x309 JUMP JUMPDEST PUSH2 0x352 PUSH2 0x34A DUP3 PUSH2 0x32B JUMP JUMPDEST DUP5 DUP5 SLOAD PUSH2 0x2A3 JUMP JUMPDEST DUP3 SSTORE POP POP POP POP JUMP JUMPDEST PUSH1 0x0 SWAP1 JUMP JUMPDEST PUSH2 0x367 PUSH2 0x35A JUMP JUMPDEST PUSH2 0x372 DUP2 DUP5 DUP5 PUSH2 0x335 JUMP JUMPDEST POP POP POP JUMP JUMPDEST JUMPDEST DUP2 DUP2 LT ISZERO PUSH2 0x396 JUMPI PUSH2 0x38B PUSH1 0x0 DUP3 PUSH2 0x35F JUMP JUMPDEST PUSH1 0x1 DUP2 ADD SWAP1 POP PUSH2 0x378 JUMP JUMPDEST POP POP JUMP JUMPDEST PUSH1 0x1F DUP3 GT ISZERO PUSH2 0x3DB JUMPI PUSH2 0x3AC DUP2 PUSH2 0x271 JUMP JUMPDEST PUSH2 0x3B5 DUP5 PUSH2 0x286 JUMP JUMPDEST DUP2 ADD PUSH1 0x20 DUP6 LT ISZERO PUSH2 0x3C4 JUMPI DUP2 SWAP1 POP JUMPDEST PUSH2 0x3D8 PUSH2 0x3D0 DUP6 PUSH2 0x286 JUMP JUMPDEST DUP4 ADD DUP3 PUSH2 0x377 JUMP JUMPDEST POP POP JUMPDEST POP POP POP JUMP JUMPDEST PUSH1 0x0 DUP3 DUP3 SHR SWAP1 POP SWAP3 SWAP2 POP POP JUMP JUMPDEST PUSH1 0x0 PUSH2 0x3FE PUSH1 0x0 NOT DUP5 PUSH1 0x8 MUL PUSH2 0x3E0 JUMP JUMPDEST NOT DUP1 DUP4 AND SWAP2 POP POP SWAP3 SWAP2 POP POP JUMP JUMPDEST PUSH1 0x0 PUSH2 0x417 DUP4 DUP4 PUSH2 0x3ED JUMP JUMPDEST SWAP2 POP DUP3 PUSH1 0x2 MUL DUP3 OR SWAP1 POP SWAP3 SWAP2 POP POP JUMP JUMPDEST PUSH2 0x430 DUP3 PUSH2 0x206 JUMP JUMPDEST PUSH8 0xFFFFFFFFFFFFFFFF DUP2 GT ISZERO PUSH2 0x449 JUMPI PUSH2 0x448 PUSH2 0x77 JUMP JUMPDEST JUMPDEST PUSH2 0x453 DUP3 SLOAD PUSH2 0x240 JUMP JUMPDEST PUSH2 0x45E DUP3 DUP3 DUP6 PUSH2 0x39A JUMP JUMPDEST PUSH1 0x0 PUSH1 0x20 SWAP1 POP PUSH1 0x1F DUP4 GT PUSH1 0x1 DUP2 EQ PUSH2 0x491 JUMPI PUSH1 0x0 DUP5 ISZERO PUSH2 0x47F JUMPI DUP3 DUP8 ADD MLOAD SWAP1 POP JUMPDEST PUSH2 0x489 DUP6 DUP3 PUSH2 0x40B JUMP JUMPDEST DUP7 SSTORE POP PUSH2 0x4F1 JUMP JUMPDEST PUSH1 0x1F NOT DUP5 AND PUSH2 0x49F DUP7 PUSH2 0x271 JUMP JUMPDEST PUSH1 0x0 JUMPDEST DUP3 DUP2 LT ISZERO PUSH2 0x4C7 JUMPI DUP5 DUP10 ADD MLOAD DUP3 SSTORE PUSH1 0x1 DUP3 ADD SWAP2 POP PUSH1 0x20 DUP6 ADD SWAP5 POP PUSH1 0x20 DUP2 ADD SWAP1 POP PUSH2 0x4A2 JUMP JUMPDEST DUP7 DUP4 LT ISZERO PUSH2 0x4E4 JUMPI DUP5 DUP10 ADD MLOAD PUSH2 0x4E0 PUSH1 0x1F DUP10 AND DUP3 PUSH2 0x3ED JUMP JUMPDEST DUP4 SSTORE POP JUMPDEST PUSH1 0x1 PUSH1 0x2 DUP9 MUL ADD DUP9 SSTORE POP POP POP JUMPDEST POP POP POP POP POP POP JUMP JUMPDEST PUSH2 0x678 DUP1 PUSH2 0x508 PUSH1 0x0 CODECOPY PUSH1 0x0 RETURN INVALID PUSH1 0x80 PUSH1 0x40 MSTORE CALLVALUE DUP1 ISZERO PUSH2 0x10 JUMPI PUSH1 0x0 DUP1 REVERT JUMPDEST POP PUSH1 0x4 CALLDATASIZE LT PUSH2 0x36 JUMPI PUSH1 0x0 CALLDATALOAD PUSH1 0xE0 SHR DUP1 PUSH4 0x368B8772 EQ PUSH2 0x3B JUMPI DUP1 PUSH4 0xE21F37CE EQ PUSH2 0x57 JUMPI JUMPDEST PUSH1 0x0 DUP1 REVERT JUMPDEST PUSH2 0x55 PUSH1 0x4 DUP1 CALLDATASIZE SUB DUP2 ADD SWAP1 PUSH2 0x50 SWAP2 SWAP1 PUSH2 0x270 JUMP JUMPDEST PUSH2 0x75 JUMP JUMPDEST STOP JUMPDEST PUSH2 0x5F PUSH2 0x88 JUMP JUMPDEST PUSH1 0x40 MLOAD PUSH2 0x6C SWAP2 SWAP1 PUSH2 0x338 JUMP JUMPDEST PUSH1 0x40 MLOAD DUP1 SWAP2 SUB SWAP1 RETURN JUMPDEST DUP1 PUSH1 0x0 SWAP1 DUP2 PUSH2 0x84 SWAP2 SWAP1 PUSH2 0x570 JUMP JUMPDEST POP POP JUMP JUMPDEST PUSH1 0x0 DUP1 SLOAD PUSH2 0x95 SWAP1 PUSH2 0x389 JUMP JUMPDEST DUP1 PUSH1 0x1F ADD PUSH1 0x20 DUP1 SWAP2 DIV MUL PUSH1 0x20 ADD PUSH1 0x40 MLOAD SWAP1 DUP2 ADD PUSH1 0x40 MSTORE DUP1 SWAP3 SWAP2 SWAP1 DUP2 DUP2 MSTORE PUSH1 0x20 ADD DUP3 DUP1 SLOAD PUSH2 0xC1 SWAP1 PUSH2 0x389 JUMP JUMPDEST DUP1 ISZERO PUSH2 0x10E JUMPI DUP1 PUSH1 0x1F LT PUSH2 0xE3 JUMPI PUSH2 0x100 DUP1 DUP4 SLOAD DIV MUL DUP4 MSTORE SWAP2 PUSH1 0x20 ADD SWAP2 PUSH2 0x10E JUMP JUMPDEST DUP3 ADD SWAP2 SWAP1 PUSH1 0x0 MSTORE PUSH1 0x20 PUSH1 0x0 KECCAK256 SWAP1 JUMPDEST DUP2 SLOAD DUP2 MSTORE SWAP1 PUSH1 0x1 ADD SWAP1 PUSH1 0x20 ADD DUP1 DUP4 GT PUSH2 0xF1 JUMPI DUP3 SWAP1 SUB PUSH1 0x1F AND DUP3 ADD SWAP2 JUMPDEST POP POP POP POP POP DUP2 JUMP JUMPDEST PUSH1 0x0 PUSH1 0x40 MLOAD SWAP1 POP SWAP1 JUMP JUMPDEST PUSH1 0x0 DUP1 REVERT JUMPDEST PUSH1 0x0 DUP1 REVERT JUMPDEST PUSH1 0x0 DUP1 REVERT JUMPDEST PUSH1 0x0 DUP1 REVERT JUMPDEST PUSH1 0x0 PUSH1 0x1F NOT PUSH1 0x1F DUP4 ADD AND SWAP1 POP SWAP2 SWAP1 POP JUMP JUMPDEST PUSH32 0x4E487B7100000000000000000000000000000000000000000000000000000000 PUSH1 0x0 MSTORE PUSH1 0x41 PUSH1 0x4 MSTORE PUSH1 0x24 PUSH1 0x0 REVERT JUMPDEST PUSH2 0x17D DUP3 PUSH2 0x134 JUMP JUMPDEST DUP2 ADD DUP2 DUP2 LT PUSH8 0xFFFFFFFFFFFFFFFF DUP3 GT OR ISZERO PUSH2 0x19C JUMPI PUSH2 0x19B PUSH2 0x145 JUMP JUMPDEST JUMPDEST DUP1 PUSH1 0x40 MSTORE POP POP POP JUMP JUMPDEST PUSH1 0x0 PUSH2 0x1AF PUSH2 0x116 JUMP JUMPDEST SWAP1 POP PUSH2 0x1BB DUP3 DUP3 PUSH2 0x174 JUMP JUMPDEST SWAP2 SWAP1 POP JUMP JUMPDEST PUSH1 0x0 PUSH8 0xFFFFFFFFFFFFFFFF DUP3 GT ISZERO PUSH2 0x1DB JUMPI PUSH2 0x1DA PUSH2 0x145 JUMP JUMPDEST JUMPDEST PUSH2 0x1E4 DUP3 PUSH2 0x134 JUMP JUMPDEST SWAP1 POP PUSH1 0x20 DUP2 ADD SWAP1 POP SWAP2 SWAP1 POP JUMP JUMPDEST DUP3 DUP2 DUP4 CALLDATACOPY PUSH1 0x0 DUP4 DUP4 ADD MSTORE POP POP POP JUMP JUMPDEST PUSH1 0x0 PUSH2 0x213 PUSH2 0x20E DUP5 PUSH2 0x1C0 JUMP JUMPDEST PUSH2 0x1A5 JUMP JUMPDEST SWAP1 POP DUP3 DUP2 MSTORE PUSH1 0x20 DUP2 ADD DUP5 DUP5 DUP5 ADD GT ISZERO PUSH2 0x22F JUMPI PUSH2 0x22E PUSH2 0x12F JUMP JUMPDEST JUMPDEST PUSH2 0x23A DUP5 DUP3 DUP6 PUSH2 0x1F1 JUMP JUMPDEST POP SWAP4 SWAP3 POP POP POP JUMP JUMPDEST PUSH1 0x0 DUP3 PUSH1 0x1F DUP4 ADD SLT PUSH2 0x257 JUMPI PUSH2 0x256 PUSH2 0x12A JUMP JUMPDEST JUMPDEST DUP2 CALLDATALOAD PUSH2 0x267 DUP5 DUP3 PUSH1 0x20 DUP7 ADD PUSH2 0x200 JUMP JUMPDEST SWAP2 POP POP SWAP3 SWAP2 POP POP JUMP JUMPDEST PUSH1 0x0 PUSH1 0x20 DUP3 DUP5 SUB SLT ISZERO PUSH2 0x286 JUMPI PUSH2 0x285 PUSH2 0x120 JUMP JUMPDEST JUMPDEST PUSH1 0x0 DUP3 ADD CALLDATALOAD PUSH8 0xFFFFFFFFFFFFFFFF DUP2 GT ISZERO PUSH2 0x2A4 JUMPI PUSH2 0x2A3 PUSH2 0x125 JUMP JUMPDEST JUMPDEST PUSH2 0x2B0 DUP5 DUP3 DUP6 ADD PUSH2 0x242 JUMP JUMPDEST SWAP2 POP POP SWAP3 SWAP2 POP POP JUMP JUMPDEST PUSH1 0x0 DUP2 MLOAD SWAP1 POP SWAP2 SWAP1 POP JUMP JUMPDEST PUSH1 0x0 DUP3 DUP3 MSTORE PUSH1 0x20 DUP3 ADD SWAP1 POP SWAP3 SWAP2 POP POP JUMP JUMPDEST PUSH1 0x0 JUMPDEST DUP4 DUP2 LT ISZERO PUSH2 0x2F3 JUMPI DUP1 DUP3 ADD MLOAD DUP2 DUP5 ADD MSTORE PUSH1 0x20 DUP2 ADD SWAP1 POP PUSH2 0x2D8 JUMP JUMPDEST PUSH1 0x0 DUP5 DUP5 ADD MSTORE POP POP POP POP JUMP JUMPDEST PUSH1 0x0 PUSH2 0x30A DUP3 PUSH2 0x2B9 JUMP JUMPDEST PUSH2 0x314 DUP2 DUP6 PUSH2 0x2C4 JUMP JUMPDEST SWAP4 POP PUSH2 0x324 DUP2 DUP6 PUSH1 0x20 DUP7 ADD PUSH2 0x2D5 JUMP JUMPDEST PUSH2 0x32D DUP2 PUSH2 0x134 JUMP JUMPDEST DUP5 ADD SWAP2 POP POP SWAP3 SWAP2 POP POP JUMP JUMPDEST PUSH1 0x0 PUSH1 0x20 DUP3 ADD SWAP1 POP DUP2 DUP2 SUB PUSH1 0x0 DUP4 ADD MSTORE PUSH2 0x352 DUP2 DUP5 PUSH2 0x2FF JUMP JUMPDEST SWAP1 POP SWAP3 SWAP2 POP POP JUMP JUMPDEST PUSH32 0x4E487B7100000000000000000000000000000000000000000000000000000000 PUSH1 0x0 MSTORE PUSH1 0x22 PUSH1 0x4 MSTORE PUSH1 0x24 PUSH1 0x0 REVERT JUMPDEST PUSH1 0x0 PUSH1 0x2 DUP3 DIV SWAP1 POP PUSH1 0x1 DUP3 AND DUP1 PUSH2 0x3A1 JUMPI PUSH1 0x7F DUP3 AND SWAP2 POP JUMPDEST PUSH1 0x20 DUP3 LT DUP2 SUB PUSH2 0x3B4 JUMPI PUSH2 0x3B3 PUSH2 0x35A JUMP JUMPDEST JUMPDEST POP SWAP2 SWAP1 POP JUMP JUMPDEST PUSH1 0x0 DUP2 SWAP1 POP DUP2 PUSH1 0x0 MSTORE PUSH1 0x20 PUSH1 0x0 KECCAK256 SWAP1 POP SWAP2 SWAP1 POP JUMP JUMPDEST PUSH1 0x0 PUSH1 0x20 PUSH1 0x1F DUP4 ADD DIV SWAP1 POP SWAP2 SWAP1 POP JUMP JUMPDEST PUSH1 0x0 DUP3 DUP3 SHL SWAP1 POP SWAP3 SWAP2 POP POP JUMP JUMPDEST PUSH1 0x0 PUSH1 0x8 DUP4 MUL PUSH2 0x41C PUSH32 0xFFFFFFFFFFFFFFFFFFFFFFFFFFFFFFFFFFFFFFFFFFFFFFFFFFFFFFFFFFFFFFFF DUP3 PUSH2 0x3DF JUMP JUMPDEST PUSH2 0x426 DUP7 DUP4 PUSH2 0x3DF JUMP JUMPDEST SWAP6 POP DUP1 NOT DUP5 AND SWAP4 POP DUP1 DUP7 AND DUP5 OR SWAP3 POP POP POP SWAP4 SWAP3 POP POP POP JUMP JUMPDEST PUSH1 0x0 DUP2 SWAP1 POP SWAP2 SWAP1 POP JUMP JUMPDEST PUSH1 0x0 DUP2 SWAP1 POP SWAP2 SWAP1 POP JUMP JUMPDEST PUSH1 0x0 PUSH2 0x46D PUSH2 0x468 PUSH2 0x463 DUP5 PUSH2 0x43E JUMP JUMPDEST PUSH2 0x448 JUMP JUMPDEST PUSH2 0x43E JUMP JUMPDEST SWAP1 POP SWAP2 SWAP1 POP JUMP JUMPDEST PUSH1 0x0 DUP2 SWAP1 POP SWAP2 SWAP1 POP JUMP JUMPDEST PUSH2 0x487 DUP4 PUSH2 0x452 JUMP JUMPDEST PUSH2 0x49B PUSH2 0x493 DUP3 PUSH2 0x474 JUMP JUMPDEST DUP5 DUP5 SLOAD PUSH2 0x3EC JUMP JUMPDEST DUP3 SSTORE POP POP POP POP JUMP JUMPDEST PUSH1 0x0 SWAP1 JUMP JUMPDEST PUSH2 0x4B0 PUSH2 0x4A3 JUMP JUMPDEST PUSH2 0x4BB DUP2 DUP5 DUP5 PUSH2 0x47E JUMP JUMPDEST POP POP POP JUMP JUMPDEST JUMPDEST DUP2 DUP2 LT ISZERO PUSH2 0x4DF JUMPI PUSH2 0x4D4 PUSH1 0x0 DUP3 PUSH2 0x4A8 JUMP JUMPDEST PUSH1 0x1 DUP2 ADD SWAP1 POP PUSH2 0x4C1 JUMP JUMPDEST POP POP JUMP JUMPDEST PUSH1 0x1F DUP3 GT ISZERO PUSH2 0x524 JUMPI PUSH2 0x4F5 DUP2 PUSH2 0x3BA JUMP JUMPDEST PUSH2 0x4FE DUP5 PUSH2 0x3CF JUMP JUMPDEST DUP2 ADD PUSH1 0x20 DUP6 LT ISZERO PUSH2 0x50D JUMPI DUP2 SWAP1 POP JUMPDEST PUSH2 0x521 PUSH2 0x519 DUP6 PUSH2 0x3CF JUMP JUMPDEST DUP4 ADD DUP3 PUSH2 0x4C0 JUMP JUMPDEST POP POP JUMPDEST POP POP POP JUMP JUMPDEST PUSH1 0x0 DUP3 DUP3 SHR SWAP1 POP SWAP3 SWAP2 POP POP JUMP JUMPDEST PUSH1 0x0 PUSH2 0x547 PUSH1 0x0 NOT DUP5 PUSH1 0x8 MUL PUSH2 0x529 JUMP JUMPDEST NOT DUP1 DUP4 AND SWAP2 POP POP SWAP3 SWAP2 POP POP JUMP JUMPDEST PUSH1 0x0 PUSH2 0x560 DUP4 DUP4 PUSH2 0x536 JUMP JUMPDEST SWAP2 POP DUP3 PUSH1 0x2 MUL DUP3 OR SWAP1 POP SWAP3 SWAP2 POP POP JUMP JUMPDEST PUSH2 0x579 DUP3 PUSH2 0x2B9 JUMP JUMPDEST PUSH8 0xFFFFFFFFFFFFFFFF DUP2 GT ISZERO PUSH2 0x592 JUMPI PUSH2 0x591 PUSH2 0x145 JUMP JUMPDEST JUMPDEST PUSH2 0x59C DUP3 SLOAD PUSH2 0x389 JUMP JUMPDEST PUSH2 0x5A7 DUP3 DUP3 DUP6 PUSH2 0x4E3 JUMP JUMPDEST PUSH1 0x0 PUSH1 0x20 SWAP1 POP PUSH1 0x1F DUP4 GT PUSH1 0x1 DUP2 EQ PUSH2 0x5DA JUMPI PUSH1 0x0 DUP5 ISZERO PUSH2 0x5C8 JUMPI DUP3 DUP8 ADD MLOAD SWAP1 POP JUMPDEST PUSH2 0x5D2 DUP6 DUP3 PUSH2 0x554 JUMP JUMPDEST DUP7 SSTORE POP PUSH2 0x63A JUMP JUMPDEST PUSH1 0x1F NOT DUP5 AND PUSH2 0x5E8 DUP7 PUSH2 0x3BA JUMP JUMPDEST PUSH1 0x0 JUMPDEST DUP3 DUP2 LT ISZERO PUSH2 0x610 JUMPI DUP5 DUP10 ADD MLOAD DUP3 SSTORE PUSH1 0x1 DUP3 ADD SWAP2 POP PUSH1 0x20 DUP6 ADD SWAP5 POP PUSH1 0x20 DUP2 ADD SWAP1 POP PUSH2 0x5EB JUMP JUMPDEST DUP7 DUP4 LT ISZERO PUSH2 0x62D JUMPI DUP5 DUP10 ADD MLOAD PUSH2 0x629 PUSH1 0x1F DUP10 AND DUP3 PUSH2 0x536 JUMP JUMPDEST DUP4 SSTORE POP JUMPDEST PUSH1 0x1 PUSH1 0x2 DUP9 MUL ADD DUP9 SSTORE POP POP POP JUMPDEST POP POP POP POP POP POP JUMP INVALID LOG2 PUSH5 0x6970667358 0x22 SLT KECCAK256 0xC TLOAD 0xBC 0x4C EXTCODESIZE PUSH17 0xDE77E6AB5C26433ABAC024CA25A2495F25 0xD9 0xE2 0xD0 EXP DIFFICULTY 0xC0 0xD6 0xD7 DIFFICULTY PUSH5 0x736F6C6343 STOP ADDMOD 0x1E STOP CALLER "
				},
				"gasEstimates": {
					"creation": {
						"codeDepositCost": "331200",
						"executionCost": "infinite",
						"totalCost": "infinite"
					},
					"external": {
						"message()": "infinite",
						"setMessage(string)": "infinite"
					}
				},
				"methodIdentifiers": {
					"message()": "e21f37ce",
					"setMessage(string)": "368b8772"
				}
			},
			"storageLayout": {
				"storage": [
					{
						"astId": 3,
						"contract": "contracts/SimpleMessage.sol:SimpleMessage",
						"label": "message",
						"offset": 0,
						"slot": "0",
						"type": "t_string_storage"
					}
				],
				"types": {
					"t_string_storage": {
						"encoding": "bytes",
						"label": "string",
						"numberOfBytes": "32"
					}
				}
			},
			"userdoc": {
				"kind": "user",
				"methods": {},
				"version": 1
			}
		}
	}
}